{
  "_format": "hh-sol-artifact-1",
  "contractName": "MyNFT",
  "sourceName": "contracts/MyNFT.sol",
  "abi": [
    {
      "inputs": [
        {
          "internalType": "string",
          "name": "name_",
          "type": "string"
        },
        {
          "internalType": "string",
          "name": "symbol_",
          "type": "string"
        },
        {
          "internalType": "string",
          "name": "baseURI_",
          "type": "string"
        },
        {
          "internalType": "address",
          "name": "royaltyReceiver_",
          "type": "address"
        },
        {
          "internalType": "uint96",
          "name": "royaltyFeeNumerator_",
          "type": "uint96"
        }
      ],
      "stateMutability": "nonpayable",
      "type": "constructor"
    },
    {
      "anonymous": false,
      "inputs": [
        {
          "indexed": true,
          "internalType": "address",
          "name": "owner",
          "type": "address"
        },
        {
          "indexed": true,
          "internalType": "address",
          "name": "approved",
          "type": "address"
        },
        {
          "indexed": true,
          "internalType": "uint256",
          "name": "tokenId",
          "type": "uint256"
        }
      ],
      "name": "Approval",
      "type": "event"
    },
    {
      "anonymous": false,
      "inputs": [
        {
          "indexed": true,
          "internalType": "address",
          "name": "owner",
          "type": "address"
        },
        {
          "indexed": true,
          "internalType": "address",
          "name": "operator",
          "type": "address"
        },
        {
          "indexed": false,
          "internalType": "bool",
          "name": "approved",
          "type": "bool"
        }
      ],
      "name": "ApprovalForAll",
      "type": "event"
    },
    {
      "anonymous": false,
      "inputs": [
        {
          "indexed": false,
          "internalType": "uint256",
          "name": "newLimit",
          "type": "uint256"
        }
      ],
      "name": "MaxMintPerWalletUpdated",
      "type": "event"
    },
    {
      "anonymous": false,
      "inputs": [
        {
          "indexed": false,
          "internalType": "bytes32",
          "name": "newRoot",
          "type": "bytes32"
        }
      ],
      "name": "MerkleRootUpdated",
      "type": "event"
    },
    {
      "anonymous": false,
      "inputs": [
        {
          "indexed": true,
          "internalType": "address",
          "name": "previousOwner",
          "type": "address"
        },
        {
          "indexed": true,
          "internalType": "address",
          "name": "newOwner",
          "type": "address"
        }
      ],
      "name": "OwnershipTransferred",
      "type": "event"
    },
    {
      "anonymous": false,
      "inputs": [
        {
          "indexed": false,
          "internalType": "address",
          "name": "receiver",
          "type": "address"
        },
        {
          "indexed": false,
          "internalType": "uint96",
          "name": "feeNumerator",
          "type": "uint96"
        }
      ],
      "name": "RoyaltyUpdated",
      "type": "event"
    },
    {
      "anonymous": false,
      "inputs": [
        {
          "indexed": true,
          "internalType": "address",
          "name": "from",
          "type": "address"
        },
        {
          "indexed": true,
          "internalType": "address",
          "name": "to",
          "type": "address"
        },
        {
          "indexed": true,
          "internalType": "uint256",
          "name": "tokenId",
          "type": "uint256"
        }
      ],
      "name": "Transfer",
      "type": "event"
    },
    {
      "anonymous": false,
      "inputs": [
        {
          "indexed": false,
          "internalType": "bool",
          "name": "enabled",
          "type": "bool"
        }
      ],
      "name": "WhitelistEnabled",
      "type": "event"
    },
    {
      "anonymous": false,
      "inputs": [
        {
          "indexed": true,
          "internalType": "address",
          "name": "wallet",
          "type": "address"
        },
        {
          "indexed": false,
          "internalType": "bool",
          "name": "status",
          "type": "bool"
        }
      ],
      "name": "WhitelistUpdated",
      "type": "event"
    },
    {
      "inputs": [
        {
          "internalType": "address",
          "name": "wallet",
          "type": "address"
        }
      ],
      "name": "addToWhitelist",
      "outputs": [],
      "stateMutability": "nonpayable",
      "type": "function"
    },
    {
      "inputs": [
        {
          "internalType": "address[]",
          "name": "wallets",
          "type": "address[]"
        }
      ],
      "name": "addToWhitelistBatch",
      "outputs": [],
      "stateMutability": "nonpayable",
      "type": "function"
    },
    {
      "inputs": [
        {
          "internalType": "bytes32[]",
          "name": "proof",
          "type": "bytes32[]"
        }
      ],
      "name": "allowlistMint",
      "outputs": [
        {
          "internalType": "uint256",
          "name": "",
          "type": "uint256"
        }
      ],
      "stateMutability": "nonpayable",
      "type": "function"
    },
    {
      "inputs": [
        {
          "internalType": "address",
          "name": "",
          "type": "address"
        }
      ],
      "name": "allowlistMinted",
      "outputs": [
        {
          "internalType": "uint256",
          "name": "",
          "type": "uint256"
        }
      ],
      "stateMutability": "view",
      "type": "function"
    },
    {
      "inputs": [
        {
          "internalType": "address",
          "name": "to",
          "type": "address"
        },
        {
          "internalType": "uint256",
          "name": "tokenId",
          "type": "uint256"
        }
      ],
      "name": "approve",
      "outputs": [],
      "stateMutability": "nonpayable",
      "type": "function"
    },
    {
      "inputs": [
        {
          "internalType": "address",
          "name": "owner",
          "type": "address"
        }
      ],
      "name": "balanceOf",
      "outputs": [
        {
          "internalType": "uint256",
          "name": "",
          "type": "uint256"
        }
      ],
      "stateMutability": "view",
      "type": "function"
    },
    {
      "inputs": [
        {
          "internalType": "address",
          "name": "wallet",
          "type": "address"
        }
      ],
      "name": "canMint",
      "outputs": [
        {
          "internalType": "bool",
          "name": "",
          "type": "bool"
        }
      ],
      "stateMutability": "view",
      "type": "function"
    },
    {
      "inputs": [
        {
          "internalType": "uint256",
          "name": "tokenId",
          "type": "uint256"
        }
      ],
      "name": "getApproved",
      "outputs": [
        {
          "internalType": "address",
          "name": "",
          "type": "address"
        }
      ],
      "stateMutability": "view",
      "type": "function"
    },
    {
      "inputs": [
        {
          "internalType": "address",
          "name": "wallet",
          "type": "address"
        }
      ],
      "name": "getWalletMintInfo",
      "outputs": [
        {
          "internalType": "uint256",
          "name": "mintedCount",
          "type": "uint256"
        },
        {
          "internalType": "uint256",
          "name": "remainingMints",
          "type": "uint256"
        },
        {
          "internalType": "bool",
          "name": "isWhitelistedWallet",
          "type": "bool"
        }
      ],
      "stateMutability": "view",
      "type": "function"
    },
    {
      "inputs": [
        {
          "internalType": "address",
          "name": "owner",
          "type": "address"
        },
        {
          "internalType": "address",
          "name": "operator",
          "type": "address"
        }
      ],
      "name": "isApprovedForAll",
      "outputs": [
        {
          "internalType": "bool",
          "name": "",
          "type": "bool"
        }
      ],
      "stateMutability": "view",
      "type": "function"
    },
    {
      "inputs": [
        {
          "internalType": "address",
          "name": "wallet",
          "type": "address"
        }
      ],
      "name": "isWhitelisted",
      "outputs": [
        {
          "internalType": "bool",
          "name": "",
          "type": "bool"
        }
      ],
      "stateMutability": "view",
      "type": "function"
    },
    {
      "inputs": [],
      "name": "maxMintPerWallet",
      "outputs": [
        {
          "internalType": "uint256",
          "name": "",
          "type": "uint256"
        }
      ],
      "stateMutability": "view",
      "type": "function"
    },
    {
      "inputs": [],
      "name": "merkleRoot",
      "outputs": [
        {
          "internalType": "bytes32",
          "name": "",
          "type": "bytes32"
        }
      ],
      "stateMutability": "view",
      "type": "function"
    },
    {
      "inputs": [],
      "name": "mint",
      "outputs": [
        {
          "internalType": "uint256",
          "name": "",
          "type": "uint256"
        }
      ],
      "stateMutability": "nonpayable",
      "type": "function"
    },
    {
      "inputs": [
        {
          "internalType": "address",
          "name": "to",
          "type": "address"
        },
        {
          "internalType": "uint256",
          "name": "quantity",
          "type": "uint256"
        }
      ],
      "name": "mintTo",
      "outputs": [],
      "stateMutability": "nonpayable",
      "type": "function"
    },
    {
      "inputs": [],
      "name": "name",
      "outputs": [
        {
          "internalType": "string",
          "name": "",
          "type": "string"
        }
      ],
      "stateMutability": "view",
      "type": "function"
    },
    {
      "inputs": [],
      "name": "owner",
      "outputs": [
        {
          "internalType": "address",
          "name": "",
          "type": "address"
        }
      ],
      "stateMutability": "view",
      "type": "function"
    },
    {
      "inputs": [
        {
          "internalType": "uint256",
          "name": "tokenId",
          "type": "uint256"
        }
      ],
      "name": "ownerOf",
      "outputs": [
        {
          "internalType": "address",
          "name": "",
          "type": "address"
        }
      ],
      "stateMutability": "view",
      "type": "function"
    },
    {
      "inputs": [
        {
          "internalType": "address",
          "name": "wallet",
          "type": "address"
        }
      ],
      "name": "removeFromWhitelist",
      "outputs": [],
      "stateMutability": "nonpayable",
      "type": "function"
    },
    {
      "inputs": [],
      "name": "renounceOwnership",
      "outputs": [],
      "stateMutability": "nonpayable",
      "type": "function"
    },
    {
      "inputs": [
        {
          "internalType": "address",
          "name": "wallet",
          "type": "address"
        }
      ],
      "name": "resetWalletMintCount",
      "outputs": [],
      "stateMutability": "nonpayable",
      "type": "function"
    },
    {
      "inputs": [],
      "name": "royaltyFeeNumerator",
      "outputs": [
        {
          "internalType": "uint96",
          "name": "",
          "type": "uint96"
        }
      ],
      "stateMutability": "view",
      "type": "function"
    },
    {
      "inputs": [
        {
          "internalType": "uint256",
          "name": "tokenId",
          "type": "uint256"
        },
        {
          "internalType": "uint256",
          "name": "salePrice",
          "type": "uint256"
        }
      ],
      "name": "royaltyInfo",
      "outputs": [
        {
          "internalType": "address",
          "name": "receiver",
          "type": "address"
        },
        {
          "internalType": "uint256",
          "name": "royaltyAmount",
          "type": "uint256"
        }
      ],
      "stateMutability": "view",
      "type": "function"
    },
    {
      "inputs": [],
      "name": "royaltyReceiver",
      "outputs": [
        {
          "internalType": "address",
          "name": "",
          "type": "address"
        }
      ],
      "stateMutability": "view",
      "type": "function"
    },
    {
      "inputs": [
        {
          "internalType": "address",
          "name": "from",
          "type": "address"
        },
        {
          "internalType": "address",
          "name": "to",
          "type": "address"
        },
        {
          "internalType": "uint256",
          "name": "tokenId",
          "type": "uint256"
        }
      ],
      "name": "safeTransferFrom",
      "outputs": [],
      "stateMutability": "nonpayable",
      "type": "function"
    },
    {
      "inputs": [
        {
          "internalType": "address",
          "name": "from",
          "type": "address"
        },
        {
          "internalType": "address",
          "name": "to",
          "type": "address"
        },
        {
          "internalType": "uint256",
          "name": "tokenId",
          "type": "uint256"
        },
        {
          "internalType": "bytes",
          "name": "data",
          "type": "bytes"
        }
      ],
      "name": "safeTransferFrom",
      "outputs": [],
      "stateMutability": "nonpayable",
      "type": "function"
    },
    {
      "inputs": [
        {
          "internalType": "address",
          "name": "operator",
          "type": "address"
        },
        {
          "internalType": "bool",
          "name": "approved",
          "type": "bool"
        }
      ],
      "name": "setApprovalForAll",
      "outputs": [],
      "stateMutability": "nonpayable",
      "type": "function"
    },
    {
      "inputs": [
        {
          "internalType": "string",
          "name": "uri",
          "type": "string"
        }
      ],
      "name": "setBaseURI",
      "outputs": [],
      "stateMutability": "nonpayable",
      "type": "function"
    },
    {
      "inputs": [
        {
          "internalType": "uint256",
          "name": "newLimit",
          "type": "uint256"
        }
      ],
      "name": "setMaxMintPerWallet",
      "outputs": [],
      "stateMutability": "nonpayable",
      "type": "function"
    },
    {
      "inputs": [
        {
          "internalType": "bytes32",
          "name": "root",
          "type": "bytes32"
        }
      ],
      "name": "setMerkleRoot",
      "outputs": [],
      "stateMutability": "nonpayable",
      "type": "function"
    },
    {
      "inputs": [
        {
          "internalType": "address",
          "name": "receiver",
          "type": "address"
        },
        {
          "internalType": "uint96",
          "name": "feeNumerator",
          "type": "uint96"
        }
      ],
      "name": "setRoyaltyInfo",
      "outputs": [],
      "stateMutability": "nonpayable",
      "type": "function"
    },
    {
      "inputs": [
        {
          "internalType": "bool",
          "name": "enabled",
          "type": "bool"
        }
      ],
      "name": "setWhitelistEnabled",
      "outputs": [],
      "stateMutability": "nonpayable",
      "type": "function"
    },
    {
      "inputs": [
        {
          "internalType": "bytes4",
          "name": "interfaceId",
          "type": "bytes4"
        }
      ],
      "name": "supportsInterface",
      "outputs": [
        {
          "internalType": "bool",
          "name": "",
          "type": "bool"
        }
      ],
      "stateMutability": "view",
      "type": "function"
    },
    {
      "inputs": [],
      "name": "symbol",
      "outputs": [
        {
          "internalType": "string",
          "name": "",
          "type": "string"
        }
      ],
      "stateMutability": "view",
      "type": "function"
    },
    {
      "inputs": [
        {
          "internalType": "uint256",
          "name": "index",
          "type": "uint256"
        }
      ],
      "name": "tokenByIndex",
      "outputs": [
        {
          "internalType": "uint256",
          "name": "",
          "type": "uint256"
        }
      ],
      "stateMutability": "view",
      "type": "function"
    },
    {
      "inputs": [
        {
          "internalType": "address",
          "name": "owner",
          "type": "address"
        },
        {
          "internalType": "uint256",
          "name": "index",
          "type": "uint256"
        }
      ],
      "name": "tokenOfOwnerByIndex",
      "outputs": [
        {
          "internalType": "uint256",
          "name": "",
          "type": "uint256"
        }
      ],
      "stateMutability": "view",
      "type": "function"
    },
    {
      "inputs": [
        {
          "internalType": "uint256",
          "name": "tokenId",
          "type": "uint256"
        }
      ],
      "name": "tokenURI",
      "outputs": [
        {
          "internalType": "string",
          "name": "",
          "type": "string"
        }
      ],
      "stateMutability": "view",
      "type": "function"
    },
    {
      "inputs": [],
      "name": "totalSupply",
      "outputs": [
        {
          "internalType": "uint256",
          "name": "",
          "type": "uint256"
        }
      ],
      "stateMutability": "view",
      "type": "function"
    },
    {
      "inputs": [
        {
          "internalType": "address",
          "name": "from",
          "type": "address"
        },
        {
          "internalType": "address",
          "name": "to",
          "type": "address"
        },
        {
          "internalType": "uint256",
          "name": "tokenId",
          "type": "uint256"
        }
      ],
      "name": "transferFrom",
      "outputs": [],
      "stateMutability": "nonpayable",
      "type": "function"
    },
    {
      "inputs": [
        {
          "internalType": "address",
          "name": "newOwner",
          "type": "address"
        }
      ],
      "name": "transferOwnership",
      "outputs": [],
      "stateMutability": "nonpayable",
      "type": "function"
    },
    {
      "inputs": [
        {
          "internalType": "address",
          "name": "",
          "type": "address"
        }
      ],
      "name": "walletMintCount",
      "outputs": [
        {
          "internalType": "uint256",
          "name": "",
          "type": "uint256"
        }
      ],
      "stateMutability": "view",
      "type": "function"
    },
    {
      "inputs": [
        {
          "internalType": "address",
          "name": "",
          "type": "address"
        }
      ],
      "name": "whitelist",
      "outputs": [
        {
          "internalType": "bool",
          "name": "",
          "type": "bool"
        }
      ],
      "stateMutability": "view",
      "type": "function"
    },
    {
      "inputs": [],
      "name": "whitelistEnabled",
      "outputs": [
        {
          "internalType": "bool",
          "name": "",
          "type": "bool"
        }
      ],
      "stateMutability": "view",
      "type": "function"
    }
  ],
  "bytecode": "0x60806040526005600d55600f805460ff191690553480156200002057600080fd5b5060405162002bda38038062002bda8339810160408190526200004391620001d1565b8484600062000053838262000336565b50600162000062828262000336565b5050506200007f62000079620000b660201b60201c565b620000ba565b600c6200008d848262000336565b506001600160601b0316600160a01b026001600160a01b03909116176013555062000402915050565b3390565b600a80546001600160a01b038381166001600160a01b0319831681179093556040519116919082907f8be0079c531659141344cd1fd0a4f28419497f9722a3daafe3b4186f6b6457e090600090a35050565b634e487b7160e01b600052604160045260246000fd5b600082601f8301126200013457600080fd5b81516001600160401b03808211156200015157620001516200010c565b604051601f8301601f19908116603f011681019082821181831017156200017c576200017c6200010c565b816040528381526020925086838588010111156200019957600080fd5b600091505b83821015620001bd57858201830151818301840152908201906200019e565b600093810190920192909252949350505050565b600080600080600060a08688031215620001ea57600080fd5b85516001600160401b03808211156200020257600080fd5b6200021089838a0162000122565b965060208801519150808211156200022757600080fd5b6200023589838a0162000122565b955060408801519150808211156200024c57600080fd5b506200025b8882890162000122565b606088015190945090506001600160a01b03811681146200027b57600080fd5b60808701519092506001600160601b03811681146200029957600080fd5b809150509295509295909350565b600181811c90821680620002bc57607f821691505b602082108103620002dd57634e487b7160e01b600052602260045260246000fd5b50919050565b601f8211156200033157600081815260208120601f850160051c810160208610156200030c5750805b601f850160051c820191505b818110156200032d5782815560010162000318565b5050505b505050565b81516001600160401b038111156200035257620003526200010c565b6200036a81620003638454620002a7565b84620002e3565b602080601f831160018114620003a25760008415620003895750858301515b600019600386901b1c1916600185901b1785556200032d565b600085815260208120601f198616915b82811015620003d357888601518255948401946001909101908401620003b2565b5085821015620003f25787850151600019600388901b60f8161c191681555b5050505050600190811b01905550565b6127c880620004126000396000f3fe608060405234801561001057600080fd5b50600436106102695760003560e01c806370a0823111610151578063a6177139116100c3578063c87b56dd11610087578063c87b56dd146105b5578063e43252d7146105c8578063e81ed044146105db578063e985e9c5146105fb578063eedf1ff714610637578063f2fde38b1461064a57600080fd5b8063a617713914610560578063afdf613414610573578063b228d92514610586578063b88d4fde1461058f578063c2ba4744146105a257600080fd5b80638da5cb5b116101155780638da5cb5b146104de57806393ecb0c6146104ef57806395d89b411461050f5780639b19251a146105175780639fbc87131461053a578063a22cb4651461054d57600080fd5b806370a082311461046b578063715018a61461047e5780637cb647591461048657806381ddcc1f146104995780638ab1d681146104cb57600080fd5b80632a55205a116101ea578063449a52f8116101ae578063449a52f8146103ff5780634f6ccce71461041257806351fb012d14610425578063537924ef1461043257806355f804b3146104455780636352211e1461045857600080fd5b80632a55205a146103725780632eb4a7ab146103a45780632f745c59146103ad5780633af32abf146103c057806342842e0e146103ec57600080fd5b8063095ea7b311610231578063095ea7b3146102fe578063110f28d8146103115780631249c58b1461034157806318160ddd1461035757806323b872dd1461035f57600080fd5b806301ffc9a71461026e57806302fa7c4714610296578063052d9e7e146102ab57806306fdde03146102be578063081812fc146102d3575b600080fd5b61028161027c366004612042565b61065d565b60405190151581526020015b60405180910390f35b6102a96102a4366004612076565b610688565b005b6102a96102b93660046120c9565b610746565b6102c6610796565b60405161028d9190612134565b6102e66102e1366004612147565b610828565b6040516001600160a01b03909116815260200161028d565b6102a961030c366004612160565b61084f565b61032461031f36600461218a565b610964565b60408051938452602084019290925215159082015260600161028d565b6103496109c7565b60405190815260200161028d565b610349610ad1565b6102a961036d3660046121a5565b610ae1565b6103856103803660046121e1565b610b12565b604080516001600160a01b03909316835260208301919091520161028d565b61034960115481565b6103496103bb366004612160565b610b54565b6102816103ce36600461218a565b6001600160a01b031660009081526010602052604090205460ff1690565b6102a96103fa3660046121a5565b610bea565b6102a961040d366004612160565b610c05565b610349610420366004612147565b610c50565b600f546102819060ff1681565b61034961044036600461224f565b610ce3565b6102a961045336600461231d565b610eae565b6102e6610466366004612147565b610ec6565b61034961047936600461218a565b610f26565b6102a9610fac565b6102a9610494366004612147565b610fc0565b6013546104b390600160a01b90046001600160601b031681565b6040516001600160601b03909116815260200161028d565b6102a96104d936600461218a565b610ffd565b600a546001600160a01b03166102e6565b6103496104fd36600461218a565b600e6020526000908152604090205481565b6102c661105b565b61028161052536600461218a565b60106020526000908152604090205460ff1681565b6013546102e6906001600160a01b031681565b6102a961055b366004612366565b61106a565b6102a961056e36600461224f565b611075565b6102a9610581366004612147565b61115b565b610349600d5481565b6102a961059d366004612390565b611198565b6102816105b036600461218a565b6111d0565b6102c66105c3366004612147565b61122d565b6102a96105d636600461218a565b611294565b6103496105e936600461218a565b60126020526000908152604090205481565b61028161060936600461240c565b6001600160a01b03918216600090815260056020908152604080832093909416825291909152205460ff1690565b6102a961064536600461218a565b6112f3565b6102a961065836600461218a565b611315565b60006001600160e01b0319821663152a902d60e11b148061068257506106828261138e565b92915050565b6106906113b3565b6103e8816001600160601b031611156106e75760405162461bcd60e51b81526020600482015260146024820152730a4def2c2d8e8f240cccaca40e8dede40d0d2ced60631b60448201526064015b60405180910390fd5b6001600160a01b038216600160a01b6001600160601b03831690810282176013556040805192835260208301919091527f8039bd6e4e7dba001c8840eb2e118d9d131246faa7d0d04335f7305127ec0b10910160405180910390a15050565b61074e6113b3565b600f805460ff19168215159081179091556040519081527f9bea0dd3cae4438dc4c54c3110002aedc380f4075b6edae73ae0536105a2008a906020015b60405180910390a150565b6060600080546107a590612436565b80601f01602080910402602001604051908101604052809291908181526020018280546107d190612436565b801561081e5780601f106107f35761010080835404028352916020019161081e565b820191906000526020600020905b81548152906001019060200180831161080157829003601f168201915b5050505050905090565b60006108338261140d565b506000908152600460205260409020546001600160a01b031690565b600061085a82610ec6565b9050806001600160a01b0316836001600160a01b0316036108c75760405162461bcd60e51b815260206004820152602160248201527f4552433732313a20617070726f76616c20746f2063757272656e74206f776e656044820152603960f91b60648201526084016106de565b336001600160a01b03821614806108e357506108e38133610609565b6109555760405162461bcd60e51b815260206004820152603d60248201527f4552433732313a20617070726f76652063616c6c6572206973206e6f7420746f60448201527f6b656e206f776e6572206f7220617070726f76656420666f7220616c6c00000060648201526084016106de565b61095f838361146c565b505050565b6001600160a01b0381166000908152600e6020526040812054600d54909190819083106109925760006109a0565b82600d546109a09190612486565b6001600160a01b03909416600090815260106020526040902054929460ff90931692915050565b600f5460009060ff1615610a27573360009081526010602052604090205460ff16610a275760405162461bcd60e51b815260206004820152601060248201526f139bdd081a5b881dda1a5d195b1a5cdd60821b60448201526064016106de565b600d54336000908152600e602052604090205410610a875760405162461bcd60e51b815260206004820152601c60248201527f4578636565646564206d6178206d696e74207065722077616c6c65740000000060448201526064016106de565b6000610a92600b5490565b9050610aa2600b80546001019055565b336000908152600e60205260408120805491610abd83612499565b9190505550610acc33826114da565b919050565b6000610adc600b5490565b905090565b610aeb33826114f4565b610b075760405162461bcd60e51b81526004016106de906124b2565b61095f838383611572565b6013546001600160a01b0381169060009061271090610b4190600160a01b90046001600160601b0316856124ff565b610b4b9190612516565b90509250929050565b6000610b5f83610f26565b8210610bc15760405162461bcd60e51b815260206004820152602b60248201527f455243373231456e756d657261626c653a206f776e657220696e646578206f7560448201526a74206f6620626f756e647360a81b60648201526084016106de565b506001600160a01b03919091166000908152600660209081526040808320938352929052205490565b61095f83838360405180602001604052806000815250611198565b610c0d6113b3565b60005b8181101561095f576000610c23600b5490565b9050610c33600b80546001019055565b610c3d84826114da565b5080610c4881612499565b915050610c10565b6000610c5b60085490565b8210610cbe5760405162461bcd60e51b815260206004820152602c60248201527f455243373231456e756d657261626c653a20676c6f62616c20696e646578206f60448201526b7574206f6620626f756e647360a01b60648201526084016106de565b60088281548110610cd157610cd1612538565b90600052602060002001549050919050565b601154600090610d2b5760405162461bcd60e51b815260206004820152601360248201527213595c9adb19481c9bdbdd081b9bdd081cd95d606a1b60448201526064016106de565b6040516bffffffffffffffffffffffff193360601b166020820152600090603401604051602081830303815290604052805190602001209050610da58484808060200260200160405190810160405280939291908181526020018383602002808284376000920191909152505060115491508490506116e3565b610de15760405162461bcd60e51b815260206004820152600d60248201526c24b73b30b634b210383937b7b360991b60448201526064016106de565b600d54336000908152600e602052604090205410610e415760405162461bcd60e51b815260206004820152601c60248201527f4578636565646564206d6178206d696e74207065722077616c6c65740000000060448201526064016106de565b6000610e4c600b5490565b9050610e5c600b80546001019055565b336000908152600e60205260408120805491610e7783612499565b9091555050336000908152601260205260408120805491610e9783612499565b9190505550610ea633826114da565b949350505050565b610eb66113b3565b600c610ec2828261259c565b5050565b6000818152600260205260408120546001600160a01b0316806106825760405162461bcd60e51b8152602060048201526018602482015277115490cdcc8c4e881a5b9d985b1a59081d1bdad95b88125160421b60448201526064016106de565b60006001600160a01b038216610f905760405162461bcd60e51b815260206004820152602960248201527f4552433732313a2061646472657373207a65726f206973206e6f7420612076616044820152683634b21037bbb732b960b91b60648201526084016106de565b506001600160a01b031660009081526003602052604090205490565b610fb46113b3565b610fbe60006116f9565b565b610fc86113b3565b60118190556040518181527f90004c04698bc3322499a575ed3752dd4abf33e0a7294c06a787a0fe01bea9419060200161078b565b6110056113b3565b6001600160a01b0381166000818152601060209081526040808320805460ff19169055519182527ff93f9a76c1bf3444d22400a00cb9fe990e6abe9dbb333fda48859cfee864543d91015b60405180910390a250565b6060600180546107a590612436565b610ec233838361174b565b61107d6113b3565b60005b8181101561095f576001601060008585858181106110a0576110a0612538565b90506020020160208101906110b5919061218a565b6001600160a01b031681526020810191909152604001600020805460ff19169115159190911790558282828181106110ef576110ef612538565b9050602002016020810190611104919061218a565b6001600160a01b03167ff93f9a76c1bf3444d22400a00cb9fe990e6abe9dbb333fda48859cfee864543d6001604051611141911515815260200190565b60405180910390a28061115381612499565b915050611080565b6111636113b3565b600d8190556040518181527fa70551d77839af8d46672cc5a1e4fc3a1b08e9e3cc87239c10d705a80baf938c9060200161078b565b6111a233836114f4565b6111be5760405162461bcd60e51b81526004016106de906124b2565b6111ca84848484611819565b50505050565b600f5460009060ff1680156111fe57506001600160a01b03821660009081526010602052604090205460ff16155b1561120b57506000919050565b50600d546001600160a01b039091166000908152600e60205260409020541090565b60606112388261140d565b600061124261184c565b90506000815111611262576040518060200160405280600081525061128d565b8061126c8461185b565b60405160200161127d92919061265c565b6040516020818303038152906040525b9392505050565b61129c6113b3565b6001600160a01b038116600081815260106020908152604091829020805460ff1916600190811790915591519182527ff93f9a76c1bf3444d22400a00cb9fe990e6abe9dbb333fda48859cfee864543d9101611050565b6112fb6113b3565b6001600160a01b03166000908152600e6020526040812055565b61131d6113b3565b6001600160a01b0381166113825760405162461bcd60e51b815260206004820152602660248201527f4f776e61626c653a206e6577206f776e657220697320746865207a65726f206160448201526564647265737360d01b60648201526084016106de565b61138b816116f9565b50565b60006001600160e01b0319821663780e9d6360e01b14806106825750610682826118ee565b600a546001600160a01b03163314610fbe5760405162461bcd60e51b815260206004820181905260248201527f4f776e61626c653a2063616c6c6572206973206e6f7420746865206f776e657260448201526064016106de565b6000818152600260205260409020546001600160a01b031661138b5760405162461bcd60e51b8152602060048201526018602482015277115490cdcc8c4e881a5b9d985b1a59081d1bdad95b88125160421b60448201526064016106de565b600081815260046020526040902080546001600160a01b0319166001600160a01b03841690811790915581906114a182610ec6565b6001600160a01b03167f8c5be1e5ebec7d5bd14f71427d1e84f3dd0314c0f7b2291e5b200ac8c7c3b92560405160405180910390a45050565b610ec282826040518060200160405280600081525061193e565b60008061150083610ec6565b9050806001600160a01b0316846001600160a01b0316148061154757506001600160a01b0380821660009081526005602090815260408083209388168352929052205460ff165b80610ea65750836001600160a01b031661156084610828565b6001600160a01b031614949350505050565b826001600160a01b031661158582610ec6565b6001600160a01b0316146115ab5760405162461bcd60e51b81526004016106de9061268b565b6001600160a01b03821661160d5760405162461bcd60e51b8152602060048201526024808201527f4552433732313a207472616e7366657220746f20746865207a65726f206164646044820152637265737360e01b60648201526084016106de565b61161a8383836001611971565b826001600160a01b031661162d82610ec6565b6001600160a01b0316146116535760405162461bcd60e51b81526004016106de9061268b565b600081815260046020908152604080832080546001600160a01b03199081169091556001600160a01b0387811680865260038552838620805460001901905590871680865283862080546001019055868652600290945282852080549092168417909155905184937fddf252ad1be2c89b69c2b068fc378daa952ba7f163c4a11628f55a4df523b3ef91a4505050565b6000826116f0858461197d565b14949350505050565b600a80546001600160a01b038381166001600160a01b0319831681179093556040519116919082907f8be0079c531659141344cd1fd0a4f28419497f9722a3daafe3b4186f6b6457e090600090a35050565b816001600160a01b0316836001600160a01b0316036117ac5760405162461bcd60e51b815260206004820152601960248201527f4552433732313a20617070726f766520746f2063616c6c65720000000000000060448201526064016106de565b6001600160a01b03838116600081815260056020908152604080832094871680845294825291829020805460ff191686151590811790915591519182527f17307eab39ab6107e8899845ad3d59bd9653f200f220920489ca2b5937696c31910160405180910390a3505050565b611824848484611572565b611830848484846119ca565b6111ca5760405162461bcd60e51b81526004016106de906126d0565b6060600c80546107a590612436565b6060600061186883611acb565b600101905060008167ffffffffffffffff81111561188857611888612291565b6040519080825280601f01601f1916602001820160405280156118b2576020820181803683370190505b5090508181016020015b600019016f181899199a1a9b1b9c1cb0b131b232b360811b600a86061a8153600a85049450846118bc57509392505050565b60006001600160e01b031982166380ac58cd60e01b148061191f57506001600160e01b03198216635b5e139f60e01b145b8061068257506301ffc9a760e01b6001600160e01b0319831614610682565b6119488383611ba3565b61195560008484846119ca565b61095f5760405162461bcd60e51b81526004016106de906126d0565b6111ca84848484611d3c565b600081815b84518110156119c2576119ae828683815181106119a1576119a1612538565b6020026020010151611e70565b9150806119ba81612499565b915050611982565b509392505050565b60006001600160a01b0384163b15611ac057604051630a85bd0160e11b81526001600160a01b0385169063150b7a0290611a0e903390899088908890600401612722565b6020604051808303816000875af1925050508015611a49575060408051601f3d908101601f19168201909252611a469181019061275f565b60015b611aa6573d808015611a77576040519150601f19603f3d011682016040523d82523d6000602084013e611a7c565b606091505b508051600003611a9e5760405162461bcd60e51b81526004016106de906126d0565b805181602001fd5b6001600160e01b031916630a85bd0160e11b149050610ea6565b506001949350505050565b60008072184f03e93ff9f4daa797ed6e38ed64bf6a1f0160401b8310611b0a5772184f03e93ff9f4daa797ed6e38ed64bf6a1f0160401b830492506040015b6d04ee2d6d415b85acef81000000008310611b36576d04ee2d6d415b85acef8100000000830492506020015b662386f26fc100008310611b5457662386f26fc10000830492506010015b6305f5e1008310611b6c576305f5e100830492506008015b6127108310611b8057612710830492506004015b60648310611b92576064830492506002015b600a83106106825760010192915050565b6001600160a01b038216611bf95760405162461bcd60e51b815260206004820181905260248201527f4552433732313a206d696e7420746f20746865207a65726f206164647265737360448201526064016106de565b6000818152600260205260409020546001600160a01b031615611c5e5760405162461bcd60e51b815260206004820152601c60248201527f4552433732313a20746f6b656e20616c7265616479206d696e7465640000000060448201526064016106de565b611c6c600083836001611971565b6000818152600260205260409020546001600160a01b031615611cd15760405162461bcd60e51b815260206004820152601c60248201527f4552433732313a20746f6b656e20616c7265616479206d696e7465640000000060448201526064016106de565b6001600160a01b038216600081815260036020908152604080832080546001019055848352600290915280822080546001600160a01b0319168417905551839291907fddf252ad1be2c89b69c2b068fc378daa952ba7f163c4a11628f55a4df523b3ef908290a45050565b6001811115611dab5760405162461bcd60e51b815260206004820152603560248201527f455243373231456e756d657261626c653a20636f6e7365637574697665207472604482015274185b9cd9995c9cc81b9bdd081cdd5c1c1bdc9d1959605a1b60648201526084016106de565b816001600160a01b038516611e0757611e0281600880546000838152600960205260408120829055600182018355919091527ff3f7a9fe364faab93b216da50a3214154f22a0a2b415b23a84c8169e8b636ee30155565b611e2a565b836001600160a01b0316856001600160a01b031614611e2a57611e2a8582611e9c565b6001600160a01b038416611e4657611e4181611f39565b611e69565b846001600160a01b0316846001600160a01b031614611e6957611e698482611fe8565b5050505050565b6000818310611e8c57600082815260208490526040902061128d565b5060009182526020526040902090565b60006001611ea984610f26565b611eb39190612486565b600083815260076020526040902054909150808214611f06576001600160a01b03841660009081526006602090815260408083208584528252808320548484528184208190558352600790915290208190555b5060009182526007602090815260408084208490556001600160a01b039094168352600681528383209183525290812055565b600854600090611f4b90600190612486565b60008381526009602052604081205460088054939450909284908110611f7357611f73612538565b906000526020600020015490508060088381548110611f9457611f94612538565b6000918252602080832090910192909255828152600990915260408082208490558582528120556008805480611fcc57611fcc61277c565b6001900381819060005260206000200160009055905550505050565b6000611ff383610f26565b6001600160a01b039093166000908152600660209081526040808320868452825280832085905593825260079052919091209190915550565b6001600160e01b03198116811461138b57600080fd5b60006020828403121561205457600080fd5b813561128d8161202c565b80356001600160a01b0381168114610acc57600080fd5b6000806040838503121561208957600080fd5b6120928361205f565b915060208301356001600160601b03811681146120ae57600080fd5b809150509250929050565b80358015158114610acc57600080fd5b6000602082840312156120db57600080fd5b61128d826120b9565b60005b838110156120ff5781810151838201526020016120e7565b50506000910152565b600081518084526121208160208601602086016120e4565b601f01601f19169290920160200192915050565b60208152600061128d6020830184612108565b60006020828403121561215957600080fd5b5035919050565b6000806040838503121561217357600080fd5b61217c8361205f565b946020939093013593505050565b60006020828403121561219c57600080fd5b61128d8261205f565b6000806000606084860312156121ba57600080fd5b6121c38461205f565b92506121d16020850161205f565b9150604084013590509250925092565b600080604083850312156121f457600080fd5b50508035926020909101359150565b60008083601f84011261221557600080fd5b50813567ffffffffffffffff81111561222d57600080fd5b6020830191508360208260051b850101111561224857600080fd5b9250929050565b6000806020838503121561226257600080fd5b823567ffffffffffffffff81111561227957600080fd5b61228585828601612203565b90969095509350505050565b634e487b7160e01b600052604160045260246000fd5b600067ffffffffffffffff808411156122c2576122c2612291565b604051601f8501601f19908116603f011681019082821181831017156122ea576122ea612291565b8160405280935085815286868601111561230357600080fd5b858560208301376000602087830101525050509392505050565b60006020828403121561232f57600080fd5b813567ffffffffffffffff81111561234657600080fd5b8201601f8101841361235757600080fd5b610ea6848235602084016122a7565b6000806040838503121561237957600080fd5b6123828361205f565b9150610b4b602084016120b9565b600080600080608085870312156123a657600080fd5b6123af8561205f565b93506123bd6020860161205f565b925060408501359150606085013567ffffffffffffffff8111156123e057600080fd5b8501601f810187136123f157600080fd5b612400878235602084016122a7565b91505092959194509250565b6000806040838503121561241f57600080fd5b6124288361205f565b9150610b4b6020840161205f565b600181811c9082168061244a57607f821691505b60208210810361246a57634e487b7160e01b600052602260045260246000fd5b50919050565b634e487b7160e01b600052601160045260246000fd5b8181038181111561068257610682612470565b6000600182016124ab576124ab612470565b5060010190565b6020808252602d908201527f4552433732313a2063616c6c6572206973206e6f7420746f6b656e206f776e6560408201526c1c881bdc88185c1c1c9bdd9959609a1b606082015260800190565b808202811582820484141761068257610682612470565b60008261253357634e487b7160e01b600052601260045260246000fd5b500490565b634e487b7160e01b600052603260045260246000fd5b601f82111561095f57600081815260208120601f850160051c810160208610156125755750805b601f850160051c820191505b8181101561259457828155600101612581565b505050505050565b815167ffffffffffffffff8111156125b6576125b6612291565b6125ca816125c48454612436565b8461254e565b602080601f8311600181146125ff57600084156125e75750858301515b600019600386901b1c1916600185901b178555612594565b600085815260208120601f198616915b8281101561262e5788860151825594840194600190910190840161260f565b508582101561264c5787850151600019600388901b60f8161c191681555b5050505050600190811b01905550565b6000835161266e8184602088016120e4565b8351908301906126828183602088016120e4565b01949350505050565b60208082526025908201527f4552433732313a207472616e736665722066726f6d20696e636f72726563742060408201526437bbb732b960d91b606082015260800190565b60208082526032908201527f4552433732313a207472616e7366657220746f206e6f6e20455243373231526560408201527131b2b4bb32b91034b6b83632b6b2b73a32b960711b606082015260800190565b6001600160a01b038581168252841660208201526040810183905260806060820181905260009061275590830184612108565b9695505050505050565b60006020828403121561277157600080fd5b815161128d8161202c565b634e487b7160e01b600052603160045260246000fdfea264697066735822122051e85ddfc8878178d829e3d88f9454d458c0ba34e050cc2cb7f51378adff079164736f6c63430008130033",
  "linkReferences": {},
  "deployedLinkReferences": {}
}