{
  "_format": "hh-sol-artifact-1",
  "contractName": "MyNFT",
  "sourceName": "contracts/MyNFT.sol",
  "abi": [
    {
      "inputs": [
        {
          "internalType": "string",
          "name": "name_",
          "type": "string"
        },
        {
          "internalType": "string",
          "name": "symbol_",
          "type": "string"
        },
        {
          "internalType": "string",
          "name": "baseURI_",
          "type": "string"
        },
        {
          "internalType": "address",
          "name": "royaltyReceiver_",
          "type": "address"
        },
        {
          "internalType": "uint96",
          "name": "royaltyFeeNumerator_",
          "type": "uint96"
        }
      ],
      "stateMutability": "nonpayable",
      "type": "constructor"
    },
    {
      "anonymous": false,
      "inputs": [
        {
          "indexed": true,
          "internalType": "address",
          "name": "owner",
          "type": "address"
        },
        {
          "indexed": true,
          "internalType": "address",
          "name": "approved",
          "type": "address"
        },
        {
          "indexed": true,
          "internalType": "uint256",
          "name": "tokenId",
          "type": "uint256"
        }
      ],
      "name": "Approval",
      "type": "event"
    },
    {
      "anonymous": false,
      "inputs": [
        {
          "indexed": true,
          "internalType": "address",
          "name": "owner",
          "type": "address"
        },
        {
          "indexed": true,
          "internalType": "address",
          "name": "operator",
          "type": "address"
        },
        {
          "indexed": false,
          "internalType": "bool",
          "name": "approved",
          "type": "bool"
        }
      ],
      "name": "ApprovalForAll",
      "type": "event"
    },
    {
      "anonymous": false,
      "inputs": [
        {
          "indexed": false,
          "internalType": "uint256",
          "name": "newLimit",
          "type": "uint256"
        }
      ],
      "name": "MaxMintPerWalletUpdated",
      "type": "event"
    },
    {
      "anonymous": false,
      "inputs": [
        {
          "indexed": true,
          "internalType": "address",
          "name": "previousOwner",
          "type": "address"
        },
        {
          "indexed": true,
          "internalType": "address",
          "name": "newOwner",
          "type": "address"
        }
      ],
      "name": "OwnershipTransferred",
      "type": "event"
    },
    {
      "anonymous": false,
      "inputs": [
        {
          "indexed": false,
          "internalType": "address",
          "name": "receiver",
          "type": "address"
        },
        {
          "indexed": false,
          "internalType": "uint96",
          "name": "feeNumerator",
          "type": "uint96"
        }
      ],
      "name": "RoyaltyUpdated",
      "type": "event"
    },
    {
      "anonymous": false,
      "inputs": [
        {
          "indexed": true,
          "internalType": "address",
          "name": "from",
          "type": "address"
        },
        {
          "indexed": true,
          "internalType": "address",
          "name": "to",
          "type": "address"
        },
        {
          "indexed": true,
          "internalType": "uint256",
          "name": "tokenId",
          "type": "uint256"
        }
      ],
      "name": "Transfer",
      "type": "event"
    },
    {
      "anonymous": false,
      "inputs": [
        {
          "indexed": false,
          "internalType": "bool",
          "name": "enabled",
          "type": "bool"
        }
      ],
      "name": "WhitelistEnabled",
      "type": "event"
    },
    {
      "anonymous": false,
      "inputs": [
        {
          "indexed": true,
          "internalType": "address",
          "name": "wallet",
          "type": "address"
        },
        {
          "indexed": false,
          "internalType": "bool",
          "name": "status",
          "type": "bool"
        }
      ],
      "name": "WhitelistUpdated",
      "type": "event"
    },
    {
      "inputs": [
        {
          "internalType": "address",
          "name": "wallet",
          "type": "address"
        }
      ],
      "name": "addToWhitelist",
      "outputs": [],
      "stateMutability": "nonpayable",
      "type": "function"
    },
    {
      "inputs": [
        {
          "internalType": "address[]",
          "name": "wallets",
          "type": "address[]"
        }
      ],
      "name": "addToWhitelistBatch",
      "outputs": [],
      "stateMutability": "nonpayable",
      "type": "function"
    },
    {
      "inputs": [
        {
          "internalType": "address",
          "name": "to",
          "type": "address"
        },
        {
          "internalType": "uint256",
          "name": "tokenId",
          "type": "uint256"
        }
      ],
      "name": "approve",
      "outputs": [],
      "stateMutability": "nonpayable",
      "type": "function"
    },
    {
      "inputs": [
        {
          "internalType": "address",
          "name": "owner",
          "type": "address"
        }
      ],
      "name": "balanceOf",
      "outputs": [
        {
          "internalType": "uint256",
          "name": "",
          "type": "uint256"
        }
      ],
      "stateMutability": "view",
      "type": "function"
    },
    {
      "inputs": [
        {
          "internalType": "address",
          "name": "wallet",
          "type": "address"
        }
      ],
      "name": "canMint",
      "outputs": [
        {
          "internalType": "bool",
          "name": "",
          "type": "bool"
        }
      ],
      "stateMutability": "view",
      "type": "function"
    },
    {
      "inputs": [
        {
          "internalType": "uint256",
          "name": "tokenId",
          "type": "uint256"
        }
      ],
      "name": "getApproved",
      "outputs": [
        {
          "internalType": "address",
          "name": "",
          "type": "address"
        }
      ],
      "stateMutability": "view",
      "type": "function"
    },
    {
      "inputs": [
        {
          "internalType": "address",
          "name": "wallet",
          "type": "address"
        }
      ],
      "name": "getWalletMintInfo",
      "outputs": [
        {
          "internalType": "uint256",
          "name": "mintedCount",
          "type": "uint256"
        },
        {
          "internalType": "uint256",
          "name": "remainingMints",
          "type": "uint256"
        },
        {
          "internalType": "bool",
          "name": "isWhitelistedWallet",
          "type": "bool"
        }
      ],
      "stateMutability": "view",
      "type": "function"
    },
    {
      "inputs": [
        {
          "internalType": "address",
          "name": "owner",
          "type": "address"
        },
        {
          "internalType": "address",
          "name": "operator",
          "type": "address"
        }
      ],
      "name": "isApprovedForAll",
      "outputs": [
        {
          "internalType": "bool",
          "name": "",
          "type": "bool"
        }
      ],
      "stateMutability": "view",
      "type": "function"
    },
    {
      "inputs": [
        {
          "internalType": "address",
          "name": "wallet",
          "type": "address"
        }
      ],
      "name": "isWhitelisted",
      "outputs": [
        {
          "internalType": "bool",
          "name": "",
          "type": "bool"
        }
      ],
      "stateMutability": "view",
      "type": "function"
    },
    {
      "inputs": [],
      "name": "maxMintPerWallet",
      "outputs": [
        {
          "internalType": "uint256",
          "name": "",
          "type": "uint256"
        }
      ],
      "stateMutability": "view",
      "type": "function"
    },
    {
      "inputs": [],
      "name": "mint",
      "outputs": [
        {
          "internalType": "uint256",
          "name": "",
          "type": "uint256"
        }
      ],
      "stateMutability": "nonpayable",
      "type": "function"
    },
    {
      "inputs": [
        {
          "internalType": "address",
          "name": "to",
          "type": "address"
        },
        {
          "internalType": "uint256",
          "name": "quantity",
          "type": "uint256"
        }
      ],
      "name": "mintTo",
      "outputs": [],
      "stateMutability": "nonpayable",
      "type": "function"
    },
    {
      "inputs": [],
      "name": "name",
      "outputs": [
        {
          "internalType": "string",
          "name": "",
          "type": "string"
        }
      ],
      "stateMutability": "view",
      "type": "function"
    },
    {
      "inputs": [],
      "name": "owner",
      "outputs": [
        {
          "internalType": "address",
          "name": "",
          "type": "address"
        }
      ],
      "stateMutability": "view",
      "type": "function"
    },
    {
      "inputs": [
        {
          "internalType": "uint256",
          "name": "tokenId",
          "type": "uint256"
        }
      ],
      "name": "ownerOf",
      "outputs": [
        {
          "internalType": "address",
          "name": "",
          "type": "address"
        }
      ],
      "stateMutability": "view",
      "type": "function"
    },
    {
      "inputs": [
        {
          "internalType": "address",
          "name": "wallet",
          "type": "address"
        }
      ],
      "name": "removeFromWhitelist",
      "outputs": [],
      "stateMutability": "nonpayable",
      "type": "function"
    },
    {
      "inputs": [],
      "name": "renounceOwnership",
      "outputs": [],
      "stateMutability": "nonpayable",
      "type": "function"
    },
    {
      "inputs": [
        {
          "internalType": "address",
          "name": "wallet",
          "type": "address"
        }
      ],
      "name": "resetWalletMintCount",
      "outputs": [],
      "stateMutability": "nonpayable",
      "type": "function"
    },
    {
      "inputs": [],
      "name": "royaltyFeeNumerator",
      "outputs": [
        {
          "internalType": "uint96",
          "name": "",
          "type": "uint96"
        }
      ],
      "stateMutability": "view",
      "type": "function"
    },
    {
      "inputs": [
        {
          "internalType": "uint256",
          "name": "tokenId",
          "type": "uint256"
        },
        {
          "internalType": "uint256",
          "name": "salePrice",
          "type": "uint256"
        }
      ],
      "name": "royaltyInfo",
      "outputs": [
        {
          "internalType": "address",
          "name": "receiver",
          "type": "address"
        },
        {
          "internalType": "uint256",
          "name": "royaltyAmount",
          "type": "uint256"
        }
      ],
      "stateMutability": "view",
      "type": "function"
    },
    {
      "inputs": [],
      "name": "royaltyReceiver",
      "outputs": [
        {
          "internalType": "address",
          "name": "",
          "type": "address"
        }
      ],
      "stateMutability": "view",
      "type": "function"
    },
    {
      "inputs": [
        {
          "internalType": "address",
          "name": "from",
          "type": "address"
        },
        {
          "internalType": "address",
          "name": "to",
          "type": "address"
        },
        {
          "internalType": "uint256",
          "name": "tokenId",
          "type": "uint256"
        }
      ],
      "name": "safeTransferFrom",
      "outputs": [],
      "stateMutability": "nonpayable",
      "type": "function"
    },
    {
      "inputs": [
        {
          "internalType": "address",
          "name": "from",
          "type": "address"
        },
        {
          "internalType": "address",
          "name": "to",
          "type": "address"
        },
        {
          "internalType": "uint256",
          "name": "tokenId",
          "type": "uint256"
        },
        {
          "internalType": "bytes",
          "name": "data",
          "type": "bytes"
        }
      ],
      "name": "safeTransferFrom",
      "outputs": [],
      "stateMutability": "nonpayable",
      "type": "function"
    },
    {
      "inputs": [
        {
          "internalType": "address",
          "name": "operator",
          "type": "address"
        },
        {
          "internalType": "bool",
          "name": "approved",
          "type": "bool"
        }
      ],
      "name": "setApprovalForAll",
      "outputs": [],
      "stateMutability": "nonpayable",
      "type": "function"
    },
    {
      "inputs": [
        {
          "internalType": "string",
          "name": "uri",
          "type": "string"
        }
      ],
      "name": "setBaseURI",
      "outputs": [],
      "stateMutability": "nonpayable",
      "type": "function"
    },
    {
      "inputs": [
        {
          "internalType": "uint256",
          "name": "newLimit",
          "type": "uint256"
        }
      ],
      "name": "setMaxMintPerWallet",
      "outputs": [],
      "stateMutability": "nonpayable",
      "type": "function"
    },
    {
      "inputs": [
        {
          "internalType": "address",
          "name": "receiver",
          "type": "address"
        },
        {
          "internalType": "uint96",
          "name": "feeNumerator",
          "type": "uint96"
        }
      ],
      "name": "setRoyaltyInfo",
      "outputs": [],
      "stateMutability": "nonpayable",
      "type": "function"
    },
    {
      "inputs": [
        {
          "internalType": "bool",
          "name": "enabled",
          "type": "bool"
        }
      ],
      "name": "setWhitelistEnabled",
      "outputs": [],
      "stateMutability": "nonpayable",
      "type": "function"
    },
    {
      "inputs": [
        {
          "internalType": "bytes4",
          "name": "interfaceId",
          "type": "bytes4"
        }
      ],
      "name": "supportsInterface",
      "outputs": [
        {
          "internalType": "bool",
          "name": "",
          "type": "bool"
        }
      ],
      "stateMutability": "view",
      "type": "function"
    },
    {
      "inputs": [],
      "name": "symbol",
      "outputs": [
        {
          "internalType": "string",
          "name": "",
          "type": "string"
        }
      ],
      "stateMutability": "view",
      "type": "function"
    },
    {
      "inputs": [
        {
          "internalType": "uint256",
          "name": "tokenId",
          "type": "uint256"
        }
      ],
      "name": "tokenURI",
      "outputs": [
        {
          "internalType": "string",
          "name": "",
          "type": "string"
        }
      ],
      "stateMutability": "view",
      "type": "function"
    },
    {
      "inputs": [],
      "name": "totalSupply",
      "outputs": [
        {
          "internalType": "uint256",
          "name": "",
          "type": "uint256"
        }
      ],
      "stateMutability": "view",
      "type": "function"
    },
    {
      "inputs": [
        {
          "internalType": "address",
          "name": "from",
          "type": "address"
        },
        {
          "internalType": "address",
          "name": "to",
          "type": "address"
        },
        {
          "internalType": "uint256",
          "name": "tokenId",
          "type": "uint256"
        }
      ],
      "name": "transferFrom",
      "outputs": [],
      "stateMutability": "nonpayable",
      "type": "function"
    },
    {
      "inputs": [
        {
          "internalType": "address",
          "name": "newOwner",
          "type": "address"
        }
      ],
      "name": "transferOwnership",
      "outputs": [],
      "stateMutability": "nonpayable",
      "type": "function"
    },
    {
      "inputs": [
        {
          "internalType": "address",
          "name": "",
          "type": "address"
        }
      ],
      "name": "walletMintCount",
      "outputs": [
        {
          "internalType": "uint256",
          "name": "",
          "type": "uint256"
        }
      ],
      "stateMutability": "view",
      "type": "function"
    },
    {
      "inputs": [
        {
          "internalType": "address",
          "name": "",
          "type": "address"
        }
      ],
      "name": "whitelist",
      "outputs": [
        {
          "internalType": "bool",
          "name": "",
          "type": "bool"
        }
      ],
      "stateMutability": "view",
      "type": "function"
    },
    {
      "inputs": [],
      "name": "whitelistEnabled",
      "outputs": [
        {
          "internalType": "bool",
          "name": "",
          "type": "bool"
        }
      ],
      "stateMutability": "view",
      "type": "function"
    }
  ],
  "bytecode": "0x608060405260056009556000600b60006101000a81548160ff0219169083151502179055503480156200003157600080fd5b50604051620047493803806200474983398181016040528101906200005791906200043d565b848481600090816200006a91906200076d565b5080600190816200007c91906200076d565b5050506200009f620000936200012e60201b60201c565b6200013660201b60201c565b8260089081620000b091906200076d565b5081600d60006101000a81548173ffffffffffffffffffffffffffffffffffffffff021916908373ffffffffffffffffffffffffffffffffffffffff16021790555080600d60146101000a8154816bffffffffffffffffffffffff02191690836bffffffffffffffffffffffff160217905550505050505062000854565b600033905090565b6000600660009054906101000a900473ffffffffffffffffffffffffffffffffffffffff16905081600660006101000a81548173ffffffffffffffffffffffffffffffffffffffff021916908373ffffffffffffffffffffffffffffffffffffffff1602179055508173ffffffffffffffffffffffffffffffffffffffff168173ffffffffffffffffffffffffffffffffffffffff167f8be0079c531659141344cd1fd0a4f28419497f9722a3daafe3b4186f6b6457e060405160405180910390a35050565b6000604051905090565b600080fd5b600080fd5b600080fd5b600080fd5b6000601f19601f8301169050919050565b7f4e487b7100000000000000000000000000000000000000000000000000000000600052604160045260246000fd5b62000265826200021a565b810181811067ffffffffffffffff821117156200028757620002866200022b565b5b80604052505050565b60006200029c620001fc565b9050620002aa82826200025a565b919050565b600067ffffffffffffffff821115620002cd57620002cc6200022b565b5b620002d8826200021a565b9050602081019050919050565b60005b8381101562000305578082015181840152602081019050620002e8565b60008484015250505050565b6000620003286200032284620002af565b62000290565b90508281526020810184848401111562000347576200034662000215565b5b62000354848285620002e5565b509392505050565b600082601f83011262000374576200037362000210565b5b81516200038684826020860162000311565b91505092915050565b600073ffffffffffffffffffffffffffffffffffffffff82169050919050565b6000620003bc826200038f565b9050919050565b620003ce81620003af565b8114620003da57600080fd5b50565b600081519050620003ee81620003c3565b92915050565b60006bffffffffffffffffffffffff82169050919050565b6200041781620003f4565b81146200042357600080fd5b50565b60008151905062000437816200040c565b92915050565b600080600080600060a086880312156200045c576200045b62000206565b5b600086015167ffffffffffffffff8111156200047d576200047c6200020b565b5b6200048b888289016200035c565b955050602086015167ffffffffffffffff811115620004af57620004ae6200020b565b5b620004bd888289016200035c565b945050604086015167ffffffffffffffff811115620004e157620004e06200020b565b5b620004ef888289016200035c565b93505060606200050288828901620003dd565b9250506080620005158882890162000426565b9150509295509295909350565b600081519050919050565b7f4e487b7100000000000000000000000000000000000000000000000000000000600052602260045260246000fd5b600060028204905060018216806200057557607f821691505b6020821081036200058b576200058a6200052d565b5b50919050565b60008190508160005260206000209050919050565b60006020601f8301049050919050565b600082821b905092915050565b600060088302620005f57fffffffffffffffffffffffffffffffffffffffffffffffffffffffffffffffff82620005b6565b620006018683620005b6565b95508019841693508086168417925050509392505050565b6000819050919050565b6000819050919050565b60006200064e62000648620006428462000619565b62000623565b62000619565b9050919050565b6000819050919050565b6200066a836200062d565b62000682620006798262000655565b848454620005c3565b825550505050565b600090565b620006996200068a565b620006a68184846200065f565b505050565b5b81811015620006ce57620006c26000826200068f565b600181019050620006ac565b5050565b601f8211156200071d57620006e78162000591565b620006f284620005a6565b8101602085101562000702578190505b6200071a6200071185620005a6565b830182620006ab565b50505b505050565b600082821c905092915050565b6000620007426000198460080262000722565b1980831691505092915050565b60006200075d83836200072f565b9150826002028217905092915050565b620007788262000522565b67ffffffffffffffff8111156200079457620007936200022b565b5b620007a082546200055c565b620007ad828285620006d2565b600060209050601f831160018114620007e55760008415620007d0578287015190505b620007dc85826200074f565b8655506200084c565b601f198416620007f58662000591565b60005b828110156200081f57848901518255600182019150602085019450602081019050620007f8565b868310156200083f57848901516200083b601f8916826200072f565b8355505b6001600288020188555050505b505050505050565b613ee580620008646000396000f3fe608060405234801561001057600080fd5b50600436106102275760003560e01c8063715018a611610130578063a6177139116100b8578063c87b56dd1161007c578063c87b56dd14610677578063e43252d7146106a7578063e985e9c5146106c3578063eedf1ff7146106f3578063f2fde38b1461070f57610227565b8063a6177139146105d5578063afdf6134146105f1578063b228d9251461060d578063b88d4fde1461062b578063c2ba47441461064757610227565b806393ecb0c6116100ff57806393ecb0c61461051d57806395d89b411461054d5780639b19251a1461056b5780639fbc87131461059b578063a22cb465146105b957610227565b8063715018a6146104bb57806381ddcc1f146104c55780638ab1d681146104e35780638da5cb5b146104ff57610227565b806323b872dd116101b3578063449a52f811610182578063449a52f81461040557806351fb012d1461042157806355f804b31461043f5780636352211e1461045b57806370a082311461048b57610227565b806323b872dd1461036c5780632a55205a146103885780633af32abf146103b957806342842e0e146103e957610227565b8063081812fc116101fa578063081812fc146102b2578063095ea7b3146102e2578063110f28d8146102fe5780631249c58b1461033057806318160ddd1461034e57610227565b806301ffc9a71461022c57806302fa7c471461025c578063052d9e7e1461027857806306fdde0314610294575b600080fd5b61024660048036038101906102419190612899565b61072b565b60405161025391906128e1565b60405180910390f35b6102766004803603810190610271919061299e565b6107a5565b005b610292600480360381019061028d9190612a0a565b6108af565b005b61029c61090b565b6040516102a99190612ac7565b60405180910390f35b6102cc60048036038101906102c79190612b1f565b61099d565b6040516102d99190612b5b565b60405180910390f35b6102fc60048036038101906102f79190612b76565b6109e3565b005b61031860048036038101906103139190612bb6565b610afa565b60405161032793929190612bf2565b60405180910390f35b610338610bb8565b6040516103459190612c29565b60405180910390f35b610356610d5d565b6040516103639190612c29565b60405180910390f35b61038660048036038101906103819190612c44565b610d6e565b005b6103a2600480360381019061039d9190612c97565b610dce565b6040516103b0929190612cd7565b60405180910390f35b6103d360048036038101906103ce9190612bb6565b610e40565b6040516103e091906128e1565b60405180910390f35b61040360048036038101906103fe9190612c44565b610e96565b005b61041f600480360381019061041a9190612b76565b610eb6565b005b610429610f04565b60405161043691906128e1565b60405180910390f35b61045960048036038101906104549190612e35565b610f17565b005b61047560048036038101906104709190612b1f565b610f32565b6040516104829190612b5b565b60405180910390f35b6104a560048036038101906104a09190612bb6565b610fb8565b6040516104b29190612c29565b60405180910390f35b6104c361106f565b005b6104cd611083565b6040516104da9190612e8d565b60405180910390f35b6104fd60048036038101906104f89190612bb6565b6110a1565b005b610507611153565b6040516105149190612b5b565b60405180910390f35b61053760048036038101906105329190612bb6565b61117d565b6040516105449190612c29565b60405180910390f35b610555611195565b6040516105629190612ac7565b60405180910390f35b61058560048036038101906105809190612bb6565b611227565b60405161059291906128e1565b60405180910390f35b6105a3611247565b6040516105b09190612b5b565b60405180910390f35b6105d360048036038101906105ce9190612ea8565b61126d565b005b6105ef60048036038101906105ea9190612f48565b611283565b005b61060b60048036038101906106069190612b1f565b6113a6565b005b6106156113ef565b6040516106229190612c29565b60405180910390f35b61064560048036038101906106409190613036565b6113f5565b005b610661600480360381019061065c9190612bb6565b611457565b60405161066e91906128e1565b60405180910390f35b610691600480360381019061068c9190612b1f565b611519565b60405161069e9190612ac7565b60405180910390f35b6106c160048036038101906106bc9190612bb6565b611581565b005b6106dd60048036038101906106d891906130b9565b611633565b6040516106ea91906128e1565b60405180910390f35b61070d60048036038101906107089190612bb6565b6116c7565b005b61072960048036038101906107249190612bb6565b611717565b005b60007f2a55205a000000000000000000000000000000000000000000000000000000007bffffffffffffffffffffffffffffffffffffffffffffffffffffffff1916827bffffffffffffffffffffffffffffffffffffffffffffffffffffffff1916148061079e575061079d8261179a565b5b9050919050565b6107ad61187c565b6103e8816bffffffffffffffffffffffff161115610800576040517f08c379a00000000000000000000000000000000000000000000000000000000081526004016107f790613145565b60405180910390fd5b81600d60006101000a81548173ffffffffffffffffffffffffffffffffffffffff021916908373ffffffffffffffffffffffffffffffffffffffff16021790555080600d60146101000a8154816bffffffffffffffffffffffff02191690836bffffffffffffffffffffffff1602179055507f8039bd6e4e7dba001c8840eb2e118d9d131246faa7d0d04335f7305127ec0b1082826040516108a3929190613165565b60405180910390a15050565b6108b761187c565b80600b60006101000a81548160ff0219169083151502179055507f9bea0dd3cae4438dc4c54c3110002aedc380f4075b6edae73ae0536105a2008a8160405161090091906128e1565b60405180910390a150565b60606000805461091a906131bd565b80601f0160208091040260200160405190810160405280929190818152602001828054610946906131bd565b80156109935780601f1061096857610100808354040283529160200191610993565b820191906000526020600020905b81548152906001019060200180831161097657829003601f168201915b5050505050905090565b60006109a8826118fa565b6004600083815260200190815260200160002060009054906101000a900473ffffffffffffffffffffffffffffffffffffffff169050919050565b60006109ee82610f32565b90508073ffffffffffffffffffffffffffffffffffffffff168373ffffffffffffffffffffffffffffffffffffffff1603610a5e576040517f08c379a0000000000000000000000000000000000000000000000000000000008152600401610a5590613260565b60405180910390fd5b8073ffffffffffffffffffffffffffffffffffffffff16610a7d611945565b73ffffffffffffffffffffffffffffffffffffffff161480610aac5750610aab81610aa6611945565b611633565b5b610aeb576040517f08c379a0000000000000000000000000000000000000000000000000000000008152600401610ae2906132f2565b60405180910390fd5b610af5838361194d565b505050565b6000806000600a60008573ffffffffffffffffffffffffffffffffffffffff1673ffffffffffffffffffffffffffffffffffffffff1681526020019081526020016000205492508260095411610b51576000610b60565b82600954610b5f9190613341565b5b9150600c60008573ffffffffffffffffffffffffffffffffffffffff1673ffffffffffffffffffffffffffffffffffffffff16815260200190815260200160002060009054906101000a900460ff1690509193909250565b6000600b60009054906101000a900460ff1615610c5c57600c60003373ffffffffffffffffffffffffffffffffffffffff1673ffffffffffffffffffffffffffffffffffffffff16815260200190815260200160002060009054906101000a900460ff16610c5b576040517f08c379a0000000000000000000000000000000000000000000000000000000008152600401610c52906133c1565b60405180910390fd5b5b600954600a60003373ffffffffffffffffffffffffffffffffffffffff1673ffffffffffffffffffffffffffffffffffffffff1681526020019081526020016000205410610cdf576040517f08c379a0000000000000000000000000000000000000000000000000000000008152600401610cd69061342d565b60405180910390fd5b6000610ceb6007611a06565b9050610cf76007611a14565b600a60003373ffffffffffffffffffffffffffffffffffffffff1673ffffffffffffffffffffffffffffffffffffffff1681526020019081526020016000206000815480929190610d479061344d565b9190505550610d563382611a2a565b8091505090565b6000610d696007611a06565b905090565b610d7f610d79611945565b82611a48565b610dbe576040517f08c379a0000000000000000000000000000000000000000000000000000000008152600401610db590613507565b60405180910390fd5b610dc9838383611add565b505050565b600080600d60009054906101000a900473ffffffffffffffffffffffffffffffffffffffff169150612710600d60149054906101000a90046bffffffffffffffffffffffff166bffffffffffffffffffffffff1684610e2d9190613527565b610e379190613598565b90509250929050565b6000600c60008373ffffffffffffffffffffffffffffffffffffffff1673ffffffffffffffffffffffffffffffffffffffff16815260200190815260200160002060009054906101000a900460ff169050919050565b610eb1838383604051806020016040528060008152506113f5565b505050565b610ebe61187c565b60005b81811015610eff576000610ed56007611a06565b9050610ee16007611a14565b610eeb8482611a2a565b508080610ef79061344d565b915050610ec1565b505050565b600b60009054906101000a900460ff1681565b610f1f61187c565b8060089081610f2e9190613775565b5050565b600080610f3e83611dd6565b9050600073ffffffffffffffffffffffffffffffffffffffff168173ffffffffffffffffffffffffffffffffffffffff1603610faf576040517f08c379a0000000000000000000000000000000000000000000000000000000008152600401610fa690613893565b60405180910390fd5b80915050919050565b60008073ffffffffffffffffffffffffffffffffffffffff168273ffffffffffffffffffffffffffffffffffffffff1603611028576040517f08c379a000000000000000000000000000000000000000000000000000000000815260040161101f90613925565b60405180910390fd5b600360008373ffffffffffffffffffffffffffffffffffffffff1673ffffffffffffffffffffffffffffffffffffffff168152602001908152602001600020549050919050565b61107761187c565b6110816000611e13565b565b600d60149054906101000a90046bffffffffffffffffffffffff1681565b6110a961187c565b6000600c60008373ffffffffffffffffffffffffffffffffffffffff1673ffffffffffffffffffffffffffffffffffffffff16815260200190815260200160002060006101000a81548160ff0219169083151502179055508073ffffffffffffffffffffffffffffffffffffffff167ff93f9a76c1bf3444d22400a00cb9fe990e6abe9dbb333fda48859cfee864543d600060405161114891906128e1565b60405180910390a250565b6000600660009054906101000a900473ffffffffffffffffffffffffffffffffffffffff16905090565b600a6020528060005260406000206000915090505481565b6060600180546111a4906131bd565b80601f01602080910402602001604051908101604052809291908181526020018280546111d0906131bd565b801561121d5780601f106111f25761010080835404028352916020019161121d565b820191906000526020600020905b81548152906001019060200180831161120057829003601f168201915b5050505050905090565b600c6020528060005260406000206000915054906101000a900460ff1681565b600d60009054906101000a900473ffffffffffffffffffffffffffffffffffffffff1681565b61127f611278611945565b8383611ed9565b5050565b61128b61187c565b60005b828290508110156113a1576001600c60008585858181106112b2576112b1613945565b5b90506020020160208101906112c79190612bb6565b73ffffffffffffffffffffffffffffffffffffffff1673ffffffffffffffffffffffffffffffffffffffff16815260200190815260200160002060006101000a81548160ff02191690831515021790555082828281811061132b5761132a613945565b5b90506020020160208101906113409190612bb6565b73ffffffffffffffffffffffffffffffffffffffff167ff93f9a76c1bf3444d22400a00cb9fe990e6abe9dbb333fda48859cfee864543d600160405161138691906128e1565b60405180910390a280806113999061344d565b91505061128e565b505050565b6113ae61187c565b806009819055507fa70551d77839af8d46672cc5a1e4fc3a1b08e9e3cc87239c10d705a80baf938c816040516113e49190612c29565b60405180910390a150565b60095481565b611406611400611945565b83611a48565b611445576040517f08c379a000000000000000000000000000000000000000000000000000000000815260040161143c90613507565b60405180910390fd5b61145184848484612045565b50505050565b6000600b60009054906101000a900460ff1680156114bf5750600c60008373ffffffffffffffffffffffffffffffffffffffff1673ffffffffffffffffffffffffffffffffffffffff16815260200190815260200160002060009054906101000a900460ff16155b156114cd5760009050611514565b600954600a60008473ffffffffffffffffffffffffffffffffffffffff1673ffffffffffffffffffffffffffffffffffffffff168152602001908152602001600020541090505b919050565b6060611524826118fa565b600061152e6120a1565b9050600081511161154e5760405180602001604052806000815250611579565b8061155884612133565b6040516020016115699291906139b0565b6040516020818303038152906040525b915050919050565b61158961187c565b6001600c60008373ffffffffffffffffffffffffffffffffffffffff1673ffffffffffffffffffffffffffffffffffffffff16815260200190815260200160002060006101000a81548160ff0219169083151502179055508073ffffffffffffffffffffffffffffffffffffffff167ff93f9a76c1bf3444d22400a00cb9fe990e6abe9dbb333fda48859cfee864543d600160405161162891906128e1565b60405180910390a250565b6000600560008473ffffffffffffffffffffffffffffffffffffffff1673ffffffffffffffffffffffffffffffffffffffff16815260200190815260200160002060008373ffffffffffffffffffffffffffffffffffffffff1673ffffffffffffffffffffffffffffffffffffffff16815260200190815260200160002060009054906101000a900460ff16905092915050565b6116cf61187c565b6000600a60008373ffffffffffffffffffffffffffffffffffffffff1673ffffffffffffffffffffffffffffffffffffffff1681526020019081526020016000208190555050565b61171f61187c565b600073ffffffffffffffffffffffffffffffffffffffff168173ffffffffffffffffffffffffffffffffffffffff160361178e576040517f08c379a000000000000000000000000000000000000000000000000000000000815260040161178590613a46565b60405180910390fd5b61179781611e13565b50565b60007f80ac58cd000000000000000000000000000000000000000000000000000000007bffffffffffffffffffffffffffffffffffffffffffffffffffffffff1916827bffffffffffffffffffffffffffffffffffffffffffffffffffffffff1916148061186557507f5b5e139f000000000000000000000000000000000000000000000000000000007bffffffffffffffffffffffffffffffffffffffffffffffffffffffff1916827bffffffffffffffffffffffffffffffffffffffffffffffffffffffff1916145b80611875575061187482612201565b5b9050919050565b611884611945565b73ffffffffffffffffffffffffffffffffffffffff166118a2611153565b73ffffffffffffffffffffffffffffffffffffffff16146118f8576040517f08c379a00000000000000000000000000000000000000000000000000000000081526004016118ef90613ab2565b60405180910390fd5b565b6119038161226b565b611942576040517f08c379a000000000000000000000000000000000000000000000000000000000815260040161193990613893565b60405180910390fd5b50565b600033905090565b816004600083815260200190815260200160002060006101000a81548173ffffffffffffffffffffffffffffffffffffffff021916908373ffffffffffffffffffffffffffffffffffffffff160217905550808273ffffffffffffffffffffffffffffffffffffffff166119c083610f32565b73ffffffffffffffffffffffffffffffffffffffff167f8c5be1e5ebec7d5bd14f71427d1e84f3dd0314c0f7b2291e5b200ac8c7c3b92560405160405180910390a45050565b600081600001549050919050565b6001816000016000828254019250508190555050565b611a448282604051806020016040528060008152506122ac565b5050565b600080611a5483610f32565b90508073ffffffffffffffffffffffffffffffffffffffff168473ffffffffffffffffffffffffffffffffffffffff161480611a965750611a958185611633565b5b80611ad457508373ffffffffffffffffffffffffffffffffffffffff16611abc8461099d565b73ffffffffffffffffffffffffffffffffffffffff16145b91505092915050565b8273ffffffffffffffffffffffffffffffffffffffff16611afd82610f32565b73ffffffffffffffffffffffffffffffffffffffff1614611b53576040517f08c379a0000000000000000000000000000000000000000000000000000000008152600401611b4a90613b44565b60405180910390fd5b600073ffffffffffffffffffffffffffffffffffffffff168273ffffffffffffffffffffffffffffffffffffffff1603611bc2576040517f08c379a0000000000000000000000000000000000000000000000000000000008152600401611bb990613bd6565b60405180910390fd5b611bcf8383836001612307565b8273ffffffffffffffffffffffffffffffffffffffff16611bef82610f32565b73ffffffffffffffffffffffffffffffffffffffff1614611c45576040517f08c379a0000000000000000000000000000000000000000000000000000000008152600401611c3c90613b44565b60405180910390fd5b6004600082815260200190815260200160002060006101000a81549073ffffffffffffffffffffffffffffffffffffffff02191690556001600360008573ffffffffffffffffffffffffffffffffffffffff1673ffffffffffffffffffffffffffffffffffffffff168152602001908152602001600020600082825403925050819055506001600360008473ffffffffffffffffffffffffffffffffffffffff1673ffffffffffffffffffffffffffffffffffffffff16815260200190815260200160002060008282540192505081905550816002600083815260200190815260200160002060006101000a81548173ffffffffffffffffffffffffffffffffffffffff021916908373ffffffffffffffffffffffffffffffffffffffff160217905550808273ffffffffffffffffffffffffffffffffffffffff168473ffffffffffffffffffffffffffffffffffffffff167fddf252ad1be2c89b69c2b068fc378daa952ba7f163c4a11628f55a4df523b3ef60405160405180910390a4611dd1838383600161230d565b505050565b60006002600083815260200190815260200160002060009054906101000a900473ffffffffffffffffffffffffffffffffffffffff169050919050565b6000600660009054906101000a900473ffffffffffffffffffffffffffffffffffffffff16905081600660006101000a81548173ffffffffffffffffffffffffffffffffffffffff021916908373ffffffffffffffffffffffffffffffffffffffff1602179055508173ffffffffffffffffffffffffffffffffffffffff168173ffffffffffffffffffffffffffffffffffffffff167f8be0079c531659141344cd1fd0a4f28419497f9722a3daafe3b4186f6b6457e060405160405180910390a35050565b8173ffffffffffffffffffffffffffffffffffffffff168373ffffffffffffffffffffffffffffffffffffffff1603611f47576040517f08c379a0000000000000000000000000000000000000000000000000000000008152600401611f3e90613c42565b60405180910390fd5b80600560008573ffffffffffffffffffffffffffffffffffffffff1673ffffffffffffffffffffffffffffffffffffffff16815260200190815260200160002060008473ffffffffffffffffffffffffffffffffffffffff1673ffffffffffffffffffffffffffffffffffffffff16815260200190815260200160002060006101000a81548160ff0219169083151502179055508173ffffffffffffffffffffffffffffffffffffffff168373ffffffffffffffffffffffffffffffffffffffff167f17307eab39ab6107e8899845ad3d59bd9653f200f220920489ca2b5937696c318360405161203891906128e1565b60405180910390a3505050565b612050848484611add565b61205c84848484612313565b61209b576040517f08c379a000000000000000000000000000000000000000000000000000000000815260040161209290613cd4565b60405180910390fd5b50505050565b6060600880546120b0906131bd565b80601f01602080910402602001604051908101604052809291908181526020018280546120dc906131bd565b80156121295780601f106120fe57610100808354040283529160200191612129565b820191906000526020600020905b81548152906001019060200180831161210c57829003601f168201915b5050505050905090565b6060600060016121428461249a565b01905060008167ffffffffffffffff81111561216157612160612d0a565b5b6040519080825280601f01601f1916602001820160405280156121935781602001600182028036833780820191505090505b509050600082602001820190505b6001156121f6578080600190039150507f3031323334353637383961626364656600000000000000000000000000000000600a86061a8153600a85816121ea576121e9613569565b5b049450600085036121a1575b819350505050919050565b60007f01ffc9a7000000000000000000000000000000000000000000000000000000007bffffffffffffffffffffffffffffffffffffffffffffffffffffffff1916827bffffffffffffffffffffffffffffffffffffffffffffffffffffffff1916149050919050565b60008073ffffffffffffffffffffffffffffffffffffffff1661228d83611dd6565b73ffffffffffffffffffffffffffffffffffffffff1614159050919050565b6122b683836125ed565b6122c36000848484612313565b612302576040517f08c379a00000000000000000000000000000000000000000000000000000000081526004016122f990613cd4565b60405180910390fd5b505050565b50505050565b50505050565b60006123348473ffffffffffffffffffffffffffffffffffffffff1661280a565b1561248d578373ffffffffffffffffffffffffffffffffffffffff1663150b7a0261235d611945565b8786866040518563ffffffff1660e01b815260040161237f9493929190613d49565b6020604051808303816000875af19250505080156123bb57506040513d601f19601f820116820180604052508101906123b89190613daa565b60015b61243d573d80600081146123eb576040519150601f19603f3d011682016040523d82523d6000602084013e6123f0565b606091505b506000815103612435576040517f08c379a000000000000000000000000000000000000000000000000000000000815260040161242c90613cd4565b60405180910390fd5b805181602001fd5b63150b7a0260e01b7bffffffffffffffffffffffffffffffffffffffffffffffffffffffff1916817bffffffffffffffffffffffffffffffffffffffffffffffffffffffff191614915050612492565b600190505b949350505050565b600080600090507a184f03e93ff9f4daa797ed6e38ed64bf6a1f01000000000000000083106124f8577a184f03e93ff9f4daa797ed6e38ed64bf6a1f01000000000000000083816124ee576124ed613569565b5b0492506040810190505b6d04ee2d6d415b85acef81000000008310612535576d04ee2d6d415b85acef8100000000838161252b5761252a613569565b5b0492506020810190505b662386f26fc10000831061256457662386f26fc10000838161255a57612559613569565b5b0492506010810190505b6305f5e100831061258d576305f5e100838161258357612582613569565b5b0492506008810190505b61271083106125b25761271083816125a8576125a7613569565b5b0492506004810190505b606483106125d557606483816125cb576125ca613569565b5b0492506002810190505b600a83106125e4576001810190505b80915050919050565b600073ffffffffffffffffffffffffffffffffffffffff168273ffffffffffffffffffffffffffffffffffffffff160361265c576040517f08c379a000000000000000000000000000000000000000000000000000000000815260040161265390613e23565b60405180910390fd5b6126658161226b565b156126a5576040517f08c379a000000000000000000000000000000000000000000000000000000000815260040161269c90613e8f565b60405180910390fd5b6126b3600083836001612307565b6126bc8161226b565b156126fc576040517f08c379a00000000000000000000000000000000000000000000000000000000081526004016126f390613e8f565b60405180910390fd5b6001600360008473ffffffffffffffffffffffffffffffffffffffff1673ffffffffffffffffffffffffffffffffffffffff16815260200190815260200160002060008282540192505081905550816002600083815260200190815260200160002060006101000a81548173ffffffffffffffffffffffffffffffffffffffff021916908373ffffffffffffffffffffffffffffffffffffffff160217905550808273ffffffffffffffffffffffffffffffffffffffff16600073ffffffffffffffffffffffffffffffffffffffff167fddf252ad1be2c89b69c2b068fc378daa952ba7f163c4a11628f55a4df523b3ef60405160405180910390a461280660008383600161230d565b5050565b6000808273ffffffffffffffffffffffffffffffffffffffff163b119050919050565b6000604051905090565b600080fd5b600080fd5b60007fffffffff0000000000000000000000000000000000000000000000000000000082169050919050565b61287681612841565b811461288157600080fd5b50565b6000813590506128938161286d565b92915050565b6000602082840312156128af576128ae612837565b5b60006128bd84828501612884565b91505092915050565b60008115159050919050565b6128db816128c6565b82525050565b60006020820190506128f660008301846128d2565b92915050565b600073ffffffffffffffffffffffffffffffffffffffff82169050919050565b6000612927826128fc565b9050919050565b6129378161291c565b811461294257600080fd5b50565b6000813590506129548161292e565b92915050565b60006bffffffffffffffffffffffff82169050919050565b61297b8161295a565b811461298657600080fd5b50565b60008135905061299881612972565b92915050565b600080604083850312156129b5576129b4612837565b5b60006129c385828601612945565b92505060206129d485828601612989565b9150509250929050565b6129e7816128c6565b81146129f257600080fd5b50565b600081359050612a04816129de565b92915050565b600060208284031215612a2057612a1f612837565b5b6000612a2e848285016129f5565b91505092915050565b600081519050919050565b600082825260208201905092915050565b60005b83811015612a71578082015181840152602081019050612a56565b60008484015250505050565b6000601f19601f8301169050919050565b6000612a9982612a37565b612aa38185612a42565b9350612ab3818560208601612a53565b612abc81612a7d565b840191505092915050565b60006020820190508181036000830152612ae18184612a8e565b905092915050565b6000819050919050565b612afc81612ae9565b8114612b0757600080fd5b50565b600081359050612b1981612af3565b92915050565b600060208284031215612b3557612b34612837565b5b6000612b4384828501612b0a565b91505092915050565b612b558161291c565b82525050565b6000602082019050612b706000830184612b4c565b92915050565b60008060408385031215612b8d57612b8c612837565b5b6000612b9b85828601612945565b9250506020612bac85828601612b0a565b9150509250929050565b600060208284031215612bcc57612bcb612837565b5b6000612bda84828501612945565b91505092915050565b612bec81612ae9565b82525050565b6000606082019050612c076000830186612be3565b612c146020830185612be3565b612c2160408301846128d2565b949350505050565b6000602082019050612c3e6000830184612be3565b92915050565b600080600060608486031215612c5d57612c5c612837565b5b6000612c6b86828701612945565b9350506020612c7c86828701612945565b9250506040612c8d86828701612b0a565b9150509250925092565b60008060408385031215612cae57612cad612837565b5b6000612cbc85828601612b0a565b9250506020612ccd85828601612b0a565b9150509250929050565b6000604082019050612cec6000830185612b4c565b612cf96020830184612be3565b9392505050565b600080fd5b600080fd5b7f4e487b7100000000000000000000000000000000000000000000000000000000600052604160045260246000fd5b612d4282612a7d565b810181811067ffffffffffffffff82111715612d6157612d60612d0a565b5b80604052505050565b6000612d7461282d565b9050612d808282612d39565b919050565b600067ffffffffffffffff821115612da057612d9f612d0a565b5b612da982612a7d565b9050602081019050919050565b82818337600083830152505050565b6000612dd8612dd384612d85565b612d6a565b905082815260208101848484011115612df457612df3612d05565b5b612dff848285612db6565b509392505050565b600082601f830112612e1c57612e1b612d00565b5b8135612e2c848260208601612dc5565b91505092915050565b600060208284031215612e4b57612e4a612837565b5b600082013567ffffffffffffffff811115612e6957612e6861283c565b5b612e7584828501612e07565b91505092915050565b612e878161295a565b82525050565b6000602082019050612ea26000830184612e7e565b92915050565b60008060408385031215612ebf57612ebe612837565b5b6000612ecd85828601612945565b9250506020612ede858286016129f5565b9150509250929050565b600080fd5b600080fd5b60008083601f840112612f0857612f07612d00565b5b8235905067ffffffffffffffff811115612f2557612f24612ee8565b5b602083019150836020820283011115612f4157612f40612eed565b5b9250929050565b60008060208385031215612f5f57612f5e612837565b5b600083013567ffffffffffffffff811115612f7d57612f7c61283c565b5b612f8985828601612ef2565b92509250509250929050565b600067ffffffffffffffff821115612fb057612faf612d0a565b5b612fb982612a7d565b9050602081019050919050565b6000612fd9612fd484612f95565b612d6a565b905082815260208101848484011115612ff557612ff4612d05565b5b613000848285612db6565b509392505050565b600082601f83011261301d5761301c612d00565b5b813561302d848260208601612fc6565b91505092915050565b600080600080608085870312156130505761304f612837565b5b600061305e87828801612945565b945050602061306f87828801612945565b935050604061308087828801612b0a565b925050606085013567ffffffffffffffff8111156130a1576130a061283c565b5b6130ad87828801613008565b91505092959194509250565b600080604083850312156130d0576130cf612837565b5b60006130de85828601612945565b92505060206130ef85828601612945565b9150509250929050565b7f526f79616c74792066656520746f6f2068696768000000000000000000000000600082015250565b600061312f601483612a42565b915061313a826130f9565b602082019050919050565b6000602082019050818103600083015261315e81613122565b9050919050565b600060408201905061317a6000830185612b4c565b6131876020830184612e7e565b9392505050565b7f4e487b7100000000000000000000000000000000000000000000000000000000600052602260045260246000fd5b600060028204905060018216806131d557607f821691505b6020821081036131e8576131e761318e565b5b50919050565b7f4552433732313a20617070726f76616c20746f2063757272656e74206f776e6560008201527f7200000000000000000000000000000000000000000000000000000000000000602082015250565b600061324a602183612a42565b9150613255826131ee565b604082019050919050565b600060208201905081810360008301526132798161323d565b9050919050565b7f4552433732313a20617070726f76652063616c6c6572206973206e6f7420746f60008201527f6b656e206f776e6572206f7220617070726f76656420666f7220616c6c000000602082015250565b60006132dc603d83612a42565b91506132e782613280565b604082019050919050565b6000602082019050818103600083015261330b816132cf565b9050919050565b7f4e487b7100000000000000000000000000000000000000000000000000000000600052601160045260246000fd5b600061334c82612ae9565b915061335783612ae9565b925082820390508181111561336f5761336e613312565b5b92915050565b7f4e6f7420696e2077686974656c69737400000000000000000000000000000000600082015250565b60006133ab601083612a42565b91506133b682613375565b602082019050919050565b600060208201905081810360008301526133da8161339e565b9050919050565b7f4578636565646564206d6178206d696e74207065722077616c6c657400000000600082015250565b6000613417601c83612a42565b9150613422826133e1565b602082019050919050565b600060208201905081810360008301526134468161340a565b9050919050565b600061345882612ae9565b91507fffffffffffffffffffffffffffffffffffffffffffffffffffffffffffffffff820361348a57613489613312565b5b600182019050919050565b7f4552433732313a2063616c6c6572206973206e6f7420746f6b656e206f776e6560008201527f72206f7220617070726f76656400000000000000000000000000000000000000602082015250565b60006134f1602d83612a42565b91506134fc82613495565b604082019050919050565b60006020820190508181036000830152613520816134e4565b9050919050565b600061353282612ae9565b915061353d83612ae9565b925082820261354b81612ae9565b9150828204841483151761356257613561613312565b5b5092915050565b7f4e487b7100000000000000000000000000000000000000000000000000000000600052601260045260246000fd5b60006135a382612ae9565b91506135ae83612ae9565b9250826135be576135bd613569565b5b828204905092915050565b60008190508160005260206000209050919050565b60006020601f8301049050919050565b600082821b905092915050565b60006008830261362b7fffffffffffffffffffffffffffffffffffffffffffffffffffffffffffffffff826135ee565b61363586836135ee565b95508019841693508086168417925050509392505050565b6000819050919050565b600061367261366d61366884612ae9565b61364d565b612ae9565b9050919050565b6000819050919050565b61368c83613657565b6136a061369882613679565b8484546135fb565b825550505050565b600090565b6136b56136a8565b6136c0818484613683565b505050565b5b818110156136e4576136d96000826136ad565b6001810190506136c6565b5050565b601f821115613729576136fa816135c9565b613703846135de565b81016020851015613712578190505b61372661371e856135de565b8301826136c5565b50505b505050565b600082821c905092915050565b600061374c6000198460080261372e565b1980831691505092915050565b6000613765838361373b565b9150826002028217905092915050565b61377e82612a37565b67ffffffffffffffff81111561379757613796612d0a565b5b6137a182546131bd565b6137ac8282856136e8565b600060209050601f8311600181146137df57600084156137cd578287015190505b6137d78582613759565b86555061383f565b601f1984166137ed866135c9565b60005b82811015613815578489015182556001820191506020850194506020810190506137f0565b86831015613832578489015161382e601f89168261373b565b8355505b6001600288020188555050505b505050505050565b7f4552433732313a20696e76616c696420746f6b656e2049440000000000000000600082015250565b600061387d601883612a42565b915061388882613847565b602082019050919050565b600060208201905081810360008301526138ac81613870565b9050919050565b7f4552433732313a2061646472657373207a65726f206973206e6f74206120766160008201527f6c6964206f776e65720000000000000000000000000000000000000000000000602082015250565b600061390f602983612a42565b915061391a826138b3565b604082019050919050565b6000602082019050818103600083015261393e81613902565b9050919050565b7f4e487b7100000000000000000000000000000000000000000000000000000000600052603260045260246000fd5b600081905092915050565b600061398a82612a37565b6139948185613974565b93506139a4818560208601612a53565b80840191505092915050565b60006139bc828561397f565b91506139c8828461397f565b91508190509392505050565b7f4f776e61626c653a206e6577206f776e657220697320746865207a65726f206160008201527f6464726573730000000000000000000000000000000000000000000000000000602082015250565b6000613a30602683612a42565b9150613a3b826139d4565b604082019050919050565b60006020820190508181036000830152613a5f81613a23565b9050919050565b7f4f776e61626c653a2063616c6c6572206973206e6f7420746865206f776e6572600082015250565b6000613a9c602083612a42565b9150613aa782613a66565b602082019050919050565b60006020820190508181036000830152613acb81613a8f565b9050919050565b7f4552433732313a207472616e736665722066726f6d20696e636f72726563742060008201527f6f776e6572000000000000000000000000000000000000000000000000000000602082015250565b6000613b2e602583612a42565b9150613b3982613ad2565b604082019050919050565b60006020820190508181036000830152613b5d81613b21565b9050919050565b7f4552433732313a207472616e7366657220746f20746865207a65726f2061646460008201527f7265737300000000000000000000000000000000000000000000000000000000602082015250565b6000613bc0602483612a42565b9150613bcb82613b64565b604082019050919050565b60006020820190508181036000830152613bef81613bb3565b9050919050565b7f4552433732313a20617070726f766520746f2063616c6c657200000000000000600082015250565b6000613c2c601983612a42565b9150613c3782613bf6565b602082019050919050565b60006020820190508181036000830152613c5b81613c1f565b9050919050565b7f4552433732313a207472616e7366657220746f206e6f6e20455243373231526560008201527f63656976657220696d706c656d656e7465720000000000000000000000000000602082015250565b6000613cbe603283612a42565b9150613cc982613c62565b604082019050919050565b60006020820190508181036000830152613ced81613cb1565b9050919050565b600081519050919050565b600082825260208201905092915050565b6000613d1b82613cf4565b613d258185613cff565b9350613d35818560208601612a53565b613d3e81612a7d565b840191505092915050565b6000608082019050613d5e6000830187612b4c565b613d6b6020830186612b4c565b613d786040830185612be3565b8181036060830152613d8a8184613d10565b905095945050505050565b600081519050613da48161286d565b92915050565b600060208284031215613dc057613dbf612837565b5b6000613dce84828501613d95565b91505092915050565b7f4552433732313a206d696e7420746f20746865207a65726f2061646472657373600082015250565b6000613e0d602083612a42565b9150613e1882613dd7565b602082019050919050565b60006020820190508181036000830152613e3c81613e00565b9050919050565b7f4552433732313a20746f6b656e20616c7265616479206d696e74656400000000600082015250565b6000613e79601c83612a42565b9150613e8482613e43565b602082019050919050565b60006020820190508181036000830152613ea881613e6c565b905091905056fea26469706673582212209e66eaa318df71d95b1da297d5e0e36906863a42cfef059d510d5dab8de1544864736f6c63430008130033",
  "linkReferences": {},
  "deployedLinkReferences": {}
}