{
  "_format": "hh-sol-artifact-1",
  "contractName": "MyNFT",
  "sourceName": "contracts/MyNFT.sol",
  "abi": [
    {
      "inputs": [
        {
          "internalType": "string",
          "name": "name_",
          "type": "string"
        },
        {
          "internalType": "string",
          "name": "symbol_",
          "type": "string"
        },
        {
          "internalType": "string",
          "name": "baseURI_",
          "type": "string"
        }
      ],
      "stateMutability": "nonpayable",
      "type": "constructor"
    },
    {
      "anonymous": false,
      "inputs": [
        {
          "indexed": true,
          "internalType": "address",
          "name": "owner",
          "type": "address"
        },
        {
          "indexed": true,
          "internalType": "address",
          "name": "approved",
          "type": "address"
        },
        {
          "indexed": true,
          "internalType": "uint256",
          "name": "tokenId",
          "type": "uint256"
        }
      ],
      "name": "Approval",
      "type": "event"
    },
    {
      "anonymous": false,
      "inputs": [
        {
          "indexed": true,
          "internalType": "address",
          "name": "owner",
          "type": "address"
        },
        {
          "indexed": true,
          "internalType": "address",
          "name": "operator",
          "type": "address"
        },
        {
          "indexed": false,
          "internalType": "bool",
          "name": "approved",
          "type": "bool"
        }
      ],
      "name": "ApprovalForAll",
      "type": "event"
    },
    {
      "anonymous": false,
      "inputs": [
        {
          "indexed": true,
          "internalType": "address",
          "name": "previousOwner",
          "type": "address"
        },
        {
          "indexed": true,
          "internalType": "address",
          "name": "newOwner",
          "type": "address"
        }
      ],
      "name": "OwnershipTransferred",
      "type": "event"
    },
    {
      "anonymous": false,
      "inputs": [
        {
          "indexed": true,
          "internalType": "address",
          "name": "from",
          "type": "address"
        },
        {
          "indexed": true,
          "internalType": "address",
          "name": "to",
          "type": "address"
        },
        {
          "indexed": true,
          "internalType": "uint256",
          "name": "tokenId",
          "type": "uint256"
        }
      ],
      "name": "Transfer",
      "type": "event"
    },
    {
      "inputs": [
        {
          "internalType": "address",
          "name": "to",
          "type": "address"
        },
        {
          "internalType": "uint256",
          "name": "tokenId",
          "type": "uint256"
        }
      ],
      "name": "approve",
      "outputs": [],
      "stateMutability": "nonpayable",
      "type": "function"
    },
    {
      "inputs": [
        {
          "internalType": "address",
          "name": "owner",
          "type": "address"
        }
      ],
      "name": "balanceOf",
      "outputs": [
        {
          "internalType": "uint256",
          "name": "",
          "type": "uint256"
        }
      ],
      "stateMutability": "view",
      "type": "function"
    },
    {
      "inputs": [
        {
          "internalType": "uint256",
          "name": "tokenId",
          "type": "uint256"
        }
      ],
      "name": "getApproved",
      "outputs": [
        {
          "internalType": "address",
          "name": "",
          "type": "address"
        }
      ],
      "stateMutability": "view",
      "type": "function"
    },
    {
      "inputs": [
        {
          "internalType": "address",
          "name": "owner",
          "type": "address"
        },
        {
          "internalType": "address",
          "name": "operator",
          "type": "address"
        }
      ],
      "name": "isApprovedForAll",
      "outputs": [
        {
          "internalType": "bool",
          "name": "",
          "type": "bool"
        }
      ],
      "stateMutability": "view",
      "type": "function"
    },
    {
      "inputs": [],
      "name": "mint",
      "outputs": [
        {
          "internalType": "uint256",
          "name": "",
          "type": "uint256"
        }
      ],
      "stateMutability": "nonpayable",
      "type": "function"
    },
    {
      "inputs": [],
      "name": "name",
      "outputs": [
        {
          "internalType": "string",
          "name": "",
          "type": "string"
        }
      ],
      "stateMutability": "view",
      "type": "function"
    },
    {
      "inputs": [],
      "name": "owner",
      "outputs": [
        {
          "internalType": "address",
          "name": "",
          "type": "address"
        }
      ],
      "stateMutability": "view",
      "type": "function"
    },
    {
      "inputs": [
        {
          "internalType": "uint256",
          "name": "tokenId",
          "type": "uint256"
        }
      ],
      "name": "ownerOf",
      "outputs": [
        {
          "internalType": "address",
          "name": "",
          "type": "address"
        }
      ],
      "stateMutability": "view",
      "type": "function"
    },
    {
      "inputs": [],
      "name": "renounceOwnership",
      "outputs": [],
      "stateMutability": "nonpayable",
      "type": "function"
    },
    {
      "inputs": [
        {
          "internalType": "address",
          "name": "from",
          "type": "address"
        },
        {
          "internalType": "address",
          "name": "to",
          "type": "address"
        },
        {
          "internalType": "uint256",
          "name": "tokenId",
          "type": "uint256"
        }
      ],
      "name": "safeTransferFrom",
      "outputs": [],
      "stateMutability": "nonpayable",
      "type": "function"
    },
    {
      "inputs": [
        {
          "internalType": "address",
          "name": "from",
          "type": "address"
        },
        {
          "internalType": "address",
          "name": "to",
          "type": "address"
        },
        {
          "internalType": "uint256",
          "name": "tokenId",
          "type": "uint256"
        },
        {
          "internalType": "bytes",
          "name": "data",
          "type": "bytes"
        }
      ],
      "name": "safeTransferFrom",
      "outputs": [],
      "stateMutability": "nonpayable",
      "type": "function"
    },
    {
      "inputs": [
        {
          "internalType": "address",
          "name": "operator",
          "type": "address"
        },
        {
          "internalType": "bool",
          "name": "approved",
          "type": "bool"
        }
      ],
      "name": "setApprovalForAll",
      "outputs": [],
      "stateMutability": "nonpayable",
      "type": "function"
    },
    {
      "inputs": [
        {
          "internalType": "string",
          "name": "uri",
          "type": "string"
        }
      ],
      "name": "setBaseURI",
      "outputs": [],
      "stateMutability": "nonpayable",
      "type": "function"
    },
    {
      "inputs": [
        {
          "internalType": "bytes4",
          "name": "interfaceId",
          "type": "bytes4"
        }
      ],
      "name": "supportsInterface",
      "outputs": [
        {
          "internalType": "bool",
          "name": "",
          "type": "bool"
        }
      ],
      "stateMutability": "view",
      "type": "function"
    },
    {
      "inputs": [],
      "name": "symbol",
      "outputs": [
        {
          "internalType": "string",
          "name": "",
          "type": "string"
        }
      ],
      "stateMutability": "view",
      "type": "function"
    },
    {
      "inputs": [
        {
          "internalType": "uint256",
          "name": "tokenId",
          "type": "uint256"
        }
      ],
      "name": "tokenURI",
      "outputs": [
        {
          "internalType": "string",
          "name": "",
          "type": "string"
        }
      ],
      "stateMutability": "view",
      "type": "function"
    },
    {
      "inputs": [],
      "name": "totalSupply",
      "outputs": [
        {
          "internalType": "uint256",
          "name": "",
          "type": "uint256"
        }
      ],
      "stateMutability": "view",
      "type": "function"
    },
    {
      "inputs": [
        {
          "internalType": "address",
          "name": "from",
          "type": "address"
        },
        {
          "internalType": "address",
          "name": "to",
          "type": "address"
        },
        {
          "internalType": "uint256",
          "name": "tokenId",
          "type": "uint256"
        }
      ],
      "name": "transferFrom",
      "outputs": [],
      "stateMutability": "nonpayable",
      "type": "function"
    },
    {
      "inputs": [
        {
          "internalType": "address",
          "name": "newOwner",
          "type": "address"
        }
      ],
      "name": "transferOwnership",
      "outputs": [],
      "stateMutability": "nonpayable",
      "type": "function"
    }
  ],
  "bytecode": "0x60806040523480156200001157600080fd5b50604051620033d2380380620033d28339818101604052810190620000379190620002fb565b828281600090816200004a9190620005ff565b5080600190816200005c9190620005ff565b5050506200007f620000736200009a60201b60201c565b620000a260201b60201c565b8060089081620000909190620005ff565b50505050620006e6565b600033905090565b6000600660009054906101000a900473ffffffffffffffffffffffffffffffffffffffff16905081600660006101000a81548173ffffffffffffffffffffffffffffffffffffffff021916908373ffffffffffffffffffffffffffffffffffffffff1602179055508173ffffffffffffffffffffffffffffffffffffffff168173ffffffffffffffffffffffffffffffffffffffff167f8be0079c531659141344cd1fd0a4f28419497f9722a3daafe3b4186f6b6457e060405160405180910390a35050565b6000604051905090565b600080fd5b600080fd5b600080fd5b600080fd5b6000601f19601f8301169050919050565b7f4e487b7100000000000000000000000000000000000000000000000000000000600052604160045260246000fd5b620001d18262000186565b810181811067ffffffffffffffff82111715620001f357620001f262000197565b5b80604052505050565b60006200020862000168565b9050620002168282620001c6565b919050565b600067ffffffffffffffff82111562000239576200023862000197565b5b620002448262000186565b9050602081019050919050565b60005b838110156200027157808201518184015260208101905062000254565b60008484015250505050565b6000620002946200028e846200021b565b620001fc565b905082815260208101848484011115620002b357620002b262000181565b5b620002c084828562000251565b509392505050565b600082601f830112620002e057620002df6200017c565b5b8151620002f28482602086016200027d565b91505092915050565b60008060006060848603121562000317576200031662000172565b5b600084015167ffffffffffffffff81111562000338576200033762000177565b5b6200034686828701620002c8565b935050602084015167ffffffffffffffff8111156200036a576200036962000177565b5b6200037886828701620002c8565b925050604084015167ffffffffffffffff8111156200039c576200039b62000177565b5b620003aa86828701620002c8565b9150509250925092565b600081519050919050565b7f4e487b7100000000000000000000000000000000000000000000000000000000600052602260045260246000fd5b600060028204905060018216806200040757607f821691505b6020821081036200041d576200041c620003bf565b5b50919050565b60008190508160005260206000209050919050565b60006020601f8301049050919050565b600082821b905092915050565b600060088302620004877fffffffffffffffffffffffffffffffffffffffffffffffffffffffffffffffff8262000448565b62000493868362000448565b95508019841693508086168417925050509392505050565b6000819050919050565b6000819050919050565b6000620004e0620004da620004d484620004ab565b620004b5565b620004ab565b9050919050565b6000819050919050565b620004fc83620004bf565b620005146200050b82620004e7565b84845462000455565b825550505050565b600090565b6200052b6200051c565b62000538818484620004f1565b505050565b5b8181101562000560576200055460008262000521565b6001810190506200053e565b5050565b601f821115620005af57620005798162000423565b620005848462000438565b8101602085101562000594578190505b620005ac620005a38562000438565b8301826200053d565b50505b505050565b600082821c905092915050565b6000620005d460001984600802620005b4565b1980831691505092915050565b6000620005ef8383620005c1565b9150826002028217905092915050565b6200060a82620003b4565b67ffffffffffffffff81111562000626576200062562000197565b5b620006328254620003ee565b6200063f82828562000564565b600060209050601f83116001811462000677576000841562000662578287015190505b6200066e8582620005e1565b865550620006de565b601f198416620006878662000423565b60005b82811015620006b1578489015182556001820191506020850194506020810190506200068a565b86831015620006d15784890151620006cd601f891682620005c1565b8355505b6001600288020188555050505b505050505050565b612cdc80620006f66000396000f3fe608060405234801561001057600080fd5b50600436106101215760003560e01c80636352211e116100ad578063a22cb46511610071578063a22cb465146102f6578063b88d4fde14610312578063c87b56dd1461032e578063e985e9c51461035e578063f2fde38b1461038e57610121565b80636352211e1461025057806370a0823114610280578063715018a6146102b05780638da5cb5b146102ba57806395d89b41146102d857610121565b80631249c58b116100f45780631249c58b146101c057806318160ddd146101de57806323b872dd146101fc57806342842e0e1461021857806355f804b31461023457610121565b806301ffc9a71461012657806306fdde0314610156578063081812fc14610174578063095ea7b3146101a4575b600080fd5b610140600480360381019061013b9190611b72565b6103aa565b60405161014d9190611bba565b60405180910390f35b61015e61048c565b60405161016b9190611c65565b60405180910390f35b61018e60048036038101906101899190611cbd565b61051e565b60405161019b9190611d2b565b60405180910390f35b6101be60048036038101906101b99190611d72565b610564565b005b6101c861067b565b6040516101d59190611dc1565b60405180910390f35b6101e66106a5565b6040516101f39190611dc1565b60405180910390f35b61021660048036038101906102119190611ddc565b6106b6565b005b610232600480360381019061022d9190611ddc565b610716565b005b61024e60048036038101906102499190611f64565b610736565b005b61026a60048036038101906102659190611cbd565b610751565b6040516102779190611d2b565b60405180910390f35b61029a60048036038101906102959190611fad565b6107d7565b6040516102a79190611dc1565b60405180910390f35b6102b861088e565b005b6102c26108a2565b6040516102cf9190611d2b565b60405180910390f35b6102e06108cc565b6040516102ed9190611c65565b60405180910390f35b610310600480360381019061030b9190612006565b61095e565b005b61032c600480360381019061032791906120e7565b610974565b005b61034860048036038101906103439190611cbd565b6109d6565b6040516103559190611c65565b60405180910390f35b6103786004803603810190610373919061216a565b610a3e565b6040516103859190611bba565b60405180910390f35b6103a860048036038101906103a39190611fad565b610ad2565b005b60007f80ac58cd000000000000000000000000000000000000000000000000000000007bffffffffffffffffffffffffffffffffffffffffffffffffffffffff1916827bffffffffffffffffffffffffffffffffffffffffffffffffffffffff1916148061047557507f5b5e139f000000000000000000000000000000000000000000000000000000007bffffffffffffffffffffffffffffffffffffffffffffffffffffffff1916827bffffffffffffffffffffffffffffffffffffffffffffffffffffffff1916145b80610485575061048482610b55565b5b9050919050565b60606000805461049b906121d9565b80601f01602080910402602001604051908101604052809291908181526020018280546104c7906121d9565b80156105145780601f106104e957610100808354040283529160200191610514565b820191906000526020600020905b8154815290600101906020018083116104f757829003601f168201915b5050505050905090565b600061052982610bbf565b6004600083815260200190815260200160002060009054906101000a900473ffffffffffffffffffffffffffffffffffffffff169050919050565b600061056f82610751565b90508073ffffffffffffffffffffffffffffffffffffffff168373ffffffffffffffffffffffffffffffffffffffff16036105df576040517f08c379a00000000000000000000000000000000000000000000000000000000081526004016105d69061227c565b60405180910390fd5b8073ffffffffffffffffffffffffffffffffffffffff166105fe610c0a565b73ffffffffffffffffffffffffffffffffffffffff16148061062d575061062c81610627610c0a565b610a3e565b5b61066c576040517f08c379a00000000000000000000000000000000000000000000000000000000081526004016106639061230e565b60405180910390fd5b6106768383610c12565b505050565b6000806106886007610ccb565b90506106946007610cd9565b61069e3382610cef565b8091505090565b60006106b16007610ccb565b905090565b6106c76106c1610c0a565b82610d0d565b610706576040517f08c379a00000000000000000000000000000000000000000000000000000000081526004016106fd906123a0565b60405180910390fd5b610711838383610da2565b505050565b61073183838360405180602001604052806000815250610974565b505050565b61073e61109b565b806008908161074d919061256c565b5050565b60008061075d83611119565b9050600073ffffffffffffffffffffffffffffffffffffffff168173ffffffffffffffffffffffffffffffffffffffff16036107ce576040517f08c379a00000000000000000000000000000000000000000000000000000000081526004016107c59061268a565b60405180910390fd5b80915050919050565b60008073ffffffffffffffffffffffffffffffffffffffff168273ffffffffffffffffffffffffffffffffffffffff1603610847576040517f08c379a000000000000000000000000000000000000000000000000000000000815260040161083e9061271c565b60405180910390fd5b600360008373ffffffffffffffffffffffffffffffffffffffff1673ffffffffffffffffffffffffffffffffffffffff168152602001908152602001600020549050919050565b61089661109b565b6108a06000611156565b565b6000600660009054906101000a900473ffffffffffffffffffffffffffffffffffffffff16905090565b6060600180546108db906121d9565b80601f0160208091040260200160405190810160405280929190818152602001828054610907906121d9565b80156109545780601f1061092957610100808354040283529160200191610954565b820191906000526020600020905b81548152906001019060200180831161093757829003601f168201915b5050505050905090565b610970610969610c0a565b838361121c565b5050565b61098561097f610c0a565b83610d0d565b6109c4576040517f08c379a00000000000000000000000000000000000000000000000000000000081526004016109bb906123a0565b60405180910390fd5b6109d084848484611388565b50505050565b60606109e182610bbf565b60006109eb6113e4565b90506000815111610a0b5760405180602001604052806000815250610a36565b80610a1584611476565b604051602001610a26929190612778565b6040516020818303038152906040525b915050919050565b6000600560008473ffffffffffffffffffffffffffffffffffffffff1673ffffffffffffffffffffffffffffffffffffffff16815260200190815260200160002060008373ffffffffffffffffffffffffffffffffffffffff1673ffffffffffffffffffffffffffffffffffffffff16815260200190815260200160002060009054906101000a900460ff16905092915050565b610ada61109b565b600073ffffffffffffffffffffffffffffffffffffffff168173ffffffffffffffffffffffffffffffffffffffff1603610b49576040517f08c379a0000000000000000000000000000000000000000000000000000000008152600401610b409061280e565b60405180910390fd5b610b5281611156565b50565b60007f01ffc9a7000000000000000000000000000000000000000000000000000000007bffffffffffffffffffffffffffffffffffffffffffffffffffffffff1916827bffffffffffffffffffffffffffffffffffffffffffffffffffffffff1916149050919050565b610bc881611544565b610c07576040517f08c379a0000000000000000000000000000000000000000000000000000000008152600401610bfe9061268a565b60405180910390fd5b50565b600033905090565b816004600083815260200190815260200160002060006101000a81548173ffffffffffffffffffffffffffffffffffffffff021916908373ffffffffffffffffffffffffffffffffffffffff160217905550808273ffffffffffffffffffffffffffffffffffffffff16610c8583610751565b73ffffffffffffffffffffffffffffffffffffffff167f8c5be1e5ebec7d5bd14f71427d1e84f3dd0314c0f7b2291e5b200ac8c7c3b92560405160405180910390a45050565b600081600001549050919050565b6001816000016000828254019250508190555050565b610d09828260405180602001604052806000815250611585565b5050565b600080610d1983610751565b90508073ffffffffffffffffffffffffffffffffffffffff168473ffffffffffffffffffffffffffffffffffffffff161480610d5b5750610d5a8185610a3e565b5b80610d9957508373ffffffffffffffffffffffffffffffffffffffff16610d818461051e565b73ffffffffffffffffffffffffffffffffffffffff16145b91505092915050565b8273ffffffffffffffffffffffffffffffffffffffff16610dc282610751565b73ffffffffffffffffffffffffffffffffffffffff1614610e18576040517f08c379a0000000000000000000000000000000000000000000000000000000008152600401610e0f906128a0565b60405180910390fd5b600073ffffffffffffffffffffffffffffffffffffffff168273ffffffffffffffffffffffffffffffffffffffff1603610e87576040517f08c379a0000000000000000000000000000000000000000000000000000000008152600401610e7e90612932565b60405180910390fd5b610e9483838360016115e0565b8273ffffffffffffffffffffffffffffffffffffffff16610eb482610751565b73ffffffffffffffffffffffffffffffffffffffff1614610f0a576040517f08c379a0000000000000000000000000000000000000000000000000000000008152600401610f01906128a0565b60405180910390fd5b6004600082815260200190815260200160002060006101000a81549073ffffffffffffffffffffffffffffffffffffffff02191690556001600360008573ffffffffffffffffffffffffffffffffffffffff1673ffffffffffffffffffffffffffffffffffffffff168152602001908152602001600020600082825403925050819055506001600360008473ffffffffffffffffffffffffffffffffffffffff1673ffffffffffffffffffffffffffffffffffffffff16815260200190815260200160002060008282540192505081905550816002600083815260200190815260200160002060006101000a81548173ffffffffffffffffffffffffffffffffffffffff021916908373ffffffffffffffffffffffffffffffffffffffff160217905550808273ffffffffffffffffffffffffffffffffffffffff168473ffffffffffffffffffffffffffffffffffffffff167fddf252ad1be2c89b69c2b068fc378daa952ba7f163c4a11628f55a4df523b3ef60405160405180910390a461109683838360016115e6565b505050565b6110a3610c0a565b73ffffffffffffffffffffffffffffffffffffffff166110c16108a2565b73ffffffffffffffffffffffffffffffffffffffff1614611117576040517f08c379a000000000000000000000000000000000000000000000000000000000815260040161110e9061299e565b60405180910390fd5b565b60006002600083815260200190815260200160002060009054906101000a900473ffffffffffffffffffffffffffffffffffffffff169050919050565b6000600660009054906101000a900473ffffffffffffffffffffffffffffffffffffffff16905081600660006101000a81548173ffffffffffffffffffffffffffffffffffffffff021916908373ffffffffffffffffffffffffffffffffffffffff1602179055508173ffffffffffffffffffffffffffffffffffffffff168173ffffffffffffffffffffffffffffffffffffffff167f8be0079c531659141344cd1fd0a4f28419497f9722a3daafe3b4186f6b6457e060405160405180910390a35050565b8173ffffffffffffffffffffffffffffffffffffffff168373ffffffffffffffffffffffffffffffffffffffff160361128a576040517f08c379a000000000000000000000000000000000000000000000000000000000815260040161128190612a0a565b60405180910390fd5b80600560008573ffffffffffffffffffffffffffffffffffffffff1673ffffffffffffffffffffffffffffffffffffffff16815260200190815260200160002060008473ffffffffffffffffffffffffffffffffffffffff1673ffffffffffffffffffffffffffffffffffffffff16815260200190815260200160002060006101000a81548160ff0219169083151502179055508173ffffffffffffffffffffffffffffffffffffffff168373ffffffffffffffffffffffffffffffffffffffff167f17307eab39ab6107e8899845ad3d59bd9653f200f220920489ca2b5937696c318360405161137b9190611bba565b60405180910390a3505050565b611393848484610da2565b61139f848484846115ec565b6113de576040517f08c379a00000000000000000000000000000000000000000000000000000000081526004016113d590612a9c565b60405180910390fd5b50505050565b6060600880546113f3906121d9565b80601f016020809104026020016040519081016040528092919081815260200182805461141f906121d9565b801561146c5780601f106114415761010080835404028352916020019161146c565b820191906000526020600020905b81548152906001019060200180831161144f57829003601f168201915b5050505050905090565b60606000600161148584611773565b01905060008167ffffffffffffffff8111156114a4576114a3611e39565b5b6040519080825280601f01601f1916602001820160405280156114d65781602001600182028036833780820191505090505b509050600082602001820190505b600115611539578080600190039150507f3031323334353637383961626364656600000000000000000000000000000000600a86061a8153600a858161152d5761152c612abc565b5b049450600085036114e4575b819350505050919050565b60008073ffffffffffffffffffffffffffffffffffffffff1661156683611119565b73ffffffffffffffffffffffffffffffffffffffff1614159050919050565b61158f83836118c6565b61159c60008484846115ec565b6115db576040517f08c379a00000000000000000000000000000000000000000000000000000000081526004016115d290612a9c565b60405180910390fd5b505050565b50505050565b50505050565b600061160d8473ffffffffffffffffffffffffffffffffffffffff16611ae3565b15611766578373ffffffffffffffffffffffffffffffffffffffff1663150b7a02611636610c0a565b8786866040518563ffffffff1660e01b81526004016116589493929190612b40565b6020604051808303816000875af192505050801561169457506040513d601f19601f820116820180604052508101906116919190612ba1565b60015b611716573d80600081146116c4576040519150601f19603f3d011682016040523d82523d6000602084013e6116c9565b606091505b50600081510361170e576040517f08c379a000000000000000000000000000000000000000000000000000000000815260040161170590612a9c565b60405180910390fd5b805181602001fd5b63150b7a0260e01b7bffffffffffffffffffffffffffffffffffffffffffffffffffffffff1916817bffffffffffffffffffffffffffffffffffffffffffffffffffffffff19161491505061176b565b600190505b949350505050565b600080600090507a184f03e93ff9f4daa797ed6e38ed64bf6a1f01000000000000000083106117d1577a184f03e93ff9f4daa797ed6e38ed64bf6a1f01000000000000000083816117c7576117c6612abc565b5b0492506040810190505b6d04ee2d6d415b85acef8100000000831061180e576d04ee2d6d415b85acef8100000000838161180457611803612abc565b5b0492506020810190505b662386f26fc10000831061183d57662386f26fc10000838161183357611832612abc565b5b0492506010810190505b6305f5e1008310611866576305f5e100838161185c5761185b612abc565b5b0492506008810190505b612710831061188b57612710838161188157611880612abc565b5b0492506004810190505b606483106118ae57606483816118a4576118a3612abc565b5b0492506002810190505b600a83106118bd576001810190505b80915050919050565b600073ffffffffffffffffffffffffffffffffffffffff168273ffffffffffffffffffffffffffffffffffffffff1603611935576040517f08c379a000000000000000000000000000000000000000000000000000000000815260040161192c90612c1a565b60405180910390fd5b61193e81611544565b1561197e576040517f08c379a000000000000000000000000000000000000000000000000000000000815260040161197590612c86565b60405180910390fd5b61198c6000838360016115e0565b61199581611544565b156119d5576040517f08c379a00000000000000000000000000000000000000000000000000000000081526004016119cc90612c86565b60405180910390fd5b6001600360008473ffffffffffffffffffffffffffffffffffffffff1673ffffffffffffffffffffffffffffffffffffffff16815260200190815260200160002060008282540192505081905550816002600083815260200190815260200160002060006101000a81548173ffffffffffffffffffffffffffffffffffffffff021916908373ffffffffffffffffffffffffffffffffffffffff160217905550808273ffffffffffffffffffffffffffffffffffffffff16600073ffffffffffffffffffffffffffffffffffffffff167fddf252ad1be2c89b69c2b068fc378daa952ba7f163c4a11628f55a4df523b3ef60405160405180910390a4611adf6000838360016115e6565b5050565b6000808273ffffffffffffffffffffffffffffffffffffffff163b119050919050565b6000604051905090565b600080fd5b600080fd5b60007fffffffff0000000000000000000000000000000000000000000000000000000082169050919050565b611b4f81611b1a565b8114611b5a57600080fd5b50565b600081359050611b6c81611b46565b92915050565b600060208284031215611b8857611b87611b10565b5b6000611b9684828501611b5d565b91505092915050565b60008115159050919050565b611bb481611b9f565b82525050565b6000602082019050611bcf6000830184611bab565b92915050565b600081519050919050565b600082825260208201905092915050565b60005b83811015611c0f578082015181840152602081019050611bf4565b60008484015250505050565b6000601f19601f8301169050919050565b6000611c3782611bd5565b611c418185611be0565b9350611c51818560208601611bf1565b611c5a81611c1b565b840191505092915050565b60006020820190508181036000830152611c7f8184611c2c565b905092915050565b6000819050919050565b611c9a81611c87565b8114611ca557600080fd5b50565b600081359050611cb781611c91565b92915050565b600060208284031215611cd357611cd2611b10565b5b6000611ce184828501611ca8565b91505092915050565b600073ffffffffffffffffffffffffffffffffffffffff82169050919050565b6000611d1582611cea565b9050919050565b611d2581611d0a565b82525050565b6000602082019050611d406000830184611d1c565b92915050565b611d4f81611d0a565b8114611d5a57600080fd5b50565b600081359050611d6c81611d46565b92915050565b60008060408385031215611d8957611d88611b10565b5b6000611d9785828601611d5d565b9250506020611da885828601611ca8565b9150509250929050565b611dbb81611c87565b82525050565b6000602082019050611dd66000830184611db2565b92915050565b600080600060608486031215611df557611df4611b10565b5b6000611e0386828701611d5d565b9350506020611e1486828701611d5d565b9250506040611e2586828701611ca8565b9150509250925092565b600080fd5b600080fd5b7f4e487b7100000000000000000000000000000000000000000000000000000000600052604160045260246000fd5b611e7182611c1b565b810181811067ffffffffffffffff82111715611e9057611e8f611e39565b5b80604052505050565b6000611ea3611b06565b9050611eaf8282611e68565b919050565b600067ffffffffffffffff821115611ecf57611ece611e39565b5b611ed882611c1b565b9050602081019050919050565b82818337600083830152505050565b6000611f07611f0284611eb4565b611e99565b905082815260208101848484011115611f2357611f22611e34565b5b611f2e848285611ee5565b509392505050565b600082601f830112611f4b57611f4a611e2f565b5b8135611f5b848260208601611ef4565b91505092915050565b600060208284031215611f7a57611f79611b10565b5b600082013567ffffffffffffffff811115611f9857611f97611b15565b5b611fa484828501611f36565b91505092915050565b600060208284031215611fc357611fc2611b10565b5b6000611fd184828501611d5d565b91505092915050565b611fe381611b9f565b8114611fee57600080fd5b50565b60008135905061200081611fda565b92915050565b6000806040838503121561201d5761201c611b10565b5b600061202b85828601611d5d565b925050602061203c85828601611ff1565b9150509250929050565b600067ffffffffffffffff82111561206157612060611e39565b5b61206a82611c1b565b9050602081019050919050565b600061208a61208584612046565b611e99565b9050828152602081018484840111156120a6576120a5611e34565b5b6120b1848285611ee5565b509392505050565b600082601f8301126120ce576120cd611e2f565b5b81356120de848260208601612077565b91505092915050565b6000806000806080858703121561210157612100611b10565b5b600061210f87828801611d5d565b945050602061212087828801611d5d565b935050604061213187828801611ca8565b925050606085013567ffffffffffffffff81111561215257612151611b15565b5b61215e878288016120b9565b91505092959194509250565b6000806040838503121561218157612180611b10565b5b600061218f85828601611d5d565b92505060206121a085828601611d5d565b9150509250929050565b7f4e487b7100000000000000000000000000000000000000000000000000000000600052602260045260246000fd5b600060028204905060018216806121f157607f821691505b602082108103612204576122036121aa565b5b50919050565b7f4552433732313a20617070726f76616c20746f2063757272656e74206f776e6560008201527f7200000000000000000000000000000000000000000000000000000000000000602082015250565b6000612266602183611be0565b91506122718261220a565b604082019050919050565b6000602082019050818103600083015261229581612259565b9050919050565b7f4552433732313a20617070726f76652063616c6c6572206973206e6f7420746f60008201527f6b656e206f776e6572206f7220617070726f76656420666f7220616c6c000000602082015250565b60006122f8603d83611be0565b91506123038261229c565b604082019050919050565b60006020820190508181036000830152612327816122eb565b9050919050565b7f4552433732313a2063616c6c6572206973206e6f7420746f6b656e206f776e6560008201527f72206f7220617070726f76656400000000000000000000000000000000000000602082015250565b600061238a602d83611be0565b91506123958261232e565b604082019050919050565b600060208201905081810360008301526123b98161237d565b9050919050565b60008190508160005260206000209050919050565b60006020601f8301049050919050565b600082821b905092915050565b6000600883026124227fffffffffffffffffffffffffffffffffffffffffffffffffffffffffffffffff826123e5565b61242c86836123e5565b95508019841693508086168417925050509392505050565b6000819050919050565b600061246961246461245f84611c87565b612444565b611c87565b9050919050565b6000819050919050565b6124838361244e565b61249761248f82612470565b8484546123f2565b825550505050565b600090565b6124ac61249f565b6124b781848461247a565b505050565b5b818110156124db576124d06000826124a4565b6001810190506124bd565b5050565b601f821115612520576124f1816123c0565b6124fa846123d5565b81016020851015612509578190505b61251d612515856123d5565b8301826124bc565b50505b505050565b600082821c905092915050565b600061254360001984600802612525565b1980831691505092915050565b600061255c8383612532565b9150826002028217905092915050565b61257582611bd5565b67ffffffffffffffff81111561258e5761258d611e39565b5b61259882546121d9565b6125a38282856124df565b600060209050601f8311600181146125d657600084156125c4578287015190505b6125ce8582612550565b865550612636565b601f1984166125e4866123c0565b60005b8281101561260c578489015182556001820191506020850194506020810190506125e7565b868310156126295784890151612625601f891682612532565b8355505b6001600288020188555050505b505050505050565b7f4552433732313a20696e76616c696420746f6b656e2049440000000000000000600082015250565b6000612674601883611be0565b915061267f8261263e565b602082019050919050565b600060208201905081810360008301526126a381612667565b9050919050565b7f4552433732313a2061646472657373207a65726f206973206e6f74206120766160008201527f6c6964206f776e65720000000000000000000000000000000000000000000000602082015250565b6000612706602983611be0565b9150612711826126aa565b604082019050919050565b60006020820190508181036000830152612735816126f9565b9050919050565b600081905092915050565b600061275282611bd5565b61275c818561273c565b935061276c818560208601611bf1565b80840191505092915050565b60006127848285612747565b91506127908284612747565b91508190509392505050565b7f4f776e61626c653a206e6577206f776e657220697320746865207a65726f206160008201527f6464726573730000000000000000000000000000000000000000000000000000602082015250565b60006127f8602683611be0565b91506128038261279c565b604082019050919050565b60006020820190508181036000830152612827816127eb565b9050919050565b7f4552433732313a207472616e736665722066726f6d20696e636f72726563742060008201527f6f776e6572000000000000000000000000000000000000000000000000000000602082015250565b600061288a602583611be0565b91506128958261282e565b604082019050919050565b600060208201905081810360008301526128b98161287d565b9050919050565b7f4552433732313a207472616e7366657220746f20746865207a65726f2061646460008201527f7265737300000000000000000000000000000000000000000000000000000000602082015250565b600061291c602483611be0565b9150612927826128c0565b604082019050919050565b6000602082019050818103600083015261294b8161290f565b9050919050565b7f4f776e61626c653a2063616c6c6572206973206e6f7420746865206f776e6572600082015250565b6000612988602083611be0565b915061299382612952565b602082019050919050565b600060208201905081810360008301526129b78161297b565b9050919050565b7f4552433732313a20617070726f766520746f2063616c6c657200000000000000600082015250565b60006129f4601983611be0565b91506129ff826129be565b602082019050919050565b60006020820190508181036000830152612a23816129e7565b9050919050565b7f4552433732313a207472616e7366657220746f206e6f6e20455243373231526560008201527f63656976657220696d706c656d656e7465720000000000000000000000000000602082015250565b6000612a86603283611be0565b9150612a9182612a2a565b604082019050919050565b60006020820190508181036000830152612ab581612a79565b9050919050565b7f4e487b7100000000000000000000000000000000000000000000000000000000600052601260045260246000fd5b600081519050919050565b600082825260208201905092915050565b6000612b1282612aeb565b612b1c8185612af6565b9350612b2c818560208601611bf1565b612b3581611c1b565b840191505092915050565b6000608082019050612b556000830187611d1c565b612b626020830186611d1c565b612b6f6040830185611db2565b8181036060830152612b818184612b07565b905095945050505050565b600081519050612b9b81611b46565b92915050565b600060208284031215612bb757612bb6611b10565b5b6000612bc584828501612b8c565b91505092915050565b7f4552433732313a206d696e7420746f20746865207a65726f2061646472657373600082015250565b6000612c04602083611be0565b9150612c0f82612bce565b602082019050919050565b60006020820190508181036000830152612c3381612bf7565b9050919050565b7f4552433732313a20746f6b656e20616c7265616479206d696e74656400000000600082015250565b6000612c70601c83611be0565b9150612c7b82612c3a565b602082019050919050565b60006020820190508181036000830152612c9f81612c63565b905091905056fea264697066735822122089db20442679ad61c10a0723a04681f7ffe74572b5b998069fb9449fe411d68964736f6c63430008130033",
  "linkReferences": {},
  "deployedLinkReferences": {}
}