{
  "_format": "hh-sol-artifact-1",
  "contractName": "MyNFT",
  "sourceName": "contracts/MyNFT.sol",
  "abi": [
    {
      "inputs": [
        {
          "internalType": "string",
          "name": "name_",
          "type": "string"
        },
        {
          "internalType": "string",
          "name": "symbol_",
          "type": "string"
        },
        {
          "internalType": "string",
          "name": "baseURI_",
          "type": "string"
        },
        {
          "internalType": "address",
          "name": "royaltyReceiver_",
          "type": "address"
        },
        {
          "internalType": "uint96",
          "name": "royaltyFeeNumerator_",
          "type": "uint96"
        }
      ],
      "stateMutability": "nonpayable",
      "type": "constructor"
    },
    {
      "anonymous": false,
      "inputs": [
        {
          "indexed": true,
          "internalType": "address",
          "name": "owner",
          "type": "address"
        },
        {
          "indexed": true,
          "internalType": "address",
          "name": "approved",
          "type": "address"
        },
        {
          "indexed": true,
          "internalType": "uint256",
          "name": "tokenId",
          "type": "uint256"
        }
      ],
      "name": "Approval",
      "type": "event"
    },
    {
      "anonymous": false,
      "inputs": [
        {
          "indexed": true,
          "internalType": "address",
          "name": "owner",
          "type": "address"
        },
        {
          "indexed": true,
          "internalType": "address",
          "name": "operator",
          "type": "address"
        },
        {
          "indexed": false,
          "internalType": "bool",
          "name": "approved",
          "type": "bool"
        }
      ],
      "name": "ApprovalForAll",
      "type": "event"
    },
    {
      "anonymous": false,
      "inputs": [
        {
          "indexed": false,
          "internalType": "uint256",
          "name": "newLimit",
          "type": "uint256"
        }
      ],
      "name": "MaxMintPerWalletUpdated",
      "type": "event"
    },
    {
      "anonymous": false,
      "inputs": [
        {
          "indexed": true,
          "internalType": "address",
          "name": "previousOwner",
          "type": "address"
        },
        {
          "indexed": true,
          "internalType": "address",
          "name": "newOwner",
          "type": "address"
        }
      ],
      "name": "OwnershipTransferred",
      "type": "event"
    },
    {
      "anonymous": false,
      "inputs": [
        {
          "indexed": false,
          "internalType": "address",
          "name": "receiver",
          "type": "address"
        },
        {
          "indexed": false,
          "internalType": "uint96",
          "name": "feeNumerator",
          "type": "uint96"
        }
      ],
      "name": "RoyaltyUpdated",
      "type": "event"
    },
    {
      "anonymous": false,
      "inputs": [
        {
          "indexed": true,
          "internalType": "address",
          "name": "from",
          "type": "address"
        },
        {
          "indexed": true,
          "internalType": "address",
          "name": "to",
          "type": "address"
        },
        {
          "indexed": true,
          "internalType": "uint256",
          "name": "tokenId",
          "type": "uint256"
        }
      ],
      "name": "Transfer",
      "type": "event"
    },
    {
      "anonymous": false,
      "inputs": [
        {
          "indexed": false,
          "internalType": "bool",
          "name": "enabled",
          "type": "bool"
        }
      ],
      "name": "WhitelistEnabled",
      "type": "event"
    },
    {
      "anonymous": false,
      "inputs": [
        {
          "indexed": true,
          "internalType": "address",
          "name": "wallet",
          "type": "address"
        },
        {
          "indexed": false,
          "internalType": "bool",
          "name": "status",
          "type": "bool"
        }
      ],
      "name": "WhitelistUpdated",
      "type": "event"
    },
    {
      "inputs": [
        {
          "internalType": "address",
          "name": "wallet",
          "type": "address"
        }
      ],
      "name": "addToWhitelist",
      "outputs": [],
      "stateMutability": "nonpayable",
      "type": "function"
    },
    {
      "inputs": [
        {
          "internalType": "address[]",
          "name": "wallets",
          "type": "address[]"
        }
      ],
      "name": "addToWhitelistBatch",
      "outputs": [],
      "stateMutability": "nonpayable",
      "type": "function"
    },
    {
      "inputs": [
        {
          "internalType": "address",
          "name": "to",
          "type": "address"
        },
        {
          "internalType": "uint256",
          "name": "tokenId",
          "type": "uint256"
        }
      ],
      "name": "approve",
      "outputs": [],
      "stateMutability": "nonpayable",
      "type": "function"
    },
    {
      "inputs": [
        {
          "internalType": "address",
          "name": "owner",
          "type": "address"
        }
      ],
      "name": "balanceOf",
      "outputs": [
        {
          "internalType": "uint256",
          "name": "",
          "type": "uint256"
        }
      ],
      "stateMutability": "view",
      "type": "function"
    },
    {
      "inputs": [
        {
          "internalType": "address",
          "name": "wallet",
          "type": "address"
        }
      ],
      "name": "canMint",
      "outputs": [
        {
          "internalType": "bool",
          "name": "",
          "type": "bool"
        }
      ],
      "stateMutability": "view",
      "type": "function"
    },
    {
      "inputs": [
        {
          "internalType": "uint256",
          "name": "tokenId",
          "type": "uint256"
        }
      ],
      "name": "getApproved",
      "outputs": [
        {
          "internalType": "address",
          "name": "",
          "type": "address"
        }
      ],
      "stateMutability": "view",
      "type": "function"
    },
    {
      "inputs": [
        {
          "internalType": "address",
          "name": "wallet",
          "type": "address"
        }
      ],
      "name": "getWalletMintInfo",
      "outputs": [
        {
          "internalType": "uint256",
          "name": "mintedCount",
          "type": "uint256"
        },
        {
          "internalType": "uint256",
          "name": "remainingMints",
          "type": "uint256"
        },
        {
          "internalType": "bool",
          "name": "isWhitelistedWallet",
          "type": "bool"
        }
      ],
      "stateMutability": "view",
      "type": "function"
    },
    {
      "inputs": [
        {
          "internalType": "address",
          "name": "owner",
          "type": "address"
        },
        {
          "internalType": "address",
          "name": "operator",
          "type": "address"
        }
      ],
      "name": "isApprovedForAll",
      "outputs": [
        {
          "internalType": "bool",
          "name": "",
          "type": "bool"
        }
      ],
      "stateMutability": "view",
      "type": "function"
    },
    {
      "inputs": [
        {
          "internalType": "address",
          "name": "wallet",
          "type": "address"
        }
      ],
      "name": "isWhitelisted",
      "outputs": [
        {
          "internalType": "bool",
          "name": "",
          "type": "bool"
        }
      ],
      "stateMutability": "view",
      "type": "function"
    },
    {
      "inputs": [],
      "name": "maxMintPerWallet",
      "outputs": [
        {
          "internalType": "uint256",
          "name": "",
          "type": "uint256"
        }
      ],
      "stateMutability": "view",
      "type": "function"
    },
    {
      "inputs": [],
      "name": "mint",
      "outputs": [
        {
          "internalType": "uint256",
          "name": "",
          "type": "uint256"
        }
      ],
      "stateMutability": "nonpayable",
      "type": "function"
    },
    {
      "inputs": [
        {
          "internalType": "address",
          "name": "to",
          "type": "address"
        },
        {
          "internalType": "uint256",
          "name": "quantity",
          "type": "uint256"
        }
      ],
      "name": "mintTo",
      "outputs": [],
      "stateMutability": "nonpayable",
      "type": "function"
    },
    {
      "inputs": [],
      "name": "name",
      "outputs": [
        {
          "internalType": "string",
          "name": "",
          "type": "string"
        }
      ],
      "stateMutability": "view",
      "type": "function"
    },
    {
      "inputs": [],
      "name": "owner",
      "outputs": [
        {
          "internalType": "address",
          "name": "",
          "type": "address"
        }
      ],
      "stateMutability": "view",
      "type": "function"
    },
    {
      "inputs": [
        {
          "internalType": "uint256",
          "name": "tokenId",
          "type": "uint256"
        }
      ],
      "name": "ownerOf",
      "outputs": [
        {
          "internalType": "address",
          "name": "",
          "type": "address"
        }
      ],
      "stateMutability": "view",
      "type": "function"
    },
    {
      "inputs": [
        {
          "internalType": "address",
          "name": "wallet",
          "type": "address"
        }
      ],
      "name": "removeFromWhitelist",
      "outputs": [],
      "stateMutability": "nonpayable",
      "type": "function"
    },
    {
      "inputs": [],
      "name": "renounceOwnership",
      "outputs": [],
      "stateMutability": "nonpayable",
      "type": "function"
    },
    {
      "inputs": [
        {
          "internalType": "address",
          "name": "wallet",
          "type": "address"
        }
      ],
      "name": "resetWalletMintCount",
      "outputs": [],
      "stateMutability": "nonpayable",
      "type": "function"
    },
    {
      "inputs": [],
      "name": "royaltyFeeNumerator",
      "outputs": [
        {
          "internalType": "uint96",
          "name": "",
          "type": "uint96"
        }
      ],
      "stateMutability": "view",
      "type": "function"
    },
    {
      "inputs": [
        {
          "internalType": "uint256",
          "name": "tokenId",
          "type": "uint256"
        },
        {
          "internalType": "uint256",
          "name": "salePrice",
          "type": "uint256"
        }
      ],
      "name": "royaltyInfo",
      "outputs": [
        {
          "internalType": "address",
          "name": "receiver",
          "type": "address"
        },
        {
          "internalType": "uint256",
          "name": "royaltyAmount",
          "type": "uint256"
        }
      ],
      "stateMutability": "view",
      "type": "function"
    },
    {
      "inputs": [],
      "name": "royaltyReceiver",
      "outputs": [
        {
          "internalType": "address",
          "name": "",
          "type": "address"
        }
      ],
      "stateMutability": "view",
      "type": "function"
    },
    {
      "inputs": [
        {
          "internalType": "address",
          "name": "from",
          "type": "address"
        },
        {
          "internalType": "address",
          "name": "to",
          "type": "address"
        },
        {
          "internalType": "uint256",
          "name": "tokenId",
          "type": "uint256"
        }
      ],
      "name": "safeTransferFrom",
      "outputs": [],
      "stateMutability": "nonpayable",
      "type": "function"
    },
    {
      "inputs": [
        {
          "internalType": "address",
          "name": "from",
          "type": "address"
        },
        {
          "internalType": "address",
          "name": "to",
          "type": "address"
        },
        {
          "internalType": "uint256",
          "name": "tokenId",
          "type": "uint256"
        },
        {
          "internalType": "bytes",
          "name": "data",
          "type": "bytes"
        }
      ],
      "name": "safeTransferFrom",
      "outputs": [],
      "stateMutability": "nonpayable",
      "type": "function"
    },
    {
      "inputs": [
        {
          "internalType": "address",
          "name": "operator",
          "type": "address"
        },
        {
          "internalType": "bool",
          "name": "approved",
          "type": "bool"
        }
      ],
      "name": "setApprovalForAll",
      "outputs": [],
      "stateMutability": "nonpayable",
      "type": "function"
    },
    {
      "inputs": [
        {
          "internalType": "string",
          "name": "uri",
          "type": "string"
        }
      ],
      "name": "setBaseURI",
      "outputs": [],
      "stateMutability": "nonpayable",
      "type": "function"
    },
    {
      "inputs": [
        {
          "internalType": "uint256",
          "name": "newLimit",
          "type": "uint256"
        }
      ],
      "name": "setMaxMintPerWallet",
      "outputs": [],
      "stateMutability": "nonpayable",
      "type": "function"
    },
    {
      "inputs": [
        {
          "internalType": "address",
          "name": "receiver",
          "type": "address"
        },
        {
          "internalType": "uint96",
          "name": "feeNumerator",
          "type": "uint96"
        }
      ],
      "name": "setRoyaltyInfo",
      "outputs": [],
      "stateMutability": "nonpayable",
      "type": "function"
    },
    {
      "inputs": [
        {
          "internalType": "bool",
          "name": "enabled",
          "type": "bool"
        }
      ],
      "name": "setWhitelistEnabled",
      "outputs": [],
      "stateMutability": "nonpayable",
      "type": "function"
    },
    {
      "inputs": [
        {
          "internalType": "bytes4",
          "name": "interfaceId",
          "type": "bytes4"
        }
      ],
      "name": "supportsInterface",
      "outputs": [
        {
          "internalType": "bool",
          "name": "",
          "type": "bool"
        }
      ],
      "stateMutability": "view",
      "type": "function"
    },
    {
      "inputs": [],
      "name": "symbol",
      "outputs": [
        {
          "internalType": "string",
          "name": "",
          "type": "string"
        }
      ],
      "stateMutability": "view",
      "type": "function"
    },
    {
      "inputs": [
        {
          "internalType": "uint256",
          "name": "index",
          "type": "uint256"
        }
      ],
      "name": "tokenByIndex",
      "outputs": [
        {
          "internalType": "uint256",
          "name": "",
          "type": "uint256"
        }
      ],
      "stateMutability": "view",
      "type": "function"
    },
    {
      "inputs": [
        {
          "internalType": "address",
          "name": "owner",
          "type": "address"
        },
        {
          "internalType": "uint256",
          "name": "index",
          "type": "uint256"
        }
      ],
      "name": "tokenOfOwnerByIndex",
      "outputs": [
        {
          "internalType": "uint256",
          "name": "",
          "type": "uint256"
        }
      ],
      "stateMutability": "view",
      "type": "function"
    },
    {
      "inputs": [
        {
          "internalType": "uint256",
          "name": "tokenId",
          "type": "uint256"
        }
      ],
      "name": "tokenURI",
      "outputs": [
        {
          "internalType": "string",
          "name": "",
          "type": "string"
        }
      ],
      "stateMutability": "view",
      "type": "function"
    },
    {
      "inputs": [],
      "name": "totalSupply",
      "outputs": [
        {
          "internalType": "uint256",
          "name": "",
          "type": "uint256"
        }
      ],
      "stateMutability": "view",
      "type": "function"
    },
    {
      "inputs": [
        {
          "internalType": "address",
          "name": "from",
          "type": "address"
        },
        {
          "internalType": "address",
          "name": "to",
          "type": "address"
        },
        {
          "internalType": "uint256",
          "name": "tokenId",
          "type": "uint256"
        }
      ],
      "name": "transferFrom",
      "outputs": [],
      "stateMutability": "nonpayable",
      "type": "function"
    },
    {
      "inputs": [
        {
          "internalType": "address",
          "name": "newOwner",
          "type": "address"
        }
      ],
      "name": "transferOwnership",
      "outputs": [],
      "stateMutability": "nonpayable",
      "type": "function"
    },
    {
      "inputs": [
        {
          "internalType": "address",
          "name": "",
          "type": "address"
        }
      ],
      "name": "walletMintCount",
      "outputs": [
        {
          "internalType": "uint256",
          "name": "",
          "type": "uint256"
        }
      ],
      "stateMutability": "view",
      "type": "function"
    },
    {
      "inputs": [
        {
          "internalType": "address",
          "name": "",
          "type": "address"
        }
      ],
      "name": "whitelist",
      "outputs": [
        {
          "internalType": "bool",
          "name": "",
          "type": "bool"
        }
      ],
      "stateMutability": "view",
      "type": "function"
    },
    {
      "inputs": [],
      "name": "whitelistEnabled",
      "outputs": [
        {
          "internalType": "bool",
          "name": "",
          "type": "bool"
        }
      ],
      "stateMutability": "view",
      "type": "function"
    }
  ],
  "bytecode": "0x60806040526005600d556000600f60006101000a81548160ff0219169083151502179055503480156200003157600080fd5b5060405162004fb738038062004fb783398181016040528101906200005791906200043d565b848481600090816200006a91906200076d565b5080600190816200007c91906200076d565b5050506200009f620000936200012e60201b60201c565b6200013660201b60201c565b82600c9081620000b091906200076d565b5081601160006101000a81548173ffffffffffffffffffffffffffffffffffffffff021916908373ffffffffffffffffffffffffffffffffffffffff16021790555080601160146101000a8154816bffffffffffffffffffffffff02191690836bffffffffffffffffffffffff160217905550505050505062000854565b600033905090565b6000600a60009054906101000a900473ffffffffffffffffffffffffffffffffffffffff16905081600a60006101000a81548173ffffffffffffffffffffffffffffffffffffffff021916908373ffffffffffffffffffffffffffffffffffffffff1602179055508173ffffffffffffffffffffffffffffffffffffffff168173ffffffffffffffffffffffffffffffffffffffff167f8be0079c531659141344cd1fd0a4f28419497f9722a3daafe3b4186f6b6457e060405160405180910390a35050565b6000604051905090565b600080fd5b600080fd5b600080fd5b600080fd5b6000601f19601f8301169050919050565b7f4e487b7100000000000000000000000000000000000000000000000000000000600052604160045260246000fd5b62000265826200021a565b810181811067ffffffffffffffff821117156200028757620002866200022b565b5b80604052505050565b60006200029c620001fc565b9050620002aa82826200025a565b919050565b600067ffffffffffffffff821115620002cd57620002cc6200022b565b5b620002d8826200021a565b9050602081019050919050565b60005b8381101562000305578082015181840152602081019050620002e8565b60008484015250505050565b6000620003286200032284620002af565b62000290565b90508281526020810184848401111562000347576200034662000215565b5b62000354848285620002e5565b509392505050565b600082601f83011262000374576200037362000210565b5b81516200038684826020860162000311565b91505092915050565b600073ffffffffffffffffffffffffffffffffffffffff82169050919050565b6000620003bc826200038f565b9050919050565b620003ce81620003af565b8114620003da57600080fd5b50565b600081519050620003ee81620003c3565b92915050565b60006bffffffffffffffffffffffff82169050919050565b6200041781620003f4565b81146200042357600080fd5b50565b60008151905062000437816200040c565b92915050565b600080600080600060a086880312156200045c576200045b62000206565b5b600086015167ffffffffffffffff8111156200047d576200047c6200020b565b5b6200048b888289016200035c565b955050602086015167ffffffffffffffff811115620004af57620004ae6200020b565b5b620004bd888289016200035c565b945050604086015167ffffffffffffffff811115620004e157620004e06200020b565b5b620004ef888289016200035c565b93505060606200050288828901620003dd565b9250506080620005158882890162000426565b9150509295509295909350565b600081519050919050565b7f4e487b7100000000000000000000000000000000000000000000000000000000600052602260045260246000fd5b600060028204905060018216806200057557607f821691505b6020821081036200058b576200058a6200052d565b5b50919050565b60008190508160005260206000209050919050565b60006020601f8301049050919050565b600082821b905092915050565b600060088302620005f57fffffffffffffffffffffffffffffffffffffffffffffffffffffffffffffffff82620005b6565b620006018683620005b6565b95508019841693508086168417925050509392505050565b6000819050919050565b6000819050919050565b60006200064e62000648620006428462000619565b62000623565b62000619565b9050919050565b6000819050919050565b6200066a836200062d565b62000682620006798262000655565b848454620005c3565b825550505050565b600090565b620006996200068a565b620006a68184846200065f565b505050565b5b81811015620006ce57620006c26000826200068f565b600181019050620006ac565b5050565b601f8211156200071d57620006e78162000591565b620006f284620005a6565b8101602085101562000702578190505b6200071a6200071185620005a6565b830182620006ab565b50505b505050565b600082821c905092915050565b6000620007426000198460080262000722565b1980831691505092915050565b60006200075d83836200072f565b9150826002028217905092915050565b620007788262000522565b67ffffffffffffffff8111156200079457620007936200022b565b5b620007a082546200055c565b620007ad828285620006d2565b600060209050601f831160018114620007e55760008415620007d0578287015190505b620007dc85826200074f565b8655506200084c565b601f198416620007f58662000591565b60005b828110156200081f57848901518255600182019150602085019450602081019050620007f8565b868310156200083f57848901516200083b601f8916826200072f565b8355505b6001600288020188555050505b505050505050565b61475380620008646000396000f3fe608060405234801561001057600080fd5b506004361061023d5760003560e01c806370a082311161013b578063a6177139116100b8578063c87b56dd1161007c578063c87b56dd146106ed578063e43252d71461071d578063e985e9c514610739578063eedf1ff714610769578063f2fde38b146107855761023d565b8063a61771391461064b578063afdf613414610667578063b228d92514610683578063b88d4fde146106a1578063c2ba4744146106bd5761023d565b806393ecb0c6116100ff57806393ecb0c61461059357806395d89b41146105c35780639b19251a146105e15780639fbc871314610611578063a22cb4651461062f5761023d565b806370a0823114610501578063715018a61461053157806381ddcc1f1461053b5780638ab1d681146105595780638da5cb5b146105755761023d565b806323b872dd116101c9578063449a52f81161018d578063449a52f81461044b5780634f6ccce71461046757806351fb012d1461049757806355f804b3146104b55780636352211e146104d15761023d565b806323b872dd146103825780632a55205a1461039e5780632f745c59146103cf5780633af32abf146103ff57806342842e0e1461042f5761023d565b8063081812fc11610210578063081812fc146102c8578063095ea7b3146102f8578063110f28d8146103145780631249c58b1461034657806318160ddd146103645761023d565b806301ffc9a71461024257806302fa7c4714610272578063052d9e7e1461028e57806306fdde03146102aa575b600080fd5b61025c60048036038101906102579190612f22565b6107a1565b6040516102699190612f6a565b60405180910390f35b61028c60048036038101906102879190613027565b61081b565b005b6102a860048036038101906102a39190613093565b610925565b005b6102b2610981565b6040516102bf9190613150565b60405180910390f35b6102e260048036038101906102dd91906131a8565b610a13565b6040516102ef91906131e4565b60405180910390f35b610312600480360381019061030d91906131ff565b610a59565b005b61032e6004803603810190610329919061323f565b610b70565b60405161033d9392919061327b565b60405180910390f35b61034e610c2e565b60405161035b91906132b2565b60405180910390f35b61036c610dd3565b60405161037991906132b2565b60405180910390f35b61039c600480360381019061039791906132cd565b610de4565b005b6103b860048036038101906103b39190613320565b610e44565b6040516103c6929190613360565b60405180910390f35b6103e960048036038101906103e491906131ff565b610eb6565b6040516103f691906132b2565b60405180910390f35b6104196004803603810190610414919061323f565b610f5b565b6040516104269190612f6a565b60405180910390f35b610449600480360381019061044491906132cd565b610fb1565b005b610465600480360381019061046091906131ff565b610fd1565b005b610481600480360381019061047c91906131a8565b61101f565b60405161048e91906132b2565b60405180910390f35b61049f611090565b6040516104ac9190612f6a565b60405180910390f35b6104cf60048036038101906104ca91906134be565b6110a3565b005b6104eb60048036038101906104e691906131a8565b6110be565b6040516104f891906131e4565b60405180910390f35b61051b6004803603810190610516919061323f565b611144565b60405161052891906132b2565b60405180910390f35b6105396111fb565b005b61054361120f565b6040516105509190613516565b60405180910390f35b610573600480360381019061056e919061323f565b61122d565b005b61057d6112df565b60405161058a91906131e4565b60405180910390f35b6105ad60048036038101906105a8919061323f565b611309565b6040516105ba91906132b2565b60405180910390f35b6105cb611321565b6040516105d89190613150565b60405180910390f35b6105fb60048036038101906105f6919061323f565b6113b3565b6040516106089190612f6a565b60405180910390f35b6106196113d3565b60405161062691906131e4565b60405180910390f35b61064960048036038101906106449190613531565b6113f9565b005b610665600480360381019061066091906135d1565b61140f565b005b610681600480360381019061067c91906131a8565b611532565b005b61068b61157b565b60405161069891906132b2565b60405180910390f35b6106bb60048036038101906106b691906136bf565b611581565b005b6106d760048036038101906106d2919061323f565b6115e3565b6040516106e49190612f6a565b60405180910390f35b610707600480360381019061070291906131a8565b6116a5565b6040516107149190613150565b60405180910390f35b6107376004803603810190610732919061323f565b61170d565b005b610753600480360381019061074e9190613742565b6117bf565b6040516107609190612f6a565b60405180910390f35b610783600480360381019061077e919061323f565b611853565b005b61079f600480360381019061079a919061323f565b6118a3565b005b60007f2a55205a000000000000000000000000000000000000000000000000000000007bffffffffffffffffffffffffffffffffffffffffffffffffffffffff1916827bffffffffffffffffffffffffffffffffffffffffffffffffffffffff19161480610814575061081382611926565b5b9050919050565b6108236119a0565b6103e8816bffffffffffffffffffffffff161115610876576040517f08c379a000000000000000000000000000000000000000000000000000000000815260040161086d906137ce565b60405180910390fd5b81601160006101000a81548173ffffffffffffffffffffffffffffffffffffffff021916908373ffffffffffffffffffffffffffffffffffffffff16021790555080601160146101000a8154816bffffffffffffffffffffffff02191690836bffffffffffffffffffffffff1602179055507f8039bd6e4e7dba001c8840eb2e118d9d131246faa7d0d04335f7305127ec0b1082826040516109199291906137ee565b60405180910390a15050565b61092d6119a0565b80600f60006101000a81548160ff0219169083151502179055507f9bea0dd3cae4438dc4c54c3110002aedc380f4075b6edae73ae0536105a2008a816040516109769190612f6a565b60405180910390a150565b60606000805461099090613846565b80601f01602080910402602001604051908101604052809291908181526020018280546109bc90613846565b8015610a095780601f106109de57610100808354040283529160200191610a09565b820191906000526020600020905b8154815290600101906020018083116109ec57829003601f168201915b5050505050905090565b6000610a1e82611a1e565b6004600083815260200190815260200160002060009054906101000a900473ffffffffffffffffffffffffffffffffffffffff169050919050565b6000610a64826110be565b90508073ffffffffffffffffffffffffffffffffffffffff168373ffffffffffffffffffffffffffffffffffffffff1603610ad4576040517f08c379a0000000000000000000000000000000000000000000000000000000008152600401610acb906138e9565b60405180910390fd5b8073ffffffffffffffffffffffffffffffffffffffff16610af3611a69565b73ffffffffffffffffffffffffffffffffffffffff161480610b225750610b2181610b1c611a69565b6117bf565b5b610b61576040517f08c379a0000000000000000000000000000000000000000000000000000000008152600401610b589061397b565b60405180910390fd5b610b6b8383611a71565b505050565b6000806000600e60008573ffffffffffffffffffffffffffffffffffffffff1673ffffffffffffffffffffffffffffffffffffffff16815260200190815260200160002054925082600d5411610bc7576000610bd6565b82600d54610bd591906139ca565b5b9150601060008573ffffffffffffffffffffffffffffffffffffffff1673ffffffffffffffffffffffffffffffffffffffff16815260200190815260200160002060009054906101000a900460ff1690509193909250565b6000600f60009054906101000a900460ff1615610cd257601060003373ffffffffffffffffffffffffffffffffffffffff1673ffffffffffffffffffffffffffffffffffffffff16815260200190815260200160002060009054906101000a900460ff16610cd1576040517f08c379a0000000000000000000000000000000000000000000000000000000008152600401610cc890613a4a565b60405180910390fd5b5b600d54600e60003373ffffffffffffffffffffffffffffffffffffffff1673ffffffffffffffffffffffffffffffffffffffff1681526020019081526020016000205410610d55576040517f08c379a0000000000000000000000000000000000000000000000000000000008152600401610d4c90613ab6565b60405180910390fd5b6000610d61600b611b2a565b9050610d6d600b611b38565b600e60003373ffffffffffffffffffffffffffffffffffffffff1673ffffffffffffffffffffffffffffffffffffffff1681526020019081526020016000206000815480929190610dbd90613ad6565b9190505550610dcc3382611b4e565b8091505090565b6000610ddf600b611b2a565b905090565b610df5610def611a69565b82611b6c565b610e34576040517f08c379a0000000000000000000000000000000000000000000000000000000008152600401610e2b90613b90565b60405180910390fd5b610e3f838383611c01565b505050565b600080601160009054906101000a900473ffffffffffffffffffffffffffffffffffffffff169150612710601160149054906101000a90046bffffffffffffffffffffffff166bffffffffffffffffffffffff1684610ea39190613bb0565b610ead9190613c21565b90509250929050565b6000610ec183611144565b8210610f02576040517f08c379a0000000000000000000000000000000000000000000000000000000008152600401610ef990613cc4565b60405180910390fd5b600660008473ffffffffffffffffffffffffffffffffffffffff1673ffffffffffffffffffffffffffffffffffffffff168152602001908152602001600020600083815260200190815260200160002054905092915050565b6000601060008373ffffffffffffffffffffffffffffffffffffffff1673ffffffffffffffffffffffffffffffffffffffff16815260200190815260200160002060009054906101000a900460ff169050919050565b610fcc83838360405180602001604052806000815250611581565b505050565b610fd96119a0565b60005b8181101561101a576000610ff0600b611b2a565b9050610ffc600b611b38565b6110068482611b4e565b50808061101290613ad6565b915050610fdc565b505050565b6000611029611efa565b821061106a576040517f08c379a000000000000000000000000000000000000000000000000000000000815260040161106190613d56565b60405180910390fd5b6008828154811061107e5761107d613d76565b5b90600052602060002001549050919050565b600f60009054906101000a900460ff1681565b6110ab6119a0565b80600c90816110ba9190613f51565b5050565b6000806110ca83611f07565b9050600073ffffffffffffffffffffffffffffffffffffffff168173ffffffffffffffffffffffffffffffffffffffff160361113b576040517f08c379a00000000000000000000000000000000000000000000000000000000081526004016111329061406f565b60405180910390fd5b80915050919050565b60008073ffffffffffffffffffffffffffffffffffffffff168273ffffffffffffffffffffffffffffffffffffffff16036111b4576040517f08c379a00000000000000000000000000000000000000000000000000000000081526004016111ab90614101565b60405180910390fd5b600360008373ffffffffffffffffffffffffffffffffffffffff1673ffffffffffffffffffffffffffffffffffffffff168152602001908152602001600020549050919050565b6112036119a0565b61120d6000611f44565b565b601160149054906101000a90046bffffffffffffffffffffffff1681565b6112356119a0565b6000601060008373ffffffffffffffffffffffffffffffffffffffff1673ffffffffffffffffffffffffffffffffffffffff16815260200190815260200160002060006101000a81548160ff0219169083151502179055508073ffffffffffffffffffffffffffffffffffffffff167ff93f9a76c1bf3444d22400a00cb9fe990e6abe9dbb333fda48859cfee864543d60006040516112d49190612f6a565b60405180910390a250565b6000600a60009054906101000a900473ffffffffffffffffffffffffffffffffffffffff16905090565b600e6020528060005260406000206000915090505481565b60606001805461133090613846565b80601f016020809104026020016040519081016040528092919081815260200182805461135c90613846565b80156113a95780601f1061137e576101008083540402835291602001916113a9565b820191906000526020600020905b81548152906001019060200180831161138c57829003601f168201915b5050505050905090565b60106020528060005260406000206000915054906101000a900460ff1681565b601160009054906101000a900473ffffffffffffffffffffffffffffffffffffffff1681565b61140b611404611a69565b838361200a565b5050565b6114176119a0565b60005b8282905081101561152d5760016010600085858581811061143e5761143d613d76565b5b9050602002016020810190611453919061323f565b73ffffffffffffffffffffffffffffffffffffffff1673ffffffffffffffffffffffffffffffffffffffff16815260200190815260200160002060006101000a81548160ff0219169083151502179055508282828181106114b7576114b6613d76565b5b90506020020160208101906114cc919061323f565b73ffffffffffffffffffffffffffffffffffffffff167ff93f9a76c1bf3444d22400a00cb9fe990e6abe9dbb333fda48859cfee864543d60016040516115129190612f6a565b60405180910390a2808061152590613ad6565b91505061141a565b505050565b61153a6119a0565b80600d819055507fa70551d77839af8d46672cc5a1e4fc3a1b08e9e3cc87239c10d705a80baf938c8160405161157091906132b2565b60405180910390a150565b600d5481565b61159261158c611a69565b83611b6c565b6115d1576040517f08c379a00000000000000000000000000000000000000000000000000000000081526004016115c890613b90565b60405180910390fd5b6115dd84848484612176565b50505050565b6000600f60009054906101000a900460ff16801561164b5750601060008373ffffffffffffffffffffffffffffffffffffffff1673ffffffffffffffffffffffffffffffffffffffff16815260200190815260200160002060009054906101000a900460ff16155b1561165957600090506116a0565b600d54600e60008473ffffffffffffffffffffffffffffffffffffffff1673ffffffffffffffffffffffffffffffffffffffff168152602001908152602001600020541090505b919050565b60606116b082611a1e565b60006116ba6121d2565b905060008151116116da5760405180602001604052806000815250611705565b806116e484612264565b6040516020016116f592919061415d565b6040516020818303038152906040525b915050919050565b6117156119a0565b6001601060008373ffffffffffffffffffffffffffffffffffffffff1673ffffffffffffffffffffffffffffffffffffffff16815260200190815260200160002060006101000a81548160ff0219169083151502179055508073ffffffffffffffffffffffffffffffffffffffff167ff93f9a76c1bf3444d22400a00cb9fe990e6abe9dbb333fda48859cfee864543d60016040516117b49190612f6a565b60405180910390a250565b6000600560008473ffffffffffffffffffffffffffffffffffffffff1673ffffffffffffffffffffffffffffffffffffffff16815260200190815260200160002060008373ffffffffffffffffffffffffffffffffffffffff1673ffffffffffffffffffffffffffffffffffffffff16815260200190815260200160002060009054906101000a900460ff16905092915050565b61185b6119a0565b6000600e60008373ffffffffffffffffffffffffffffffffffffffff1673ffffffffffffffffffffffffffffffffffffffff1681526020019081526020016000208190555050565b6118ab6119a0565b600073ffffffffffffffffffffffffffffffffffffffff168173ffffffffffffffffffffffffffffffffffffffff160361191a576040517f08c379a0000000000000000000000000000000000000000000000000000000008152600401611911906141f3565b60405180910390fd5b61192381611f44565b50565b60007f780e9d63000000000000000000000000000000000000000000000000000000007bffffffffffffffffffffffffffffffffffffffffffffffffffffffff1916827bffffffffffffffffffffffffffffffffffffffffffffffffffffffff19161480611999575061199882612332565b5b9050919050565b6119a8611a69565b73ffffffffffffffffffffffffffffffffffffffff166119c66112df565b73ffffffffffffffffffffffffffffffffffffffff1614611a1c576040517f08c379a0000000000000000000000000000000000000000000000000000000008152600401611a139061425f565b60405180910390fd5b565b611a2781612414565b611a66576040517f08c379a0000000000000000000000000000000000000000000000000000000008152600401611a5d9061406f565b60405180910390fd5b50565b600033905090565b816004600083815260200190815260200160002060006101000a81548173ffffffffffffffffffffffffffffffffffffffff021916908373ffffffffffffffffffffffffffffffffffffffff160217905550808273ffffffffffffffffffffffffffffffffffffffff16611ae4836110be565b73ffffffffffffffffffffffffffffffffffffffff167f8c5be1e5ebec7d5bd14f71427d1e84f3dd0314c0f7b2291e5b200ac8c7c3b92560405160405180910390a45050565b600081600001549050919050565b6001816000016000828254019250508190555050565b611b68828260405180602001604052806000815250612455565b5050565b600080611b78836110be565b90508073ffffffffffffffffffffffffffffffffffffffff168473ffffffffffffffffffffffffffffffffffffffff161480611bba5750611bb981856117bf565b5b80611bf857508373ffffffffffffffffffffffffffffffffffffffff16611be084610a13565b73ffffffffffffffffffffffffffffffffffffffff16145b91505092915050565b8273ffffffffffffffffffffffffffffffffffffffff16611c21826110be565b73ffffffffffffffffffffffffffffffffffffffff1614611c77576040517f08c379a0000000000000000000000000000000000000000000000000000000008152600401611c6e906142f1565b60405180910390fd5b600073ffffffffffffffffffffffffffffffffffffffff168273ffffffffffffffffffffffffffffffffffffffff1603611ce6576040517f08c379a0000000000000000000000000000000000000000000000000000000008152600401611cdd90614383565b60405180910390fd5b611cf383838360016124b0565b8273ffffffffffffffffffffffffffffffffffffffff16611d13826110be565b73ffffffffffffffffffffffffffffffffffffffff1614611d69576040517f08c379a0000000000000000000000000000000000000000000000000000000008152600401611d60906142f1565b60405180910390fd5b6004600082815260200190815260200160002060006101000a81549073ffffffffffffffffffffffffffffffffffffffff02191690556001600360008573ffffffffffffffffffffffffffffffffffffffff1673ffffffffffffffffffffffffffffffffffffffff168152602001908152602001600020600082825403925050819055506001600360008473ffffffffffffffffffffffffffffffffffffffff1673ffffffffffffffffffffffffffffffffffffffff16815260200190815260200160002060008282540192505081905550816002600083815260200190815260200160002060006101000a81548173ffffffffffffffffffffffffffffffffffffffff021916908373ffffffffffffffffffffffffffffffffffffffff160217905550808273ffffffffffffffffffffffffffffffffffffffff168473ffffffffffffffffffffffffffffffffffffffff167fddf252ad1be2c89b69c2b068fc378daa952ba7f163c4a11628f55a4df523b3ef60405160405180910390a4611ef583838360016124c2565b505050565b6000600880549050905090565b60006002600083815260200190815260200160002060009054906101000a900473ffffffffffffffffffffffffffffffffffffffff169050919050565b6000600a60009054906101000a900473ffffffffffffffffffffffffffffffffffffffff16905081600a60006101000a81548173ffffffffffffffffffffffffffffffffffffffff021916908373ffffffffffffffffffffffffffffffffffffffff1602179055508173ffffffffffffffffffffffffffffffffffffffff168173ffffffffffffffffffffffffffffffffffffffff167f8be0079c531659141344cd1fd0a4f28419497f9722a3daafe3b4186f6b6457e060405160405180910390a35050565b8173ffffffffffffffffffffffffffffffffffffffff168373ffffffffffffffffffffffffffffffffffffffff1603612078576040517f08c379a000000000000000000000000000000000000000000000000000000000815260040161206f906143ef565b60405180910390fd5b80600560008573ffffffffffffffffffffffffffffffffffffffff1673ffffffffffffffffffffffffffffffffffffffff16815260200190815260200160002060008473ffffffffffffffffffffffffffffffffffffffff1673ffffffffffffffffffffffffffffffffffffffff16815260200190815260200160002060006101000a81548160ff0219169083151502179055508173ffffffffffffffffffffffffffffffffffffffff168373ffffffffffffffffffffffffffffffffffffffff167f17307eab39ab6107e8899845ad3d59bd9653f200f220920489ca2b5937696c31836040516121699190612f6a565b60405180910390a3505050565b612181848484611c01565b61218d848484846124c8565b6121cc576040517f08c379a00000000000000000000000000000000000000000000000000000000081526004016121c390614481565b60405180910390fd5b50505050565b6060600c80546121e190613846565b80601f016020809104026020016040519081016040528092919081815260200182805461220d90613846565b801561225a5780601f1061222f5761010080835404028352916020019161225a565b820191906000526020600020905b81548152906001019060200180831161223d57829003601f168201915b5050505050905090565b6060600060016122738461264f565b01905060008167ffffffffffffffff81111561229257612291613393565b5b6040519080825280601f01601f1916602001820160405280156122c45781602001600182028036833780820191505090505b509050600082602001820190505b600115612327578080600190039150507f3031323334353637383961626364656600000000000000000000000000000000600a86061a8153600a858161231b5761231a613bf2565b5b049450600085036122d2575b819350505050919050565b60007f80ac58cd000000000000000000000000000000000000000000000000000000007bffffffffffffffffffffffffffffffffffffffffffffffffffffffff1916827bffffffffffffffffffffffffffffffffffffffffffffffffffffffff191614806123fd57507f5b5e139f000000000000000000000000000000000000000000000000000000007bffffffffffffffffffffffffffffffffffffffffffffffffffffffff1916827bffffffffffffffffffffffffffffffffffffffffffffffffffffffff1916145b8061240d575061240c826127a2565b5b9050919050565b60008073ffffffffffffffffffffffffffffffffffffffff1661243683611f07565b73ffffffffffffffffffffffffffffffffffffffff1614159050919050565b61245f838361280c565b61246c60008484846124c8565b6124ab576040517f08c379a00000000000000000000000000000000000000000000000000000000081526004016124a290614481565b60405180910390fd5b505050565b6124bc84848484612a29565b50505050565b50505050565b60006124e98473ffffffffffffffffffffffffffffffffffffffff16612b87565b15612642578373ffffffffffffffffffffffffffffffffffffffff1663150b7a02612512611a69565b8786866040518563ffffffff1660e01b815260040161253494939291906144f6565b6020604051808303816000875af192505050801561257057506040513d601f19601f8201168201806040525081019061256d9190614557565b60015b6125f2573d80600081146125a0576040519150601f19603f3d011682016040523d82523d6000602084013e6125a5565b606091505b5060008151036125ea576040517f08c379a00000000000000000000000000000000000000000000000000000000081526004016125e190614481565b60405180910390fd5b805181602001fd5b63150b7a0260e01b7bffffffffffffffffffffffffffffffffffffffffffffffffffffffff1916817bffffffffffffffffffffffffffffffffffffffffffffffffffffffff191614915050612647565b600190505b949350505050565b600080600090507a184f03e93ff9f4daa797ed6e38ed64bf6a1f01000000000000000083106126ad577a184f03e93ff9f4daa797ed6e38ed64bf6a1f01000000000000000083816126a3576126a2613bf2565b5b0492506040810190505b6d04ee2d6d415b85acef810000000083106126ea576d04ee2d6d415b85acef810000000083816126e0576126df613bf2565b5b0492506020810190505b662386f26fc10000831061271957662386f26fc10000838161270f5761270e613bf2565b5b0492506010810190505b6305f5e1008310612742576305f5e100838161273857612737613bf2565b5b0492506008810190505b612710831061276757612710838161275d5761275c613bf2565b5b0492506004810190505b6064831061278a57606483816127805761277f613bf2565b5b0492506002810190505b600a8310612799576001810190505b80915050919050565b60007f01ffc9a7000000000000000000000000000000000000000000000000000000007bffffffffffffffffffffffffffffffffffffffffffffffffffffffff1916827bffffffffffffffffffffffffffffffffffffffffffffffffffffffff1916149050919050565b600073ffffffffffffffffffffffffffffffffffffffff168273ffffffffffffffffffffffffffffffffffffffff160361287b576040517f08c379a0000000000000000000000000000000000000000000000000000000008152600401612872906145d0565b60405180910390fd5b61288481612414565b156128c4576040517f08c379a00000000000000000000000000000000000000000000000000000000081526004016128bb9061463c565b60405180910390fd5b6128d26000838360016124b0565b6128db81612414565b1561291b576040517f08c379a00000000000000000000000000000000000000000000000000000000081526004016129129061463c565b60405180910390fd5b6001600360008473ffffffffffffffffffffffffffffffffffffffff1673ffffffffffffffffffffffffffffffffffffffff16815260200190815260200160002060008282540192505081905550816002600083815260200190815260200160002060006101000a81548173ffffffffffffffffffffffffffffffffffffffff021916908373ffffffffffffffffffffffffffffffffffffffff160217905550808273ffffffffffffffffffffffffffffffffffffffff16600073ffffffffffffffffffffffffffffffffffffffff167fddf252ad1be2c89b69c2b068fc378daa952ba7f163c4a11628f55a4df523b3ef60405160405180910390a4612a256000838360016124c2565b5050565b612a3584848484612baa565b6001811115612a79576040517f08c379a0000000000000000000000000000000000000000000000000000000008152600401612a70906146ce565b60405180910390fd5b6000829050600073ffffffffffffffffffffffffffffffffffffffff168573ffffffffffffffffffffffffffffffffffffffff1603612ac057612abb81612bb0565b612aff565b8373ffffffffffffffffffffffffffffffffffffffff168573ffffffffffffffffffffffffffffffffffffffff1614612afe57612afd8582612bf9565b5b5b600073ffffffffffffffffffffffffffffffffffffffff168473ffffffffffffffffffffffffffffffffffffffff1603612b4157612b3c81612d66565b612b80565b8473ffffffffffffffffffffffffffffffffffffffff168473ffffffffffffffffffffffffffffffffffffffff1614612b7f57612b7e8482612e37565b5b5b5050505050565b6000808273ffffffffffffffffffffffffffffffffffffffff163b119050919050565b50505050565b6008805490506009600083815260200190815260200160002081905550600881908060018154018082558091505060019003906000526020600020016000909190919091505550565b60006001612c0684611144565b612c1091906139ca565b9050600060076000848152602001908152602001600020549050818114612cf5576000600660008673ffffffffffffffffffffffffffffffffffffffff1673ffffffffffffffffffffffffffffffffffffffff168152602001908152602001600020600084815260200190815260200160002054905080600660008773ffffffffffffffffffffffffffffffffffffffff1673ffffffffffffffffffffffffffffffffffffffff168152602001908152602001600020600084815260200190815260200160002081905550816007600083815260200190815260200160002081905550505b6007600084815260200190815260200160002060009055600660008573ffffffffffffffffffffffffffffffffffffffff1673ffffffffffffffffffffffffffffffffffffffff16815260200190815260200160002060008381526020019081526020016000206000905550505050565b60006001600880549050612d7a91906139ca565b9050600060096000848152602001908152602001600020549050600060088381548110612daa57612da9613d76565b5b906000526020600020015490508060088381548110612dcc57612dcb613d76565b5b906000526020600020018190555081600960008381526020019081526020016000208190555060096000858152602001908152602001600020600090556008805480612e1b57612e1a6146ee565b5b6001900381819060005260206000200160009055905550505050565b6000612e4283611144565b905081600660008573ffffffffffffffffffffffffffffffffffffffff1673ffffffffffffffffffffffffffffffffffffffff168152602001908152602001600020600083815260200190815260200160002081905550806007600084815260200190815260200160002081905550505050565b6000604051905090565b600080fd5b600080fd5b60007fffffffff0000000000000000000000000000000000000000000000000000000082169050919050565b612eff81612eca565b8114612f0a57600080fd5b50565b600081359050612f1c81612ef6565b92915050565b600060208284031215612f3857612f37612ec0565b5b6000612f4684828501612f0d565b91505092915050565b60008115159050919050565b612f6481612f4f565b82525050565b6000602082019050612f7f6000830184612f5b565b92915050565b600073ffffffffffffffffffffffffffffffffffffffff82169050919050565b6000612fb082612f85565b9050919050565b612fc081612fa5565b8114612fcb57600080fd5b50565b600081359050612fdd81612fb7565b92915050565b60006bffffffffffffffffffffffff82169050919050565b61300481612fe3565b811461300f57600080fd5b50565b60008135905061302181612ffb565b92915050565b6000806040838503121561303e5761303d612ec0565b5b600061304c85828601612fce565b925050602061305d85828601613012565b9150509250929050565b61307081612f4f565b811461307b57600080fd5b50565b60008135905061308d81613067565b92915050565b6000602082840312156130a9576130a8612ec0565b5b60006130b78482850161307e565b91505092915050565b600081519050919050565b600082825260208201905092915050565b60005b838110156130fa5780820151818401526020810190506130df565b60008484015250505050565b6000601f19601f8301169050919050565b6000613122826130c0565b61312c81856130cb565b935061313c8185602086016130dc565b61314581613106565b840191505092915050565b6000602082019050818103600083015261316a8184613117565b905092915050565b6000819050919050565b61318581613172565b811461319057600080fd5b50565b6000813590506131a28161317c565b92915050565b6000602082840312156131be576131bd612ec0565b5b60006131cc84828501613193565b91505092915050565b6131de81612fa5565b82525050565b60006020820190506131f960008301846131d5565b92915050565b6000806040838503121561321657613215612ec0565b5b600061322485828601612fce565b925050602061323585828601613193565b9150509250929050565b60006020828403121561325557613254612ec0565b5b600061326384828501612fce565b91505092915050565b61327581613172565b82525050565b6000606082019050613290600083018661326c565b61329d602083018561326c565b6132aa6040830184612f5b565b949350505050565b60006020820190506132c7600083018461326c565b92915050565b6000806000606084860312156132e6576132e5612ec0565b5b60006132f486828701612fce565b935050602061330586828701612fce565b925050604061331686828701613193565b9150509250925092565b6000806040838503121561333757613336612ec0565b5b600061334585828601613193565b925050602061335685828601613193565b9150509250929050565b600060408201905061337560008301856131d5565b613382602083018461326c565b9392505050565b600080fd5b600080fd5b7f4e487b7100000000000000000000000000000000000000000000000000000000600052604160045260246000fd5b6133cb82613106565b810181811067ffffffffffffffff821117156133ea576133e9613393565b5b80604052505050565b60006133fd612eb6565b905061340982826133c2565b919050565b600067ffffffffffffffff82111561342957613428613393565b5b61343282613106565b9050602081019050919050565b82818337600083830152505050565b600061346161345c8461340e565b6133f3565b90508281526020810184848401111561347d5761347c61338e565b5b61348884828561343f565b509392505050565b600082601f8301126134a5576134a4613389565b5b81356134b584826020860161344e565b91505092915050565b6000602082840312156134d4576134d3612ec0565b5b600082013567ffffffffffffffff8111156134f2576134f1612ec5565b5b6134fe84828501613490565b91505092915050565b61351081612fe3565b82525050565b600060208201905061352b6000830184613507565b92915050565b6000806040838503121561354857613547612ec0565b5b600061355685828601612fce565b92505060206135678582860161307e565b9150509250929050565b600080fd5b600080fd5b60008083601f84011261359157613590613389565b5b8235905067ffffffffffffffff8111156135ae576135ad613571565b5b6020830191508360208202830111156135ca576135c9613576565b5b9250929050565b600080602083850312156135e8576135e7612ec0565b5b600083013567ffffffffffffffff81111561360657613605612ec5565b5b6136128582860161357b565b92509250509250929050565b600067ffffffffffffffff82111561363957613638613393565b5b61364282613106565b9050602081019050919050565b600061366261365d8461361e565b6133f3565b90508281526020810184848401111561367e5761367d61338e565b5b61368984828561343f565b509392505050565b600082601f8301126136a6576136a5613389565b5b81356136b684826020860161364f565b91505092915050565b600080600080608085870312156136d9576136d8612ec0565b5b60006136e787828801612fce565b94505060206136f887828801612fce565b935050604061370987828801613193565b925050606085013567ffffffffffffffff81111561372a57613729612ec5565b5b61373687828801613691565b91505092959194509250565b6000806040838503121561375957613758612ec0565b5b600061376785828601612fce565b925050602061377885828601612fce565b9150509250929050565b7f526f79616c74792066656520746f6f2068696768000000000000000000000000600082015250565b60006137b86014836130cb565b91506137c382613782565b602082019050919050565b600060208201905081810360008301526137e7816137ab565b9050919050565b600060408201905061380360008301856131d5565b6138106020830184613507565b9392505050565b7f4e487b7100000000000000000000000000000000000000000000000000000000600052602260045260246000fd5b6000600282049050600182168061385e57607f821691505b60208210810361387157613870613817565b5b50919050565b7f4552433732313a20617070726f76616c20746f2063757272656e74206f776e6560008201527f7200000000000000000000000000000000000000000000000000000000000000602082015250565b60006138d36021836130cb565b91506138de82613877565b604082019050919050565b60006020820190508181036000830152613902816138c6565b9050919050565b7f4552433732313a20617070726f76652063616c6c6572206973206e6f7420746f60008201527f6b656e206f776e6572206f7220617070726f76656420666f7220616c6c000000602082015250565b6000613965603d836130cb565b915061397082613909565b604082019050919050565b6000602082019050818103600083015261399481613958565b9050919050565b7f4e487b7100000000000000000000000000000000000000000000000000000000600052601160045260246000fd5b60006139d582613172565b91506139e083613172565b92508282039050818111156139f8576139f761399b565b5b92915050565b7f4e6f7420696e2077686974656c69737400000000000000000000000000000000600082015250565b6000613a346010836130cb565b9150613a3f826139fe565b602082019050919050565b60006020820190508181036000830152613a6381613a27565b9050919050565b7f4578636565646564206d6178206d696e74207065722077616c6c657400000000600082015250565b6000613aa0601c836130cb565b9150613aab82613a6a565b602082019050919050565b60006020820190508181036000830152613acf81613a93565b9050919050565b6000613ae182613172565b91507fffffffffffffffffffffffffffffffffffffffffffffffffffffffffffffffff8203613b1357613b1261399b565b5b600182019050919050565b7f4552433732313a2063616c6c6572206973206e6f7420746f6b656e206f776e6560008201527f72206f7220617070726f76656400000000000000000000000000000000000000602082015250565b6000613b7a602d836130cb565b9150613b8582613b1e565b604082019050919050565b60006020820190508181036000830152613ba981613b6d565b9050919050565b6000613bbb82613172565b9150613bc683613172565b9250828202613bd481613172565b91508282048414831517613beb57613bea61399b565b5b5092915050565b7f4e487b7100000000000000000000000000000000000000000000000000000000600052601260045260246000fd5b6000613c2c82613172565b9150613c3783613172565b925082613c4757613c46613bf2565b5b828204905092915050565b7f455243373231456e756d657261626c653a206f776e657220696e646578206f7560008201527f74206f6620626f756e6473000000000000000000000000000000000000000000602082015250565b6000613cae602b836130cb565b9150613cb982613c52565b604082019050919050565b60006020820190508181036000830152613cdd81613ca1565b9050919050565b7f455243373231456e756d657261626c653a20676c6f62616c20696e646578206f60008201527f7574206f6620626f756e64730000000000000000000000000000000000000000602082015250565b6000613d40602c836130cb565b9150613d4b82613ce4565b604082019050919050565b60006020820190508181036000830152613d6f81613d33565b9050919050565b7f4e487b7100000000000000000000000000000000000000000000000000000000600052603260045260246000fd5b60008190508160005260206000209050919050565b60006020601f8301049050919050565b600082821b905092915050565b600060088302613e077fffffffffffffffffffffffffffffffffffffffffffffffffffffffffffffffff82613dca565b613e118683613dca565b95508019841693508086168417925050509392505050565b6000819050919050565b6000613e4e613e49613e4484613172565b613e29565b613172565b9050919050565b6000819050919050565b613e6883613e33565b613e7c613e7482613e55565b848454613dd7565b825550505050565b600090565b613e91613e84565b613e9c818484613e5f565b505050565b5b81811015613ec057613eb5600082613e89565b600181019050613ea2565b5050565b601f821115613f0557613ed681613da5565b613edf84613dba565b81016020851015613eee578190505b613f02613efa85613dba565b830182613ea1565b50505b505050565b600082821c905092915050565b6000613f2860001984600802613f0a565b1980831691505092915050565b6000613f418383613f17565b9150826002028217905092915050565b613f5a826130c0565b67ffffffffffffffff811115613f7357613f72613393565b5b613f7d8254613846565b613f88828285613ec4565b600060209050601f831160018114613fbb5760008415613fa9578287015190505b613fb38582613f35565b86555061401b565b601f198416613fc986613da5565b60005b82811015613ff157848901518255600182019150602085019450602081019050613fcc565b8683101561400e578489015161400a601f891682613f17565b8355505b6001600288020188555050505b505050505050565b7f4552433732313a20696e76616c696420746f6b656e2049440000000000000000600082015250565b60006140596018836130cb565b915061406482614023565b602082019050919050565b600060208201905081810360008301526140888161404c565b9050919050565b7f4552433732313a2061646472657373207a65726f206973206e6f74206120766160008201527f6c6964206f776e65720000000000000000000000000000000000000000000000602082015250565b60006140eb6029836130cb565b91506140f68261408f565b604082019050919050565b6000602082019050818103600083015261411a816140de565b9050919050565b600081905092915050565b6000614137826130c0565b6141418185614121565b93506141518185602086016130dc565b80840191505092915050565b6000614169828561412c565b9150614175828461412c565b91508190509392505050565b7f4f776e61626c653a206e6577206f776e657220697320746865207a65726f206160008201527f6464726573730000000000000000000000000000000000000000000000000000602082015250565b60006141dd6026836130cb565b91506141e882614181565b604082019050919050565b6000602082019050818103600083015261420c816141d0565b9050919050565b7f4f776e61626c653a2063616c6c6572206973206e6f7420746865206f776e6572600082015250565b60006142496020836130cb565b915061425482614213565b602082019050919050565b600060208201905081810360008301526142788161423c565b9050919050565b7f4552433732313a207472616e736665722066726f6d20696e636f72726563742060008201527f6f776e6572000000000000000000000000000000000000000000000000000000602082015250565b60006142db6025836130cb565b91506142e68261427f565b604082019050919050565b6000602082019050818103600083015261430a816142ce565b9050919050565b7f4552433732313a207472616e7366657220746f20746865207a65726f2061646460008201527f7265737300000000000000000000000000000000000000000000000000000000602082015250565b600061436d6024836130cb565b915061437882614311565b604082019050919050565b6000602082019050818103600083015261439c81614360565b9050919050565b7f4552433732313a20617070726f766520746f2063616c6c657200000000000000600082015250565b60006143d96019836130cb565b91506143e4826143a3565b602082019050919050565b60006020820190508181036000830152614408816143cc565b9050919050565b7f4552433732313a207472616e7366657220746f206e6f6e20455243373231526560008201527f63656976657220696d706c656d656e7465720000000000000000000000000000602082015250565b600061446b6032836130cb565b91506144768261440f565b604082019050919050565b6000602082019050818103600083015261449a8161445e565b9050919050565b600081519050919050565b600082825260208201905092915050565b60006144c8826144a1565b6144d281856144ac565b93506144e28185602086016130dc565b6144eb81613106565b840191505092915050565b600060808201905061450b60008301876131d5565b61451860208301866131d5565b614525604083018561326c565b818103606083015261453781846144bd565b905095945050505050565b60008151905061455181612ef6565b92915050565b60006020828403121561456d5761456c612ec0565b5b600061457b84828501614542565b91505092915050565b7f4552433732313a206d696e7420746f20746865207a65726f2061646472657373600082015250565b60006145ba6020836130cb565b91506145c582614584565b602082019050919050565b600060208201905081810360008301526145e9816145ad565b9050919050565b7f4552433732313a20746f6b656e20616c7265616479206d696e74656400000000600082015250565b6000614626601c836130cb565b9150614631826145f0565b602082019050919050565b6000602082019050818103600083015261465581614619565b9050919050565b7f455243373231456e756d657261626c653a20636f6e736563757469766520747260008201527f616e7366657273206e6f7420737570706f727465640000000000000000000000602082015250565b60006146b86035836130cb565b91506146c38261465c565b604082019050919050565b600060208201905081810360008301526146e7816146ab565b9050919050565b7f4e487b7100000000000000000000000000000000000000000000000000000000600052603160045260246000fdfea26469706673582212203c67175f7d081fa6e8b3c83e2de6aebe42e57de112e8605549acb538e74356b264736f6c63430008130033",
  "linkReferences": {},
  "deployedLinkReferences": {}
}