{
  "_format": "hh-sol-artifact-1",
  "contractName": "SelectableNFT",
  "sourceName": "contracts/SelectableNFT.sol",
  "abi": [
    {
      "inputs": [
        {
          "internalType": "string",
          "name": "name_",
          "type": "string"
        },
        {
          "internalType": "string",
          "name": "symbol_",
          "type": "string"
        },
        {
          "internalType": "string",
          "name": "baseURI_",
          "type": "string"
        }
      ],
      "stateMutability": "nonpayable",
      "type": "constructor"
    },
    {
      "anonymous": false,
      "inputs": [
        {
          "indexed": true,
          "internalType": "address",
          "name": "owner",
          "type": "address"
        },
        {
          "indexed": true,
          "internalType": "address",
          "name": "approved",
          "type": "address"
        },
        {
          "indexed": true,
          "internalType": "uint256",
          "name": "tokenId",
          "type": "uint256"
        }
      ],
      "name": "Approval",
      "type": "event"
    },
    {
      "anonymous": false,
      "inputs": [
        {
          "indexed": true,
          "internalType": "address",
          "name": "owner",
          "type": "address"
        },
        {
          "indexed": true,
          "internalType": "address",
          "name": "operator",
          "type": "address"
        },
        {
          "indexed": false,
          "internalType": "bool",
          "name": "approved",
          "type": "bool"
        }
      ],
      "name": "ApprovalForAll",
      "type": "event"
    },
    {
      "anonymous": false,
      "inputs": [
        {
          "indexed": false,
          "internalType": "uint256[]",
          "name": "tokenIds",
          "type": "uint256[]"
        },
        {
          "indexed": true,
          "internalType": "address",
          "name": "to",
          "type": "address"
        }
      ],
      "name": "BatchMinted",
      "type": "event"
    },
    {
      "anonymous": false,
      "inputs": [
        {
          "indexed": true,
          "internalType": "address",
          "name": "previousOwner",
          "type": "address"
        },
        {
          "indexed": true,
          "internalType": "address",
          "name": "newOwner",
          "type": "address"
        }
      ],
      "name": "OwnershipTransferred",
      "type": "event"
    },
    {
      "anonymous": false,
      "inputs": [
        {
          "indexed": true,
          "internalType": "uint256",
          "name": "tokenId",
          "type": "uint256"
        },
        {
          "indexed": true,
          "internalType": "address",
          "name": "to",
          "type": "address"
        }
      ],
      "name": "TokenMinted",
      "type": "event"
    },
    {
      "anonymous": false,
      "inputs": [
        {
          "indexed": true,
          "internalType": "uint256",
          "name": "tokenId",
          "type": "uint256"
        },
        {
          "indexed": true,
          "internalType": "address",
          "name": "reserver",
          "type": "address"
        }
      ],
      "name": "TokenReserved",
      "type": "event"
    },
    {
      "anonymous": false,
      "inputs": [
        {
          "indexed": true,
          "internalType": "address",
          "name": "from",
          "type": "address"
        },
        {
          "indexed": true,
          "internalType": "address",
          "name": "to",
          "type": "address"
        },
        {
          "indexed": true,
          "internalType": "uint256",
          "name": "tokenId",
          "type": "uint256"
        }
      ],
      "name": "Transfer",
      "type": "event"
    },
    {
      "inputs": [],
      "name": "MAX_MINT_PER_TX",
      "outputs": [
        {
          "internalType": "uint256",
          "name": "",
          "type": "uint256"
        }
      ],
      "stateMutability": "view",
      "type": "function"
    },
    {
      "inputs": [],
      "name": "MAX_SUPPLY",
      "outputs": [
        {
          "internalType": "uint256",
          "name": "",
          "type": "uint256"
        }
      ],
      "stateMutability": "view",
      "type": "function"
    },
    {
      "inputs": [
        {
          "internalType": "address[]",
          "name": "addresses",
          "type": "address[]"
        }
      ],
      "name": "addToWhitelist",
      "outputs": [],
      "stateMutability": "nonpayable",
      "type": "function"
    },
    {
      "inputs": [
        {
          "internalType": "address",
          "name": "to",
          "type": "address"
        },
        {
          "internalType": "uint256",
          "name": "tokenId",
          "type": "uint256"
        }
      ],
      "name": "approve",
      "outputs": [],
      "stateMutability": "nonpayable",
      "type": "function"
    },
    {
      "inputs": [
        {
          "internalType": "address",
          "name": "owner",
          "type": "address"
        }
      ],
      "name": "balanceOf",
      "outputs": [
        {
          "internalType": "uint256",
          "name": "",
          "type": "uint256"
        }
      ],
      "stateMutability": "view",
      "type": "function"
    },
    {
      "inputs": [
        {
          "internalType": "uint256",
          "name": "tokenId",
          "type": "uint256"
        }
      ],
      "name": "getApproved",
      "outputs": [
        {
          "internalType": "address",
          "name": "",
          "type": "address"
        }
      ],
      "stateMutability": "view",
      "type": "function"
    },
    {
      "inputs": [
        {
          "internalType": "uint256",
          "name": "limit",
          "type": "uint256"
        }
      ],
      "name": "getAvailableTokens",
      "outputs": [
        {
          "internalType": "uint256[]",
          "name": "",
          "type": "uint256[]"
        }
      ],
      "stateMutability": "view",
      "type": "function"
    },
    {
      "inputs": [
        {
          "internalType": "address",
          "name": "owner",
          "type": "address"
        },
        {
          "internalType": "address",
          "name": "operator",
          "type": "address"
        }
      ],
      "name": "isApprovedForAll",
      "outputs": [
        {
          "internalType": "bool",
          "name": "",
          "type": "bool"
        }
      ],
      "stateMutability": "view",
      "type": "function"
    },
    {
      "inputs": [
        {
          "internalType": "uint256",
          "name": "tokenId",
          "type": "uint256"
        }
      ],
      "name": "isTokenAvailable",
      "outputs": [
        {
          "internalType": "bool",
          "name": "",
          "type": "bool"
        }
      ],
      "stateMutability": "view",
      "type": "function"
    },
    {
      "inputs": [],
      "name": "maxMintPerWallet",
      "outputs": [
        {
          "internalType": "uint256",
          "name": "",
          "type": "uint256"
        }
      ],
      "stateMutability": "view",
      "type": "function"
    },
    {
      "inputs": [
        {
          "internalType": "uint256",
          "name": "amount",
          "type": "uint256"
        }
      ],
      "name": "mintAmount",
      "outputs": [],
      "stateMutability": "payable",
      "type": "function"
    },
    {
      "inputs": [],
      "name": "mintPrice",
      "outputs": [
        {
          "internalType": "uint256",
          "name": "",
          "type": "uint256"
        }
      ],
      "stateMutability": "view",
      "type": "function"
    },
    {
      "inputs": [
        {
          "internalType": "uint256",
          "name": "tokenId",
          "type": "uint256"
        }
      ],
      "name": "mintReservedToken",
      "outputs": [],
      "stateMutability": "payable",
      "type": "function"
    },
    {
      "inputs": [
        {
          "internalType": "uint256[]",
          "name": "tokenIds",
          "type": "uint256[]"
        }
      ],
      "name": "mintSpecificTokens",
      "outputs": [],
      "stateMutability": "payable",
      "type": "function"
    },
    {
      "inputs": [
        {
          "internalType": "address",
          "name": "",
          "type": "address"
        }
      ],
      "name": "minted",
      "outputs": [
        {
          "internalType": "uint256",
          "name": "",
          "type": "uint256"
        }
      ],
      "stateMutability": "view",
      "type": "function"
    },
    {
      "inputs": [],
      "name": "mintingEnabled",
      "outputs": [
        {
          "internalType": "bool",
          "name": "",
          "type": "bool"
        }
      ],
      "stateMutability": "view",
      "type": "function"
    },
    {
      "inputs": [],
      "name": "name",
      "outputs": [
        {
          "internalType": "string",
          "name": "",
          "type": "string"
        }
      ],
      "stateMutability": "view",
      "type": "function"
    },
    {
      "inputs": [],
      "name": "owner",
      "outputs": [
        {
          "internalType": "address",
          "name": "",
          "type": "address"
        }
      ],
      "stateMutability": "view",
      "type": "function"
    },
    {
      "inputs": [
        {
          "internalType": "uint256",
          "name": "tokenId",
          "type": "uint256"
        }
      ],
      "name": "ownerOf",
      "outputs": [
        {
          "internalType": "address",
          "name": "",
          "type": "address"
        }
      ],
      "stateMutability": "view",
      "type": "function"
    },
    {
      "inputs": [
        {
          "internalType": "address[]",
          "name": "addresses",
          "type": "address[]"
        }
      ],
      "name": "removeFromWhitelist",
      "outputs": [],
      "stateMutability": "nonpayable",
      "type": "function"
    },
    {
      "inputs": [],
      "name": "renounceOwnership",
      "outputs": [],
      "stateMutability": "nonpayable",
      "type": "function"
    },
    {
      "inputs": [
        {
          "internalType": "uint256",
          "name": "tokenId",
          "type": "uint256"
        },
        {
          "internalType": "address",
          "name": "reserver",
          "type": "address"
        }
      ],
      "name": "reserveToken",
      "outputs": [],
      "stateMutability": "nonpayable",
      "type": "function"
    },
    {
      "inputs": [
        {
          "internalType": "uint256",
          "name": "tokenId",
          "type": "uint256"
        },
        {
          "internalType": "uint256",
          "name": "salePrice",
          "type": "uint256"
        }
      ],
      "name": "royaltyInfo",
      "outputs": [
        {
          "internalType": "address",
          "name": "",
          "type": "address"
        },
        {
          "internalType": "uint256",
          "name": "",
          "type": "uint256"
        }
      ],
      "stateMutability": "view",
      "type": "function"
    },
    {
      "inputs": [
        {
          "internalType": "address",
          "name": "from",
          "type": "address"
        },
        {
          "internalType": "address",
          "name": "to",
          "type": "address"
        },
        {
          "internalType": "uint256",
          "name": "tokenId",
          "type": "uint256"
        }
      ],
      "name": "safeTransferFrom",
      "outputs": [],
      "stateMutability": "nonpayable",
      "type": "function"
    },
    {
      "inputs": [
        {
          "internalType": "address",
          "name": "from",
          "type": "address"
        },
        {
          "internalType": "address",
          "name": "to",
          "type": "address"
        },
        {
          "internalType": "uint256",
          "name": "tokenId",
          "type": "uint256"
        },
        {
          "internalType": "bytes",
          "name": "data",
          "type": "bytes"
        }
      ],
      "name": "safeTransferFrom",
      "outputs": [],
      "stateMutability": "nonpayable",
      "type": "function"
    },
    {
      "inputs": [
        {
          "internalType": "address",
          "name": "operator",
          "type": "address"
        },
        {
          "internalType": "bool",
          "name": "approved",
          "type": "bool"
        }
      ],
      "name": "setApprovalForAll",
      "outputs": [],
      "stateMutability": "nonpayable",
      "type": "function"
    },
    {
      "inputs": [
        {
          "internalType": "string",
          "name": "uri",
          "type": "string"
        }
      ],
      "name": "setBaseURI",
      "outputs": [],
      "stateMutability": "nonpayable",
      "type": "function"
    },
    {
      "inputs": [
        {
          "internalType": "uint256",
          "name": "newLimit",
          "type": "uint256"
        }
      ],
      "name": "setMaxMintPerWallet",
      "outputs": [],
      "stateMutability": "nonpayable",
      "type": "function"
    },
    {
      "inputs": [
        {
          "internalType": "uint256",
          "name": "newPrice",
          "type": "uint256"
        }
      ],
      "name": "setMintPrice",
      "outputs": [],
      "stateMutability": "nonpayable",
      "type": "function"
    },
    {
      "inputs": [
        {
          "internalType": "bool",
          "name": "enabled",
          "type": "bool"
        }
      ],
      "name": "setMintingEnabled",
      "outputs": [],
      "stateMutability": "nonpayable",
      "type": "function"
    },
    {
      "inputs": [
        {
          "internalType": "bool",
          "name": "enabled",
          "type": "bool"
        }
      ],
      "name": "setWhitelistEnabled",
      "outputs": [],
      "stateMutability": "nonpayable",
      "type": "function"
    },
    {
      "inputs": [
        {
          "internalType": "bytes4",
          "name": "interfaceId",
          "type": "bytes4"
        }
      ],
      "name": "supportsInterface",
      "outputs": [
        {
          "internalType": "bool",
          "name": "",
          "type": "bool"
        }
      ],
      "stateMutability": "view",
      "type": "function"
    },
    {
      "inputs": [],
      "name": "symbol",
      "outputs": [
        {
          "internalType": "string",
          "name": "",
          "type": "string"
        }
      ],
      "stateMutability": "view",
      "type": "function"
    },
    {
      "inputs": [
        {
          "internalType": "uint256",
          "name": "",
          "type": "uint256"
        }
      ],
      "name": "tokenReserved",
      "outputs": [
        {
          "internalType": "bool",
          "name": "",
          "type": "bool"
        }
      ],
      "stateMutability": "view",
      "type": "function"
    },
    {
      "inputs": [
        {
          "internalType": "uint256",
          "name": "",
          "type": "uint256"
        }
      ],
      "name": "tokenReserver",
      "outputs": [
        {
          "internalType": "address",
          "name": "",
          "type": "address"
        }
      ],
      "stateMutability": "view",
      "type": "function"
    },
    {
      "inputs": [
        {
          "internalType": "uint256",
          "name": "tokenId",
          "type": "uint256"
        }
      ],
      "name": "tokenURI",
      "outputs": [
        {
          "internalType": "string",
          "name": "",
          "type": "string"
        }
      ],
      "stateMutability": "view",
      "type": "function"
    },
    {
      "inputs": [],
      "name": "totalSupply",
      "outputs": [
        {
          "internalType": "uint256",
          "name": "",
          "type": "uint256"
        }
      ],
      "stateMutability": "view",
      "type": "function"
    },
    {
      "inputs": [
        {
          "internalType": "address",
          "name": "from",
          "type": "address"
        },
        {
          "internalType": "address",
          "name": "to",
          "type": "address"
        },
        {
          "internalType": "uint256",
          "name": "tokenId",
          "type": "uint256"
        }
      ],
      "name": "transferFrom",
      "outputs": [],
      "stateMutability": "nonpayable",
      "type": "function"
    },
    {
      "inputs": [
        {
          "internalType": "address",
          "name": "newOwner",
          "type": "address"
        }
      ],
      "name": "transferOwnership",
      "outputs": [],
      "stateMutability": "nonpayable",
      "type": "function"
    },
    {
      "inputs": [
        {
          "internalType": "address",
          "name": "owner",
          "type": "address"
        }
      ],
      "name": "walletOfOwner",
      "outputs": [
        {
          "internalType": "uint256[]",
          "name": "",
          "type": "uint256[]"
        }
      ],
      "stateMutability": "view",
      "type": "function"
    },
    {
      "inputs": [
        {
          "internalType": "address",
          "name": "",
          "type": "address"
        }
      ],
      "name": "whitelist",
      "outputs": [
        {
          "internalType": "bool",
          "name": "",
          "type": "bool"
        }
      ],
      "stateMutability": "view",
      "type": "function"
    },
    {
      "inputs": [],
      "name": "whitelistEnabled",
      "outputs": [
        {
          "internalType": "bool",
          "name": "",
          "type": "bool"
        }
      ],
      "stateMutability": "view",
      "type": "function"
    },
    {
      "inputs": [],
      "name": "withdraw",
      "outputs": [],
      "stateMutability": "nonpayable",
      "type": "function"
    }
  ],
  "bytecode": "0x6080604052662386f26fc10000600a556001600c60006101000a81548160ff0219169083151502179055506000600c60016101000a81548160ff0219169083151502179055506000600d5560056010553480156200005c57600080fd5b50604051620060563803806200605683398181016040528101906200008291906200050f565b8282816000908162000095919062000813565b508060019081620000a7919062000813565b505050620000ca620000be6200010160201b60201c565b6200010960201b60201c565b600160098190555080600b9081620000e3919062000813565b50620000f8336101f4620001cf60201b60201c565b50505062000a15565b600033905090565b6000600860009054906101000a900473ffffffffffffffffffffffffffffffffffffffff16905081600860006101000a81548173ffffffffffffffffffffffffffffffffffffffff021916908373ffffffffffffffffffffffffffffffffffffffff1602179055508173ffffffffffffffffffffffffffffffffffffffff168173ffffffffffffffffffffffffffffffffffffffff167f8be0079c531659141344cd1fd0a4f28419497f9722a3daafe3b4186f6b6457e060405160405180910390a35050565b620001df6200037260201b60201c565b6bffffffffffffffffffffffff16816bffffffffffffffffffffffff16111562000240576040517f08c379a0000000000000000000000000000000000000000000000000000000008152600401620002379062000981565b60405180910390fd5b600073ffffffffffffffffffffffffffffffffffffffff168273ffffffffffffffffffffffffffffffffffffffff1603620002b2576040517f08c379a0000000000000000000000000000000000000000000000000000000008152600401620002a990620009f3565b60405180910390fd5b60405180604001604052808373ffffffffffffffffffffffffffffffffffffffff168152602001826bffffffffffffffffffffffff16815250600660008201518160000160006101000a81548173ffffffffffffffffffffffffffffffffffffffff021916908373ffffffffffffffffffffffffffffffffffffffff16021790555060208201518160000160146101000a8154816bffffffffffffffffffffffff02191690836bffffffffffffffffffffffff1602179055509050505050565b6000612710905090565b6000604051905090565b600080fd5b600080fd5b600080fd5b600080fd5b6000601f19601f8301169050919050565b7f4e487b7100000000000000000000000000000000000000000000000000000000600052604160045260246000fd5b620003e5826200039a565b810181811067ffffffffffffffff82111715620004075762000406620003ab565b5b80604052505050565b60006200041c6200037c565b90506200042a8282620003da565b919050565b600067ffffffffffffffff8211156200044d576200044c620003ab565b5b62000458826200039a565b9050602081019050919050565b60005b838110156200048557808201518184015260208101905062000468565b60008484015250505050565b6000620004a8620004a2846200042f565b62000410565b905082815260208101848484011115620004c757620004c662000395565b5b620004d484828562000465565b509392505050565b600082601f830112620004f457620004f362000390565b5b81516200050684826020860162000491565b91505092915050565b6000806000606084860312156200052b576200052a62000386565b5b600084015167ffffffffffffffff8111156200054c576200054b6200038b565b5b6200055a86828701620004dc565b935050602084015167ffffffffffffffff8111156200057e576200057d6200038b565b5b6200058c86828701620004dc565b925050604084015167ffffffffffffffff811115620005b057620005af6200038b565b5b620005be86828701620004dc565b9150509250925092565b600081519050919050565b7f4e487b7100000000000000000000000000000000000000000000000000000000600052602260045260246000fd5b600060028204905060018216806200061b57607f821691505b602082108103620006315762000630620005d3565b5b50919050565b60008190508160005260206000209050919050565b60006020601f8301049050919050565b600082821b905092915050565b6000600883026200069b7fffffffffffffffffffffffffffffffffffffffffffffffffffffffffffffffff826200065c565b620006a786836200065c565b95508019841693508086168417925050509392505050565b6000819050919050565b6000819050919050565b6000620006f4620006ee620006e884620006bf565b620006c9565b620006bf565b9050919050565b6000819050919050565b6200071083620006d3565b620007286200071f82620006fb565b84845462000669565b825550505050565b600090565b6200073f62000730565b6200074c81848462000705565b505050565b5b8181101562000774576200076860008262000735565b60018101905062000752565b5050565b601f821115620007c3576200078d8162000637565b62000798846200064c565b81016020851015620007a8578190505b620007c0620007b7856200064c565b83018262000751565b50505b505050565b600082821c905092915050565b6000620007e860001984600802620007c8565b1980831691505092915050565b6000620008038383620007d5565b9150826002028217905092915050565b6200081e82620005c8565b67ffffffffffffffff8111156200083a5762000839620003ab565b5b62000846825462000602565b6200085382828562000778565b600060209050601f8311600181146200088b576000841562000876578287015190505b620008828582620007f5565b865550620008f2565b601f1984166200089b8662000637565b60005b82811015620008c5578489015182556001820191506020850194506020810190506200089e565b86831015620008e55784890151620008e1601f891682620007d5565b8355505b6001600288020188555050505b505050505050565b600082825260208201905092915050565b7f455243323938313a20726f79616c7479206665652077696c6c2065786365656460008201527f2073616c65507269636500000000000000000000000000000000000000000000602082015250565b600062000969602a83620008fa565b915062000976826200090b565b604082019050919050565b600060208201905081810360008301526200099c816200095a565b9050919050565b7f455243323938313a20696e76616c696420726563656976657200000000000000600082015250565b6000620009db601983620008fa565b9150620009e882620009a3565b602082019050919050565b6000602082019050818103600083015262000a0e81620009cc565b9050919050565b6156318062000a256000396000f3fe60806040526004361061025c5760003560e01c8063702cbbae11610144578063a22cb465116100b6578063c87b56dd1161007a578063c87b56dd14610922578063e412c3c81461095f578063e985e9c51461097b578063ec743d32146109b8578063f2fde38b146109d4578063f4a0a528146109fd5761025c565b8063a22cb4651461083f578063afdf613414610868578063b228d92514610891578063b88d4fde146108bc578063b9ba114d146108e55761025c565b80638ecad721116101085780638ecad721146107075780639187cb031461073257806395d89b411461076f5780639b19251a1461079a5780639ee40810146107d75780639fd6db12146108145761025c565b8063702cbbae1461062257806370a082311461065f578063715018a61461069c5780637f649783146106b35780638da5cb5b146106dc5761025c565b806332cb6b0c116101dd5780634ea3871a116101a15780634ea3871a1461051457806351fb012d1461053d578063548db1741461056857806355f804b3146105915780636352211e146105ba5780636817c76c146105f75761025c565b806332cb6b0c146104505780633c6f5d0c1461047b5780633ccfd60b1461049757806342842e0e146104ae578063438b6300146104d75761025c565b806318160ddd1161022457806318160ddd146103585780631e7269c51461038357806323b872dd146103c05780632a55205a146103e9578063325cdebb146104275761025c565b806301ffc9a714610261578063052d9e7e1461029e57806306fdde03146102c7578063081812fc146102f2578063095ea7b31461032f575b600080fd5b34801561026d57600080fd5b5061028860048036038101906102839190613884565b610a26565b60405161029591906138cc565b60405180910390f35b3480156102aa57600080fd5b506102c560048036038101906102c09190613913565b610a38565b005b3480156102d357600080fd5b506102dc610a5d565b6040516102e991906139d0565b60405180910390f35b3480156102fe57600080fd5b5061031960048036038101906103149190613a28565b610aef565b6040516103269190613a96565b60405180910390f35b34801561033b57600080fd5b5061035660048036038101906103519190613add565b610b35565b005b34801561036457600080fd5b5061036d610c4c565b60405161037a9190613b2c565b60405180910390f35b34801561038f57600080fd5b506103aa60048036038101906103a59190613b47565b610c52565b6040516103b79190613b2c565b60405180910390f35b3480156103cc57600080fd5b506103e760048036038101906103e29190613b74565b610c6a565b005b3480156103f557600080fd5b50610410600480360381019061040b9190613bc7565b610cca565b60405161041e929190613c07565b60405180910390f35b34801561043357600080fd5b5061044e60048036038101906104499190613c30565b610eb4565b005b34801561045c57600080fd5b5061046561107d565b6040516104729190613b2c565b60405180910390f35b61049560048036038101906104909190613cd5565b611083565b005b3480156104a357600080fd5b506104ac61152f565b005b3480156104ba57600080fd5b506104d560048036038101906104d09190613b74565b6115d0565b005b3480156104e357600080fd5b506104fe60048036038101906104f99190613b47565b6115f0565b60405161050b9190613de0565b60405180910390f35b34801561052057600080fd5b5061053b60048036038101906105369190613913565b6116f8565b005b34801561054957600080fd5b5061055261171d565b60405161055f91906138cc565b60405180910390f35b34801561057457600080fd5b5061058f600480360381019061058a9190613e58565b611730565b005b34801561059d57600080fd5b506105b860048036038101906105b39190613fd5565b6117dd565b005b3480156105c657600080fd5b506105e160048036038101906105dc9190613a28565b6117f8565b6040516105ee9190613a96565b60405180910390f35b34801561060357600080fd5b5061060c61187e565b6040516106199190613b2c565b60405180910390f35b34801561062e57600080fd5b5061064960048036038101906106449190613a28565b611884565b60405161065691906138cc565b60405180910390f35b34801561066b57600080fd5b5061068660048036038101906106819190613b47565b6118da565b6040516106939190613b2c565b60405180910390f35b3480156106a857600080fd5b506106b1611991565b005b3480156106bf57600080fd5b506106da60048036038101906106d59190613e58565b6119a5565b005b3480156106e857600080fd5b506106f1611a52565b6040516106fe9190613a96565b60405180910390f35b34801561071357600080fd5b5061071c611a7c565b6040516107299190613b2c565b60405180910390f35b34801561073e57600080fd5b5061075960048036038101906107549190613a28565b611a81565b6040516107669190613de0565b60405180910390f35b34801561077b57600080fd5b50610784611c1b565b60405161079191906139d0565b60405180910390f35b3480156107a657600080fd5b506107c160048036038101906107bc9190613b47565b611cad565b6040516107ce91906138cc565b60405180910390f35b3480156107e357600080fd5b506107fe60048036038101906107f99190613a28565b611ccd565b60405161080b91906138cc565b60405180910390f35b34801561082057600080fd5b50610829611ced565b60405161083691906138cc565b60405180910390f35b34801561084b57600080fd5b506108666004803603810190610861919061401e565b611d00565b005b34801561087457600080fd5b5061088f600480360381019061088a9190613a28565b611d16565b005b34801561089d57600080fd5b506108a6611d28565b6040516108b39190613b2c565b60405180910390f35b3480156108c857600080fd5b506108e360048036038101906108de91906140ff565b611d2e565b005b3480156108f157600080fd5b5061090c60048036038101906109079190613a28565b611d90565b6040516109199190613a96565b60405180910390f35b34801561092e57600080fd5b5061094960048036038101906109449190613a28565b611dc3565b60405161095691906139d0565b60405180910390f35b61097960048036038101906109749190613a28565b611e6b565b005b34801561098757600080fd5b506109a2600480360381019061099d9190614182565b6122c4565b6040516109af91906138cc565b60405180910390f35b6109d260048036038101906109cd9190613a28565b612358565b005b3480156109e057600080fd5b506109fb60048036038101906109f69190613b47565b6126c9565b005b348015610a0957600080fd5b50610a246004803603810190610a1f9190613a28565b61274c565b005b6000610a318261275e565b9050919050565b610a406127d8565b80600c60016101000a81548160ff02191690831515021790555050565b606060008054610a6c906141f1565b80601f0160208091040260200160405190810160405280929190818152602001828054610a98906141f1565b8015610ae55780601f10610aba57610100808354040283529160200191610ae5565b820191906000526020600020905b815481529060010190602001808311610ac857829003601f168201915b5050505050905090565b6000610afa82612856565b6004600083815260200190815260200160002060009054906101000a900473ffffffffffffffffffffffffffffffffffffffff169050919050565b6000610b40826117f8565b90508073ffffffffffffffffffffffffffffffffffffffff168373ffffffffffffffffffffffffffffffffffffffff1603610bb0576040517f08c379a0000000000000000000000000000000000000000000000000000000008152600401610ba790614294565b60405180910390fd5b8073ffffffffffffffffffffffffffffffffffffffff16610bcf6128a1565b73ffffffffffffffffffffffffffffffffffffffff161480610bfe5750610bfd81610bf86128a1565b6122c4565b5b610c3d576040517f08c379a0000000000000000000000000000000000000000000000000000000008152600401610c3490614326565b60405180910390fd5b610c4783836128a9565b505050565b600d5481565b600f6020528060005260406000206000915090505481565b610c7b610c756128a1565b82612962565b610cba576040517f08c379a0000000000000000000000000000000000000000000000000000000008152600401610cb1906143b8565b60405180910390fd5b610cc58383836129f7565b505050565b6000806000600760008681526020019081526020016000206040518060400160405290816000820160009054906101000a900473ffffffffffffffffffffffffffffffffffffffff1673ffffffffffffffffffffffffffffffffffffffff1673ffffffffffffffffffffffffffffffffffffffff1681526020016000820160149054906101000a90046bffffffffffffffffffffffff166bffffffffffffffffffffffff166bffffffffffffffffffffffff16815250509050600073ffffffffffffffffffffffffffffffffffffffff16816000015173ffffffffffffffffffffffffffffffffffffffff1603610e5f5760066040518060400160405290816000820160009054906101000a900473ffffffffffffffffffffffffffffffffffffffff1673ffffffffffffffffffffffffffffffffffffffff1673ffffffffffffffffffffffffffffffffffffffff1681526020016000820160149054906101000a90046bffffffffffffffffffffffff166bffffffffffffffffffffffff166bffffffffffffffffffffffff168152505090505b6000610e69612cf0565b6bffffffffffffffffffffffff1682602001516bffffffffffffffffffffffff1686610e959190614407565b610e9f9190614478565b90508160000151819350935050509250929050565b610ebc6127d8565b600082118015610ece57506127108211155b610f0d576040517f08c379a0000000000000000000000000000000000000000000000000000000008152600401610f04906144f5565b60405180910390fd5b610f1682612cfa565b15610f56576040517f08c379a0000000000000000000000000000000000000000000000000000000008152600401610f4d90614561565b60405180910390fd5b6011600083815260200190815260200160002060009054906101000a900460ff1615610fb7576040517f08c379a0000000000000000000000000000000000000000000000000000000008152600401610fae906145cd565b60405180910390fd5b60016011600084815260200190815260200160002060006101000a81548160ff021916908315150217905550806012600084815260200190815260200160002060006101000a81548173ffffffffffffffffffffffffffffffffffffffff021916908373ffffffffffffffffffffffffffffffffffffffff1602179055508073ffffffffffffffffffffffffffffffffffffffff16827feebdeacd8003b76813b0a72c934e073cc8f81fd6033b15239329dc293774dacb60405160405180910390a35050565b61271081565b61108b612d3b565b600c60009054906101000a900460ff166110da576040517f08c379a00000000000000000000000000000000000000000000000000000000081526004016110d190614639565b60405180910390fd5b6000828290501180156110f15750600a8282905011155b611130576040517f08c379a0000000000000000000000000000000000000000000000000000000008152600401611127906146a5565b60405180910390fd5b60105482829050600f60003373ffffffffffffffffffffffffffffffffffffffff1673ffffffffffffffffffffffffffffffffffffffff1681526020019081526020016000205461118191906146c5565b11156111c2576040517f08c379a00000000000000000000000000000000000000000000000000000000081526004016111b990614745565b60405180910390fd5b600c60019054906101000a900460ff161561126457600e60003373ffffffffffffffffffffffffffffffffffffffff1673ffffffffffffffffffffffffffffffffffffffff16815260200190815260200160002060009054906101000a900460ff16611263576040517f08c379a000000000000000000000000000000000000000000000000000000000815260040161125a906147b1565b60405180910390fd5b5b600082829050600a546112779190614407565b9050803410156112bc576040517f08c379a00000000000000000000000000000000000000000000000000000000081526004016112b39061481d565b60405180910390fd5b60005b838390508110156114015760008484838181106112df576112de61483d565b5b9050602002013590506000811180156112fa57506127108111155b611339576040517f08c379a0000000000000000000000000000000000000000000000000000000008152600401611330906144f5565b60405180910390fd5b61134281612cfa565b15611382576040517f08c379a000000000000000000000000000000000000000000000000000000000815260040161137990614561565b60405180910390fd5b6011600082815260200190815260200160002060009054906101000a900460ff16156113e3576040517f08c379a00000000000000000000000000000000000000000000000000000000081526004016113da906148b8565b60405180910390fd5b6113ed3382612d8a565b5080806113f9906148d8565b9150506112bf565b5082829050600d600082825461141791906146c5565b9250508190555082829050600f60003373ffffffffffffffffffffffffffffffffffffffff1673ffffffffffffffffffffffffffffffffffffffff168152602001908152602001600020600082825461147091906146c5565b925050819055503373ffffffffffffffffffffffffffffffffffffffff167f03594fecb8a9aaa7406dd20a32bce98ef745336eb214761b085e7c924b71bda684846040516114bf92919061498a565b60405180910390a280341115611522573373ffffffffffffffffffffffffffffffffffffffff166108fc82346114f591906149ae565b9081150290604051600060405180830381858888f19350505050158015611520573d6000803e3d6000fd5b505b5061152b612da8565b5050565b6115376127d8565b60004790506000811161157f576040517f08c379a000000000000000000000000000000000000000000000000000000000815260040161157690614a2e565b60405180910390fd5b611587611a52565b73ffffffffffffffffffffffffffffffffffffffff166108fc829081150290604051600060405180830381858888f193505050501580156115cc573d6000803e3d6000fd5b5050565b6115eb83838360405180602001604052806000815250611d2e565b505050565b606060006115fd836118da565b905060008167ffffffffffffffff81111561161b5761161a613eaa565b5b6040519080825280602002602001820160405280156116495781602001602082028036833780820191505090505b509050600080600190505b600d5481116116ec5761166681612cfa565b80156116a557508573ffffffffffffffffffffffffffffffffffffffff1661168d826117f8565b73ffffffffffffffffffffffffffffffffffffffff16145b156116d957808383815181106116be576116bd61483d565b5b60200260200101818152505081806116d5906148d8565b9250505b80806116e4906148d8565b915050611654565b50819350505050919050565b6117006127d8565b80600c60006101000a81548160ff02191690831515021790555050565b600c60019054906101000a900460ff1681565b6117386127d8565b60005b828290508110156117d8576000600e600085858581811061175f5761175e61483d565b5b90506020020160208101906117749190613b47565b73ffffffffffffffffffffffffffffffffffffffff1673ffffffffffffffffffffffffffffffffffffffff16815260200190815260200160002060006101000a81548160ff02191690831515021790555080806117d0906148d8565b91505061173b565b505050565b6117e56127d8565b80600b90816117f49190614bfa565b5050565b60008061180483612db2565b9050600073ffffffffffffffffffffffffffffffffffffffff168173ffffffffffffffffffffffffffffffffffffffff1603611875576040517f08c379a000000000000000000000000000000000000000000000000000000000815260040161186c90614d18565b60405180910390fd5b80915050919050565b600a5481565b6000808211801561189757506127108211155b80156118a957506118a782612cfa565b155b80156118d357506011600083815260200190815260200160002060009054906101000a900460ff16155b9050919050565b60008073ffffffffffffffffffffffffffffffffffffffff168273ffffffffffffffffffffffffffffffffffffffff160361194a576040517f08c379a000000000000000000000000000000000000000000000000000000000815260040161194190614daa565b60405180910390fd5b600360008373ffffffffffffffffffffffffffffffffffffffff1673ffffffffffffffffffffffffffffffffffffffff168152602001908152602001600020549050919050565b6119996127d8565b6119a36000612def565b565b6119ad6127d8565b60005b82829050811015611a4d576001600e60008585858181106119d4576119d361483d565b5b90506020020160208101906119e99190613b47565b73ffffffffffffffffffffffffffffffffffffffff1673ffffffffffffffffffffffffffffffffffffffff16815260200190815260200160002060006101000a81548160ff0219169083151502179055508080611a45906148d8565b9150506119b0565b505050565b6000600860009054906101000a900473ffffffffffffffffffffffffffffffffffffffff16905090565b600a81565b606060008267ffffffffffffffff811115611a9f57611a9e613eaa565b5b604051908082528060200260200182016040528015611acd5781602001602082028036833780820191505090505b509050600080600190505b6127108111158015611ae957508482105b15611b6957611af781612cfa565b158015611b2257506011600082815260200190815260200160002060009054906101000a900460ff16155b15611b565780838381518110611b3b57611b3a61483d565b5b6020026020010181815250508180611b52906148d8565b9250505b8080611b61906148d8565b915050611ad8565b5060008167ffffffffffffffff811115611b8657611b85613eaa565b5b604051908082528060200260200182016040528015611bb45781602001602082028036833780820191505090505b50905060005b82811015611c0f57838181518110611bd557611bd461483d565b5b6020026020010151828281518110611bf057611bef61483d565b5b6020026020010181815250508080611c07906148d8565b915050611bba565b50809350505050919050565b606060018054611c2a906141f1565b80601f0160208091040260200160405190810160405280929190818152602001828054611c56906141f1565b8015611ca35780601f10611c7857610100808354040283529160200191611ca3565b820191906000526020600020905b815481529060010190602001808311611c8657829003601f168201915b5050505050905090565b600e6020528060005260406000206000915054906101000a900460ff1681565b60116020528060005260406000206000915054906101000a900460ff1681565b600c60009054906101000a900460ff1681565b611d12611d0b6128a1565b8383612eb5565b5050565b611d1e6127d8565b8060108190555050565b60105481565b611d3f611d396128a1565b83612962565b611d7e576040517f08c379a0000000000000000000000000000000000000000000000000000000008152600401611d75906143b8565b60405180910390fd5b611d8a84848484613021565b50505050565b60126020528060005260406000206000915054906101000a900473ffffffffffffffffffffffffffffffffffffffff1681565b6060611dce82612cfa565b611e0d576040517f08c379a0000000000000000000000000000000000000000000000000000000008152600401611e0490614e16565b60405180910390fd5b6000600b8054611e1c906141f1565b905011611e385760405180602001604052806000815250611e64565b600b611e438361307d565b604051602001611e54929190614f41565b6040516020818303038152906040525b9050919050565b611e73612d3b565b600c60009054906101000a900460ff16611ec2576040517f08c379a0000000000000000000000000000000000000000000000000000000008152600401611eb990614639565b60405180910390fd5b600081118015611ed35750600a8111155b611f12576040517f08c379a0000000000000000000000000000000000000000000000000000000008152600401611f09906146a5565b60405180910390fd5b61271081600d54611f2391906146c5565b1115611f64576040517f08c379a0000000000000000000000000000000000000000000000000000000008152600401611f5b90614fbc565b60405180910390fd5b60105481600f60003373ffffffffffffffffffffffffffffffffffffffff1673ffffffffffffffffffffffffffffffffffffffff16815260200190815260200160002054611fb291906146c5565b1115611ff3576040517f08c379a0000000000000000000000000000000000000000000000000000000008152600401611fea90614745565b60405180910390fd5b600c60019054906101000a900460ff161561209557600e60003373ffffffffffffffffffffffffffffffffffffffff1673ffffffffffffffffffffffffffffffffffffffff16815260200190815260200160002060009054906101000a900460ff16612094576040517f08c379a000000000000000000000000000000000000000000000000000000000815260040161208b906147b1565b60405180910390fd5b5b600081600a546120a59190614407565b9050803410156120ea576040517f08c379a00000000000000000000000000000000000000000000000000000000081526004016120e19061481d565b60405180910390fd5b60008267ffffffffffffffff81111561210657612105613eaa565b5b6040519080825280602002602001820160405280156121345781602001602082028036833780820191505090505b50905060005b8381101561219e576000600182600d5461215491906146c5565b61215e91906146c5565b905061216a3382612d8a565b8083838151811061217e5761217d61483d565b5b602002602001018181525050508080612196906148d8565b91505061213a565b5082600d60008282546121b191906146c5565b9250508190555082600f60003373ffffffffffffffffffffffffffffffffffffffff1673ffffffffffffffffffffffffffffffffffffffff168152602001908152602001600020600082825461220791906146c5565b925050819055503373ffffffffffffffffffffffffffffffffffffffff167f03594fecb8a9aaa7406dd20a32bce98ef745336eb214761b085e7c924b71bda6826040516122549190613de0565b60405180910390a2813411156122b7573373ffffffffffffffffffffffffffffffffffffffff166108fc833461228a91906149ae565b9081150290604051600060405180830381858888f193505050501580156122b5573d6000803e3d6000fd5b505b50506122c1612da8565b50565b6000600560008473ffffffffffffffffffffffffffffffffffffffff1673ffffffffffffffffffffffffffffffffffffffff16815260200190815260200160002060008373ffffffffffffffffffffffffffffffffffffffff1673ffffffffffffffffffffffffffffffffffffffff16815260200190815260200160002060009054906101000a900460ff16905092915050565b612360612d3b565b600c60009054906101000a900460ff166123af576040517f08c379a00000000000000000000000000000000000000000000000000000000081526004016123a690614639565b60405180910390fd5b6011600082815260200190815260200160002060009054906101000a900460ff1661240f576040517f08c379a000000000000000000000000000000000000000000000000000000000815260040161240690615028565b60405180910390fd5b3373ffffffffffffffffffffffffffffffffffffffff166012600083815260200190815260200160002060009054906101000a900473ffffffffffffffffffffffffffffffffffffffff1673ffffffffffffffffffffffffffffffffffffffff16146124b0576040517f08c379a00000000000000000000000000000000000000000000000000000000081526004016124a790615094565b60405180910390fd5b6124b981612cfa565b156124f9576040517f08c379a00000000000000000000000000000000000000000000000000000000081526004016124f090614561565b60405180910390fd5b600a5434101561253e576040517f08c379a00000000000000000000000000000000000000000000000000000000081526004016125359061481d565b60405180910390fd5b60006011600083815260200190815260200160002060006101000a81548160ff0219169083151502179055506012600082815260200190815260200160002060006101000a81549073ffffffffffffffffffffffffffffffffffffffff02191690556125aa3382612d8a565b6001600f60003373ffffffffffffffffffffffffffffffffffffffff1673ffffffffffffffffffffffffffffffffffffffff16815260200190815260200160002060008282546125fa91906146c5565b925050819055506001600d600082825461261491906146c5565b925050819055503373ffffffffffffffffffffffffffffffffffffffff16817f3a5398bda6f1f57d6c96834fa9bf02b5517bdc847d14312015a917ba421c31c960405160405180910390a3600a543411156126be573373ffffffffffffffffffffffffffffffffffffffff166108fc600a543461269191906149ae565b9081150290604051600060405180830381858888f193505050501580156126bc573d6000803e3d6000fd5b505b6126c6612da8565b50565b6126d16127d8565b600073ffffffffffffffffffffffffffffffffffffffff168173ffffffffffffffffffffffffffffffffffffffff1603612740576040517f08c379a000000000000000000000000000000000000000000000000000000000815260040161273790615126565b60405180910390fd5b61274981612def565b50565b6127546127d8565b80600a8190555050565b60007f2a55205a000000000000000000000000000000000000000000000000000000007bffffffffffffffffffffffffffffffffffffffffffffffffffffffff1916827bffffffffffffffffffffffffffffffffffffffffffffffffffffffff191614806127d157506127d08261314b565b5b9050919050565b6127e06128a1565b73ffffffffffffffffffffffffffffffffffffffff166127fe611a52565b73ffffffffffffffffffffffffffffffffffffffff1614612854576040517f08c379a000000000000000000000000000000000000000000000000000000000815260040161284b90615192565b60405180910390fd5b565b61285f81612cfa565b61289e576040517f08c379a000000000000000000000000000000000000000000000000000000000815260040161289590614d18565b60405180910390fd5b50565b600033905090565b816004600083815260200190815260200160002060006101000a81548173ffffffffffffffffffffffffffffffffffffffff021916908373ffffffffffffffffffffffffffffffffffffffff160217905550808273ffffffffffffffffffffffffffffffffffffffff1661291c836117f8565b73ffffffffffffffffffffffffffffffffffffffff167f8c5be1e5ebec7d5bd14f71427d1e84f3dd0314c0f7b2291e5b200ac8c7c3b92560405160405180910390a45050565b60008061296e836117f8565b90508073ffffffffffffffffffffffffffffffffffffffff168473ffffffffffffffffffffffffffffffffffffffff1614806129b057506129af81856122c4565b5b806129ee57508373ffffffffffffffffffffffffffffffffffffffff166129d684610aef565b73ffffffffffffffffffffffffffffffffffffffff16145b91505092915050565b8273ffffffffffffffffffffffffffffffffffffffff16612a17826117f8565b73ffffffffffffffffffffffffffffffffffffffff1614612a6d576040517f08c379a0000000000000000000000000000000000000000000000000000000008152600401612a6490615224565b60405180910390fd5b600073ffffffffffffffffffffffffffffffffffffffff168273ffffffffffffffffffffffffffffffffffffffff1603612adc576040517f08c379a0000000000000000000000000000000000000000000000000000000008152600401612ad3906152b6565b60405180910390fd5b612ae9838383600161322d565b8273ffffffffffffffffffffffffffffffffffffffff16612b09826117f8565b73ffffffffffffffffffffffffffffffffffffffff1614612b5f576040517f08c379a0000000000000000000000000000000000000000000000000000000008152600401612b5690615224565b60405180910390fd5b6004600082815260200190815260200160002060006101000a81549073ffffffffffffffffffffffffffffffffffffffff02191690556001600360008573ffffffffffffffffffffffffffffffffffffffff1673ffffffffffffffffffffffffffffffffffffffff168152602001908152602001600020600082825403925050819055506001600360008473ffffffffffffffffffffffffffffffffffffffff1673ffffffffffffffffffffffffffffffffffffffff16815260200190815260200160002060008282540192505081905550816002600083815260200190815260200160002060006101000a81548173ffffffffffffffffffffffffffffffffffffffff021916908373ffffffffffffffffffffffffffffffffffffffff160217905550808273ffffffffffffffffffffffffffffffffffffffff168473ffffffffffffffffffffffffffffffffffffffff167fddf252ad1be2c89b69c2b068fc378daa952ba7f163c4a11628f55a4df523b3ef60405160405180910390a4612ceb8383836001613233565b505050565b6000612710905090565b60008073ffffffffffffffffffffffffffffffffffffffff16612d1c83612db2565b73ffffffffffffffffffffffffffffffffffffffff1614159050919050565b600260095403612d80576040517f08c379a0000000000000000000000000000000000000000000000000000000008152600401612d7790615322565b60405180910390fd5b6002600981905550565b612da4828260405180602001604052806000815250613239565b5050565b6001600981905550565b60006002600083815260200190815260200160002060009054906101000a900473ffffffffffffffffffffffffffffffffffffffff169050919050565b6000600860009054906101000a900473ffffffffffffffffffffffffffffffffffffffff16905081600860006101000a81548173ffffffffffffffffffffffffffffffffffffffff021916908373ffffffffffffffffffffffffffffffffffffffff1602179055508173ffffffffffffffffffffffffffffffffffffffff168173ffffffffffffffffffffffffffffffffffffffff167f8be0079c531659141344cd1fd0a4f28419497f9722a3daafe3b4186f6b6457e060405160405180910390a35050565b8173ffffffffffffffffffffffffffffffffffffffff168373ffffffffffffffffffffffffffffffffffffffff1603612f23576040517f08c379a0000000000000000000000000000000000000000000000000000000008152600401612f1a9061538e565b60405180910390fd5b80600560008573ffffffffffffffffffffffffffffffffffffffff1673ffffffffffffffffffffffffffffffffffffffff16815260200190815260200160002060008473ffffffffffffffffffffffffffffffffffffffff1673ffffffffffffffffffffffffffffffffffffffff16815260200190815260200160002060006101000a81548160ff0219169083151502179055508173ffffffffffffffffffffffffffffffffffffffff168373ffffffffffffffffffffffffffffffffffffffff167f17307eab39ab6107e8899845ad3d59bd9653f200f220920489ca2b5937696c318360405161301491906138cc565b60405180910390a3505050565b61302c8484846129f7565b61303884848484613294565b613077576040517f08c379a000000000000000000000000000000000000000000000000000000000815260040161306e90615420565b60405180910390fd5b50505050565b60606000600161308c8461341b565b01905060008167ffffffffffffffff8111156130ab576130aa613eaa565b5b6040519080825280601f01601f1916602001820160405280156130dd5781602001600182028036833780820191505090505b509050600082602001820190505b600115613140578080600190039150507f3031323334353637383961626364656600000000000000000000000000000000600a86061a8153600a858161313457613133614449565b5b049450600085036130eb575b819350505050919050565b60007f80ac58cd000000000000000000000000000000000000000000000000000000007bffffffffffffffffffffffffffffffffffffffffffffffffffffffff1916827bffffffffffffffffffffffffffffffffffffffffffffffffffffffff1916148061321657507f5b5e139f000000000000000000000000000000000000000000000000000000007bffffffffffffffffffffffffffffffffffffffffffffffffffffffff1916827bffffffffffffffffffffffffffffffffffffffffffffffffffffffff1916145b8061322657506132258261356e565b5b9050919050565b50505050565b50505050565b61324383836135d8565b6132506000848484613294565b61328f576040517f08c379a000000000000000000000000000000000000000000000000000000000815260040161328690615420565b60405180910390fd5b505050565b60006132b58473ffffffffffffffffffffffffffffffffffffffff166137f5565b1561340e578373ffffffffffffffffffffffffffffffffffffffff1663150b7a026132de6128a1565b8786866040518563ffffffff1660e01b81526004016133009493929190615495565b6020604051808303816000875af192505050801561333c57506040513d601f19601f8201168201806040525081019061333991906154f6565b60015b6133be573d806000811461336c576040519150601f19603f3d011682016040523d82523d6000602084013e613371565b606091505b5060008151036133b6576040517f08c379a00000000000000000000000000000000000000000000000000000000081526004016133ad90615420565b60405180910390fd5b805181602001fd5b63150b7a0260e01b7bffffffffffffffffffffffffffffffffffffffffffffffffffffffff1916817bffffffffffffffffffffffffffffffffffffffffffffffffffffffff191614915050613413565b600190505b949350505050565b600080600090507a184f03e93ff9f4daa797ed6e38ed64bf6a1f0100000000000000008310613479577a184f03e93ff9f4daa797ed6e38ed64bf6a1f010000000000000000838161346f5761346e614449565b5b0492506040810190505b6d04ee2d6d415b85acef810000000083106134b6576d04ee2d6d415b85acef810000000083816134ac576134ab614449565b5b0492506020810190505b662386f26fc1000083106134e557662386f26fc1000083816134db576134da614449565b5b0492506010810190505b6305f5e100831061350e576305f5e100838161350457613503614449565b5b0492506008810190505b612710831061353357612710838161352957613528614449565b5b0492506004810190505b60648310613556576064838161354c5761354b614449565b5b0492506002810190505b600a8310613565576001810190505b80915050919050565b60007f01ffc9a7000000000000000000000000000000000000000000000000000000007bffffffffffffffffffffffffffffffffffffffffffffffffffffffff1916827bffffffffffffffffffffffffffffffffffffffffffffffffffffffff1916149050919050565b600073ffffffffffffffffffffffffffffffffffffffff168273ffffffffffffffffffffffffffffffffffffffff1603613647576040517f08c379a000000000000000000000000000000000000000000000000000000000815260040161363e9061556f565b60405180910390fd5b61365081612cfa565b15613690576040517f08c379a0000000000000000000000000000000000000000000000000000000008152600401613687906155db565b60405180910390fd5b61369e60008383600161322d565b6136a781612cfa565b156136e7576040517f08c379a00000000000000000000000000000000000000000000000000000000081526004016136de906155db565b60405180910390fd5b6001600360008473ffffffffffffffffffffffffffffffffffffffff1673ffffffffffffffffffffffffffffffffffffffff16815260200190815260200160002060008282540192505081905550816002600083815260200190815260200160002060006101000a81548173ffffffffffffffffffffffffffffffffffffffff021916908373ffffffffffffffffffffffffffffffffffffffff160217905550808273ffffffffffffffffffffffffffffffffffffffff16600073ffffffffffffffffffffffffffffffffffffffff167fddf252ad1be2c89b69c2b068fc378daa952ba7f163c4a11628f55a4df523b3ef60405160405180910390a46137f1600083836001613233565b5050565b6000808273ffffffffffffffffffffffffffffffffffffffff163b119050919050565b6000604051905090565b600080fd5b600080fd5b60007fffffffff0000000000000000000000000000000000000000000000000000000082169050919050565b6138618161382c565b811461386c57600080fd5b50565b60008135905061387e81613858565b92915050565b60006020828403121561389a57613899613822565b5b60006138a88482850161386f565b91505092915050565b60008115159050919050565b6138c6816138b1565b82525050565b60006020820190506138e160008301846138bd565b92915050565b6138f0816138b1565b81146138fb57600080fd5b50565b60008135905061390d816138e7565b92915050565b60006020828403121561392957613928613822565b5b6000613937848285016138fe565b91505092915050565b600081519050919050565b600082825260208201905092915050565b60005b8381101561397a57808201518184015260208101905061395f565b60008484015250505050565b6000601f19601f8301169050919050565b60006139a282613940565b6139ac818561394b565b93506139bc81856020860161395c565b6139c581613986565b840191505092915050565b600060208201905081810360008301526139ea8184613997565b905092915050565b6000819050919050565b613a05816139f2565b8114613a1057600080fd5b50565b600081359050613a22816139fc565b92915050565b600060208284031215613a3e57613a3d613822565b5b6000613a4c84828501613a13565b91505092915050565b600073ffffffffffffffffffffffffffffffffffffffff82169050919050565b6000613a8082613a55565b9050919050565b613a9081613a75565b82525050565b6000602082019050613aab6000830184613a87565b92915050565b613aba81613a75565b8114613ac557600080fd5b50565b600081359050613ad781613ab1565b92915050565b60008060408385031215613af457613af3613822565b5b6000613b0285828601613ac8565b9250506020613b1385828601613a13565b9150509250929050565b613b26816139f2565b82525050565b6000602082019050613b416000830184613b1d565b92915050565b600060208284031215613b5d57613b5c613822565b5b6000613b6b84828501613ac8565b91505092915050565b600080600060608486031215613b8d57613b8c613822565b5b6000613b9b86828701613ac8565b9350506020613bac86828701613ac8565b9250506040613bbd86828701613a13565b9150509250925092565b60008060408385031215613bde57613bdd613822565b5b6000613bec85828601613a13565b9250506020613bfd85828601613a13565b9150509250929050565b6000604082019050613c1c6000830185613a87565b613c296020830184613b1d565b9392505050565b60008060408385031215613c4757613c46613822565b5b6000613c5585828601613a13565b9250506020613c6685828601613ac8565b9150509250929050565b600080fd5b600080fd5b600080fd5b60008083601f840112613c9557613c94613c70565b5b8235905067ffffffffffffffff811115613cb257613cb1613c75565b5b602083019150836020820283011115613cce57613ccd613c7a565b5b9250929050565b60008060208385031215613cec57613ceb613822565b5b600083013567ffffffffffffffff811115613d0a57613d09613827565b5b613d1685828601613c7f565b92509250509250929050565b600081519050919050565b600082825260208201905092915050565b6000819050602082019050919050565b613d57816139f2565b82525050565b6000613d698383613d4e565b60208301905092915050565b6000602082019050919050565b6000613d8d82613d22565b613d978185613d2d565b9350613da283613d3e565b8060005b83811015613dd3578151613dba8882613d5d565b9750613dc583613d75565b925050600181019050613da6565b5085935050505092915050565b60006020820190508181036000830152613dfa8184613d82565b905092915050565b60008083601f840112613e1857613e17613c70565b5b8235905067ffffffffffffffff811115613e3557613e34613c75565b5b602083019150836020820283011115613e5157613e50613c7a565b5b9250929050565b60008060208385031215613e6f57613e6e613822565b5b600083013567ffffffffffffffff811115613e8d57613e8c613827565b5b613e9985828601613e02565b92509250509250929050565b600080fd5b7f4e487b7100000000000000000000000000000000000000000000000000000000600052604160045260246000fd5b613ee282613986565b810181811067ffffffffffffffff82111715613f0157613f00613eaa565b5b80604052505050565b6000613f14613818565b9050613f208282613ed9565b919050565b600067ffffffffffffffff821115613f4057613f3f613eaa565b5b613f4982613986565b9050602081019050919050565b82818337600083830152505050565b6000613f78613f7384613f25565b613f0a565b905082815260208101848484011115613f9457613f93613ea5565b5b613f9f848285613f56565b509392505050565b600082601f830112613fbc57613fbb613c70565b5b8135613fcc848260208601613f65565b91505092915050565b600060208284031215613feb57613fea613822565b5b600082013567ffffffffffffffff81111561400957614008613827565b5b61401584828501613fa7565b91505092915050565b6000806040838503121561403557614034613822565b5b600061404385828601613ac8565b9250506020614054858286016138fe565b9150509250929050565b600067ffffffffffffffff82111561407957614078613eaa565b5b61408282613986565b9050602081019050919050565b60006140a261409d8461405e565b613f0a565b9050828152602081018484840111156140be576140bd613ea5565b5b6140c9848285613f56565b509392505050565b600082601f8301126140e6576140e5613c70565b5b81356140f684826020860161408f565b91505092915050565b6000806000806080858703121561411957614118613822565b5b600061412787828801613ac8565b945050602061413887828801613ac8565b935050604061414987828801613a13565b925050606085013567ffffffffffffffff81111561416a57614169613827565b5b614176878288016140d1565b91505092959194509250565b6000806040838503121561419957614198613822565b5b60006141a785828601613ac8565b92505060206141b885828601613ac8565b9150509250929050565b7f4e487b7100000000000000000000000000000000000000000000000000000000600052602260045260246000fd5b6000600282049050600182168061420957607f821691505b60208210810361421c5761421b6141c2565b5b50919050565b7f4552433732313a20617070726f76616c20746f2063757272656e74206f776e6560008201527f7200000000000000000000000000000000000000000000000000000000000000602082015250565b600061427e60218361394b565b915061428982614222565b604082019050919050565b600060208201905081810360008301526142ad81614271565b9050919050565b7f4552433732313a20617070726f76652063616c6c6572206973206e6f7420746f60008201527f6b656e206f776e6572206f7220617070726f76656420666f7220616c6c000000602082015250565b6000614310603d8361394b565b915061431b826142b4565b604082019050919050565b6000602082019050818103600083015261433f81614303565b9050919050565b7f4552433732313a2063616c6c6572206973206e6f7420746f6b656e206f776e6560008201527f72206f7220617070726f76656400000000000000000000000000000000000000602082015250565b60006143a2602d8361394b565b91506143ad82614346565b604082019050919050565b600060208201905081810360008301526143d181614395565b9050919050565b7f4e487b7100000000000000000000000000000000000000000000000000000000600052601160045260246000fd5b6000614412826139f2565b915061441d836139f2565b925082820261442b816139f2565b91508282048414831517614442576144416143d8565b5b5092915050565b7f4e487b7100000000000000000000000000000000000000000000000000000000600052601260045260246000fd5b6000614483826139f2565b915061448e836139f2565b92508261449e5761449d614449565b5b828204905092915050565b7f496e76616c696420746f6b656e20494400000000000000000000000000000000600082015250565b60006144df60108361394b565b91506144ea826144a9565b602082019050919050565b6000602082019050818103600083015261450e816144d2565b9050919050565b7f546f6b656e20616c7265616479206d696e746564000000000000000000000000600082015250565b600061454b60148361394b565b915061455682614515565b602082019050919050565b6000602082019050818103600083015261457a8161453e565b9050919050565b7f546f6b656e20616c726561647920726573657276656400000000000000000000600082015250565b60006145b760168361394b565b91506145c282614581565b602082019050919050565b600060208201905081810360008301526145e6816145aa565b9050919050565b7f4d696e74696e672069732064697361626c656400000000000000000000000000600082015250565b600061462360138361394b565b915061462e826145ed565b602082019050919050565b6000602082019050818103600083015261465281614616565b9050919050565b7f496e76616c696420616d6f756e74000000000000000000000000000000000000600082015250565b600061468f600e8361394b565b915061469a82614659565b602082019050919050565b600060208201905081810360008301526146be81614682565b9050919050565b60006146d0826139f2565b91506146db836139f2565b92508282019050808211156146f3576146f26143d8565b5b92915050565b7f457863656564732077616c6c6574206c696d6974000000000000000000000000600082015250565b600061472f60148361394b565b915061473a826146f9565b602082019050919050565b6000602082019050818103600083015261475e81614722565b9050919050565b7f4e6f742077686974656c69737465640000000000000000000000000000000000600082015250565b600061479b600f8361394b565b91506147a682614765565b602082019050919050565b600060208201905081810360008301526147ca8161478e565b9050919050565b7f496e73756666696369656e74207061796d656e74000000000000000000000000600082015250565b600061480760148361394b565b9150614812826147d1565b602082019050919050565b60006020820190508181036000830152614836816147fa565b9050919050565b7f4e487b7100000000000000000000000000000000000000000000000000000000600052603260045260246000fd5b7f546f6b656e206973207265736572766564000000000000000000000000000000600082015250565b60006148a260118361394b565b91506148ad8261486c565b602082019050919050565b600060208201905081810360008301526148d181614895565b9050919050565b60006148e3826139f2565b91507fffffffffffffffffffffffffffffffffffffffffffffffffffffffffffffffff8203614915576149146143d8565b5b600182019050919050565b600080fd5b82818337505050565b600061493a8385613d2d565b93507f07ffffffffffffffffffffffffffffffffffffffffffffffffffffffffffffff83111561496d5761496c614920565b5b60208302925061497e838584614925565b82840190509392505050565b600060208201905081810360008301526149a581848661492e565b90509392505050565b60006149b9826139f2565b91506149c4836139f2565b92508282039050818111156149dc576149db6143d8565b5b92915050565b7f4e6f2066756e647320746f207769746864726177000000000000000000000000600082015250565b6000614a1860148361394b565b9150614a23826149e2565b602082019050919050565b60006020820190508181036000830152614a4781614a0b565b9050919050565b60008190508160005260206000209050919050565b60006020601f8301049050919050565b600082821b905092915050565b600060088302614ab07fffffffffffffffffffffffffffffffffffffffffffffffffffffffffffffffff82614a73565b614aba8683614a73565b95508019841693508086168417925050509392505050565b6000819050919050565b6000614af7614af2614aed846139f2565b614ad2565b6139f2565b9050919050565b6000819050919050565b614b1183614adc565b614b25614b1d82614afe565b848454614a80565b825550505050565b600090565b614b3a614b2d565b614b45818484614b08565b505050565b5b81811015614b6957614b5e600082614b32565b600181019050614b4b565b5050565b601f821115614bae57614b7f81614a4e565b614b8884614a63565b81016020851015614b97578190505b614bab614ba385614a63565b830182614b4a565b50505b505050565b600082821c905092915050565b6000614bd160001984600802614bb3565b1980831691505092915050565b6000614bea8383614bc0565b9150826002028217905092915050565b614c0382613940565b67ffffffffffffffff811115614c1c57614c1b613eaa565b5b614c2682546141f1565b614c31828285614b6d565b600060209050601f831160018114614c645760008415614c52578287015190505b614c5c8582614bde565b865550614cc4565b601f198416614c7286614a4e565b60005b82811015614c9a57848901518255600182019150602085019450602081019050614c75565b86831015614cb75784890151614cb3601f891682614bc0565b8355505b6001600288020188555050505b505050505050565b7f4552433732313a20696e76616c696420746f6b656e2049440000000000000000600082015250565b6000614d0260188361394b565b9150614d0d82614ccc565b602082019050919050565b60006020820190508181036000830152614d3181614cf5565b9050919050565b7f4552433732313a2061646472657373207a65726f206973206e6f74206120766160008201527f6c6964206f776e65720000000000000000000000000000000000000000000000602082015250565b6000614d9460298361394b565b9150614d9f82614d38565b604082019050919050565b60006020820190508181036000830152614dc381614d87565b9050919050565b7f546f6b656e20646f6573206e6f74206578697374000000000000000000000000600082015250565b6000614e0060148361394b565b9150614e0b82614dca565b602082019050919050565b60006020820190508181036000830152614e2f81614df3565b9050919050565b600081905092915050565b60008154614e4e816141f1565b614e588186614e36565b94506001821660008114614e735760018114614e8857614ebb565b60ff1983168652811515820286019350614ebb565b614e9185614a4e565b60005b83811015614eb357815481890152600182019150602081019050614e94565b838801955050505b50505092915050565b6000614ecf82613940565b614ed98185614e36565b9350614ee981856020860161395c565b80840191505092915050565b7f2e6a736f6e000000000000000000000000000000000000000000000000000000600082015250565b6000614f2b600583614e36565b9150614f3682614ef5565b600582019050919050565b6000614f4d8285614e41565b9150614f598284614ec4565b9150614f6482614f1e565b91508190509392505050565b7f45786365656473206d617820737570706c790000000000000000000000000000600082015250565b6000614fa660128361394b565b9150614fb182614f70565b602082019050919050565b60006020820190508181036000830152614fd581614f99565b9050919050565b7f546f6b656e206e6f742072657365727665640000000000000000000000000000600082015250565b600061501260128361394b565b915061501d82614fdc565b602082019050919050565b6000602082019050818103600083015261504181615005565b9050919050565b7f4e6f7420617574686f72697a656420666f72207468697320746f6b656e000000600082015250565b600061507e601d8361394b565b915061508982615048565b602082019050919050565b600060208201905081810360008301526150ad81615071565b9050919050565b7f4f776e61626c653a206e6577206f776e657220697320746865207a65726f206160008201527f6464726573730000000000000000000000000000000000000000000000000000602082015250565b600061511060268361394b565b915061511b826150b4565b604082019050919050565b6000602082019050818103600083015261513f81615103565b9050919050565b7f4f776e61626c653a2063616c6c6572206973206e6f7420746865206f776e6572600082015250565b600061517c60208361394b565b915061518782615146565b602082019050919050565b600060208201905081810360008301526151ab8161516f565b9050919050565b7f4552433732313a207472616e736665722066726f6d20696e636f72726563742060008201527f6f776e6572000000000000000000000000000000000000000000000000000000602082015250565b600061520e60258361394b565b9150615219826151b2565b604082019050919050565b6000602082019050818103600083015261523d81615201565b9050919050565b7f4552433732313a207472616e7366657220746f20746865207a65726f2061646460008201527f7265737300000000000000000000000000000000000000000000000000000000602082015250565b60006152a060248361394b565b91506152ab82615244565b604082019050919050565b600060208201905081810360008301526152cf81615293565b9050919050565b7f5265656e7472616e637947756172643a207265656e7472616e742063616c6c00600082015250565b600061530c601f8361394b565b9150615317826152d6565b602082019050919050565b6000602082019050818103600083015261533b816152ff565b9050919050565b7f4552433732313a20617070726f766520746f2063616c6c657200000000000000600082015250565b600061537860198361394b565b915061538382615342565b602082019050919050565b600060208201905081810360008301526153a78161536b565b9050919050565b7f4552433732313a207472616e7366657220746f206e6f6e20455243373231526560008201527f63656976657220696d706c656d656e7465720000000000000000000000000000602082015250565b600061540a60328361394b565b9150615415826153ae565b604082019050919050565b60006020820190508181036000830152615439816153fd565b9050919050565b600081519050919050565b600082825260208201905092915050565b600061546782615440565b615471818561544b565b935061548181856020860161395c565b61548a81613986565b840191505092915050565b60006080820190506154aa6000830187613a87565b6154b76020830186613a87565b6154c46040830185613b1d565b81810360608301526154d6818461545c565b905095945050505050565b6000815190506154f081613858565b92915050565b60006020828403121561550c5761550b613822565b5b600061551a848285016154e1565b91505092915050565b7f4552433732313a206d696e7420746f20746865207a65726f2061646472657373600082015250565b600061555960208361394b565b915061556482615523565b602082019050919050565b600060208201905081810360008301526155888161554c565b9050919050565b7f4552433732313a20746f6b656e20616c7265616479206d696e74656400000000600082015250565b60006155c5601c8361394b565b91506155d08261558f565b602082019050919050565b600060208201905081810360008301526155f4816155b8565b905091905056fea264697066735822122012ac5cff1170691287f16cace60220501317c7216626882469a6b6f36f72bf1664736f6c63430008130033",
  "linkReferences": {},
  "deployedLinkReferences": {}
}